:100000000C94E0020C9408030C9408030C9408036D
:100010000C9408030C9408030C94A21B0C94080382
:100020000C9408030C9408030C9408030C94080324
:100030000C9408030C9408030C9408030C94080314
:100040000C9408030C9408030C9408030C94080304
:100050000C94331B0C9408030C9408030C940803B1
:100060000C94581B0C9408030C9408030C9408037C
:100070000C9408030C94E91A0C9408030C940803DC
:100080000C9408030C9408030C947D1B0C940E1B19
:100090000C94851A0C94ED1B0C94C71B0C9408034C
:1000A00005A84CCDB2D44EB93836A9020C50B9913E
:1000B0008688083CA6AAAA2ABE000000803F00004D
:1000C0000000003E5B4F5B3E3E6B4F6B3E1C3E7C38
:1000D0003E1C183C7E3C181C577D571C1C5E7F5EE6
:1000E0001C00183C1800FFE7C3E7FF0018241800A5
:1000F000FFE7DBE7FF30483A060E2629792926403C
:100100007F050507407F05253F5A3CE73C5A7F3E67
:100110001C1C08081C1C3E7F14227F22145F5F00F9
:100120005F5F06097F017F006689956A6060606095
:100130006094A2FFA29408047E040810207E201080
:1001400008082A1C08081C2A08081E101010100C89
:100150001E0C1E0C30383E3830060E3E0E060000D7
:1001600000000000005F00000007000700147F147B
:100170007F14242A7F2A12231308646236495620EA
:10018000500008070300001C2241000041221C000F
:100190002A1C7F1C2A08083E0808008070300008CE
:1001A00008080808000060600020100804023E51A2
:1001B00049453E00427F4000724949494621414934
:1001C0004D331814127F1027454545393C4A49499B
:1001D0003141211109073649494936464949291E05
:1001E00000001400000040340000000814224114F4
:1001F00014141414004122140802015909063E4146
:100200005D594E7C1211127C7F494949363E41416D
:1002100041227F4141413E7F494949417F090909C6
:10022000013E414151737F0808087F00417F410032
:100230002040413F017F081422417F404040407FE1
:10024000021C027F7F0408107F3E4141413E7F092E
:100250000909063E4151215E7F091929462649496F
:10026000493203017F01033F4040403F1F204020AF
:100270001F3F4038403F63140814630304780403AD
:100280006159494D43007F4141410204081020005B
:100290004141417F040201020440404040400003CC
:1002A00007080020545478407F2844443838444498
:1002B0004428384444287F385454541800087E0990
:1002C0000218A4A49C787F0804047800447D4000B0
:1002D0002040403D007F1028440000417F40007CCA
:1002E000047804787C080404783844444438FC18C2
:1002F00024241818242418FC7C08040408485454A6
:10030000542404043F44243C4040207C1C204020D2
:100310001C3C4030403C44281028444C9090907C39
:100320004464544C4400083641000000770000004B
:100330004136080002010204023C2623263C1EA18D
:10034000A161123A4040207A3854545559215555EC
:10035000794122545478422155547840205455799B
:10036000400C1E527212395555555939545454592E
:1003700039555454580000457C410002457D4200E7
:1003800001457C407D1211127DF0282528F07C5417
:100390005545002054547C547C0A097F4932494910
:1003A00049323A4444443A324A4848303A41412179
:1003B0007A3A42402078009DA0A07D3D4242423DD5
:1003C0003D4040403D3C24FF2424487E4943662B69
:1003D0002FFC2F2BFF0929F620C0887E090320540B
:1003E0005479410000447D413048484A3238404009
:1003F000227A007A0A0A727D0D19317D2629292F69
:1004000028262929292630484D4020380808080880
:1004100008080808382F10C8ACBA2F102834FA0082
:10042000007B000008142A142222142A1408550004
:10043000550055AA55AA55AAFF55FF55FF000000C3
:10044000FF00101010FF00141414FF001010FF0024
:10045000FF1010F010F0141414FC001414F700FF37
:100460000000FF00FF1414F404FC141417101F10F4
:10047000101F101F1414141F00101010F0000000A3
:10048000001F101010101F10101010F010000000AE
:10049000FF101010101010101010FF10000000FFBF
:1004A000140000FF00FF00001F10170000FC04F400
:1004B00014141710171414F404F40000FF00F714B8
:1004C000141414141414F700F7141414171410103F
:1004D0001F101F141414F4141010F010F000001F5B
:1004E000101F0000001F14000000FC140000F0109A
:1004F000F01010FF10FF141414FF141010101F0040
:10050000000000F010FFFFFFFFFFF0F0F0F0F0FF41
:10051000FFFF0000000000FFFF0F0F0F0F0F384418
:10052000443844FC4A4A4A347E02020606027E02ED
:100530007E0263554941633844443C04407E201E9A
:100540002006027E020299A5E7A5991C2A492A1CC9
:100550004C7201724C304A4D4D303048784830BCB6
:10056000625A463D3E494949007E0101017E2A2AE0
:100570002A2A2A44445F444440514A444040444A61
:1005800051400000FF0103E080FF000008086B6B92
:10059000083612362436000609090600001818002D
:1005A00000001010003040FF0101001F01011E007B
:1005B000191D1712003C3C3C3C0000000000361C9A
:1005C00011241FBECFEFCDBFDFE3DEBF18E2A0E0F6
:1005D000B8E2EBE3FFE402C005900D92AE30B10744
:1005E000D9F72AE2AEE0B8E201C01D92A438B20702
:1005F000E1F712E0C0EED2E004C02197FE010E94B4
:100600001122CF3DD107C9F70E94F81C0C94902607
:100610000C940000FC0154894589252F30E0842F7B
:1006200090E0821B930B541710F0CF96089501971A
:100630000895FC0192898389981761F0A389AE0F10
:10064000BF2FB11D59968C9193899F5F9F73938B98
:1006500090E008958FEF9FEF0895FC0192898389C0
:10066000981731F08389E80FF11D818D90E008958E
:100670008FEF9FEF0895FC0192892389892F90E0E5
:10068000805C9F4F821B91098F7399270895CF93A8
:10069000DF93EC01E881F9810680F781E02D09956F
:1006A000EC85FD8586818F738683EC85FD8585814C
:1006B0008F7585838B898A8B198ADF91CF910895F5
:1006C000CF93DF93FC0194898589C485D5859813E0
:1006D00006C08D818F7D8D83DF91CF910895A5898F
:1006E000AE0FBF2FB11DA75ABF4F2C91858990E047
:1006F00001968F739927858B80E48C83A485B585BB
:1007000012962C93948985899813E6CFA485B58594
:1007100015968C9115978F7D15968C9387898823D4
:10072000D9F2808D80931301178AD6CFDC011C96F5
:10073000ED91FC910FB607FE03C0258125FD04C095
:10074000248125FD0C9460030895EF92FF920F938E
:100750001F93CF93DF93EC0181E0898B9C898D8976
:1007600098131CC0AC85BD8514968C91149785FF99
:1007700015C012966C93AC85BD8580E414968C935D
:10078000EC85FD8585818F7D858381E090E0DF911B
:10079000CF911F910F91FF90EF90089580911101DB
:1007A00080FF08C080911301888F8E898093130188
:1007B00081E08F8BF62E0C8910E00F5F1F4F0F73B7
:1007C0001127E02E8D898E1104C0CE010E94960360
:1007D000F9CFEC89EC0FFD2FF11DE75AFF4FF082A6
:1007E0000C8BEC85FD8585818062CECFCF93DF9326
:1007F000FC0121892223C9F0EC018091110180FFC5
:1008000008C080911301808F86898093130181E055
:10081000878BEC85FD85858185FD03C0848186FD00
:1008200004C0CE010E949603F4CFDF91CF910895CA
:10083000CF93DF9390E0FC01E258F14720812F3FF6
:1008400069F0FC01EC59F147E08130E2E39FF001EF
:100850001124FC5F6130710521F42183DF91CF9178
:100860000895865B9147EC01A881AF3F69F0CF0105
:100870004096A80FB92FB11D9FB7F89422838C9191
:1008800088608C939FBFEACFB0E0A0E0F5CF282F1F
:1008900030E0F901E05DF147E081EE2309F1E1305C
:1008A00021F0F0F0E63098F008954091010A265BBF
:1008B0003147F90120812C5F81E090E001C0880F71
:1008C0002A95EAF7809584238093010A089580E1B0
:1008D000E89FF0011124E05AF54F81818F7E8183DA
:1008E0000895FF920F931F93CF93DF93082F10E08B
:1008F000F801E258F147F0809FEFF916A1F0EB0103
:100900008B3210F40E944704F801EC59F147E08162
:1009100080E2E89FF0011124FC5F80818F2159F073
:10092000CD2B39F4F682DF91CF911F910F91FF907B
:100930000895F582F8CFD801A65BB1478C91309726
:1009400071F08F3F61F07096E80FF11D9FB7F8943A
:100950008081CD2B39F4877F80839FBFE4CFF0E087
:10096000E0E0F4CF8860F8CF0F931F93CF93082F68
:1009700010E0F801E258F147C081CF3FB9F08B3267
:1009800010F40E944704F801EC59F147E08180E23D
:10099000E89FF0011124FC5F8085C82381E090E08E
:1009A00009F480E0CF911F910F91089580E090E0CD
:1009B000F9CF8B3210F40C94710408958B3210F43B
:1009C0000C9418040895CF92DF92EF92FF920F9348
:1009D0001F93CF93DF93EC016A017B01022F89897A
:1009E000882339F0E881F9810288F389E02DCE016E
:1009F000099598898091E205892B8093E2051FB7BC
:100A0000F89460E070E281EA97E0A70196010E9405
:100A1000D02169017A018FEFC81AD80AE80AF80ACA
:100A2000F694E794D794C794EC85FD8586818D7FF5
:100A30008683EC85FD8586818683198AA0912311A2
:100A40000A2E000CBB0BA70196010E94402220E059
:100A500034E040E050E00E94F221EC85FD85C20EBA
:100A6000D31EE41EF51EC086D186EC85FD85078366
:100A7000EC85FD858681806C8683EC85FD8585818E
:100A8000806885838E8562E070E00E94DE048F8539
:100A900061E070E00E94D9048F8561E070E00E94FF
:100AA000DE041FBFDF91CF911F910F91FF90EF9058
:100AB000DF90CF900895CF93DF938FB7F894209174
:100AC000E3283091E4284091E5285091E628E09110
:100AD000BA0A9091B60A90FF06C02F5F3F4F4F4F62
:100AE0005F4FE091BA0A8FBFA091E128B091E22850
:100AF000C091DF28D091E0280E943522EC9F900120
:100B0000ED9F300D1124620F731F811D911DDF9128
:100B1000CF9108958F929F92AF92BF92CF92DF9222
:100B2000EF92FF924B015C010E945B056B017C011F
:100B3000A8EEB3E0A50194010E943522C60ED71E8F
:100B4000E81EF91EC616D706E806F90618F40E9434
:100B50005B05F8CF0E945B056C157D058E059F0532
:100B6000C8F3FF90EF90DF90CF90BF90AF909F9031
:100B70008F900895AF92BF92CF92DF92EF92FF9243
:100B80000F931F93CF93DF936C017B018B01040FB5
:100B9000151FEB015E01AE18BF08C017D10759F051
:100BA0006991D601ED91FC910190F081E02DC60193
:100BB0000995892B79F7C501DF91CF911F910F918D
:100BC000FF90EF90DF90CF90BF90AF900895EF929D
:100BD000FF920F931F93CF93DF93C82FD0E0A0967F
:100BE00095E0CC0FDD1F9A95E1F7E984F82EFF0C14
:100BF000FF0CFF0C01E010E08E2D8023A9F02F2DBB
:100C0000210F30E0220F331FF901EB58F74D80819F
:100C10009181892B49F00190F081E02D2B5E374DB9
:100C2000D9018D919C9109951F5F000F183021F714
:100C3000E986DF91CF911F910F91FF90EF9008957A
:100C400081E008950895EF92FF920F931F93CF9341
:100C5000DF937C01EB018B01040F151FC017D10737
:100C600059F0D701ED91FC910480F581E02D688168
:100C7000C70109958993F2CFDF91CF911F910F9111
:100C8000FF90EF9008950F931F93CF93DF93EC01A4
:100C90008B018091C008E881F9810480F581E02D05
:100CA00086FD13C0612FCE010995182FE881F981C7
:100CB0000480F581E02D602FCE010995082FC80131
:100CC000DF91CF911F910F910895CE010995082FC3
:100CD000E881F9810480F581E02D612FCE0109952D
:100CE000182FEDCF00006093C4088091C30887FFE0
:100CF000FCCF8091C40808958F929F92AF92BF92CB
:100D0000CF92DF92EF92FF920F931F93CF93DF93D7
:100D1000FC018085882319F081FF0EC07894DF9153
:100D2000CF911F910F91FF90EF90DF90CF90BF90E8
:100D3000AF909F908F90089580FFF1CF828493842D
:100D4000A484B584C12CD12C760110E09401A501B6
:100D5000B601C701A0E00E94652299F1217030E040
:100D600040E050E060E070E080E090E00E946522AA
:100D7000D9F0D0E0C0E0103370F4C12FC695C6950D
:100D8000C69580E2C89FE0011124C05FDB4F812F30
:100D90008770C80FD11DCF01810F911DDC015296C4
:100DA0008C919881892B88839401A501B601C70194
:100DB00001E00E944A2249015A016B017C011F5F38
:100DC000C5CF86849784A088B188C12CD12C7601A8
:100DD00010E29401A501B601C701A0E00E946522BE
:100DE00009F49DCF217030E040E050E060E070E019
:100DF00080E090E00E946522D9F0D0E0C0E010339E
:100E000070F4C12FC695C695C695B0E2CB9FE001A0
:100E10001124C05FDB4F812F8770C80FD11DCF0118
:100E2000810F911DDC0152968C919881892B8883CA
:100E30009401A501B601C70101E00E944A224901BF
:100E40005A016B017C011F5FC4CFFC016F3F71052C
:100E500081F1808581FD2DC0603271055CF581E0F6
:100E600090E002C0880F991F6A95E2F780959095EF
:100E7000092E000CAA0BBB0B428553856485758532
:100E800084239523A623B72382879387A487B587D6
:100E900082859385A485B585892B8A2B8B2B49F474
:100EA00086859785A089B189892B8A2B8B2B09F49C
:100EB000108608956052710981E090E002C0880FA9
:100EC000991F6A95E2F780959095092E000CAA0B60
:100ED000BB0B468557856089718984239523A6239A
:100EE000B72386879787A08BB18BD2CFFC016F3F4A
:100EF0007105E9F1603371051CF082E08087089587
:100F000080858160808760327105C4F481E090E063
:100F100002C0880F991F6A95E2F7092E000CAA0BF0
:100F2000BB0B4285538564857585842B952BA62B39
:100F3000B72B82879387A487B5870895605271097C
:100F400081E090E002C0880F991F6A95E2F7092EB0
:100F5000000CAA0BBB0B4685578560897189842BD1
:100F6000952BA62BB72B86879787A08BB18B0895DF
:100F7000E0ECF8E020812E7F2083FC0117820895A9
:100F8000E0ECF8E082818E7F82830895E0ECF8E067
:100F90008281816082830895AF92BF92CF92DF9267
:100FA000EF92FF920F931F93CF93DF93EC016B01AE
:100FB0007A01590189A59AA58617970779F48DA515
:100FC0009EA58217930751F48BA59CA584179507BE
:100FD00029F48FA598A98017910791F18F8D98A179
:100FE0004FA19501215031092C0D3D1D50E0240FDA
:100FF000351F4C0D5D1DDC01ED91FC910488F589D8
:10100000E02D6AE209958F8D98A148A5980121509D
:1010100031092E0D3F1D50E0240F351F4E0D5F1D71
:10102000DC01ED91FC910488F589E02D6BE20995D6
:10103000C9A6DAA6EBA6FCA6ADA6BEA60FA718AB5E
:101040008F8D98A1DC01ED91FC910680F781E02D58
:101050006CE2DF91CF911F910F91FF90EF90DF90A5
:10106000CF90BF90AF900994DC01ED91FC9104808A
:10107000F581E02D0994CF92DF92EF92FF920F93CA
:101080001F93CF93DF938C0169017A01EB0181E01B
:10109000C81AD108E108F108EFEFCE16DE06EE0619
:1010A000FE06A1F0888169812296809311286093C1
:1010B0001228F801818592850E94340860911128D8
:1010C000F801818592850E943408E1CFDF91CF91AC
:1010D0001F910F91FF90EF90DF90CF900895CF92E6
:1010E000DF92EF92FF92CF93DF93EC0169017A01D7
:1010F000609311287093122881E0C81AD108E10882
:10110000F1088FEFC816D806E806F80669F0609176
:10111000122889859A850E94340860911128898552
:101120009A850E943408E8CFDF91CF91FF90EF902D
:10113000DF90CF900895CF93DF93EC016093112857
:1011400070931228672F89859A850E9434086091D0
:10115000112889859A85DF91CF910C943408FC0180
:10116000818592850C943408CF93DF93EC01EE8552
:10117000FF8580819B8989238083609311287093E8
:101180001228672F89859A850E943408609111285A
:1011900089859A850E943408EE85FF8580819A8929
:1011A000892B8083DF91CF910895CF93DF93EC015A
:1011B000EE85FF8580819B898923808389859A8537
:1011C0000E943408EE85FF8580819A89892B80836F
:1011D000DF91CF910895FC0180858F3F31F0A48588
:1011E000B5858C919089892B8C938385882349F0D0
:1011F00081859285DC01ED91FC910088F189E02DDB
:10120000099408950F931F93CF93DF93EC018B857F
:101210008823C9F089859A85DC01ED91FC910684CB
:10122000F785E02D00918A2910918B2920918C2936
:1012300030918D2940918E2950918F29609190296C
:10124000709191290995EE85FF8580819A89892B76
:10125000808388858F3F31F0EC85FD858081998979
:1012600089238083DF91CF911F910F910895DC0135
:101270005F968D919C91DC01ED91FC910484F58544
:10128000E02D0994DC015F968D919C91DC01ED913C
:10129000FC910480F581E02D0994AF92BF92CF922A
:1012A000DF92EF92FF920F931F93CF93DF93EC01A6
:1012B0005901E881F98100A0F1A1E02D099595017E
:1012C000D8010E9417229B01AC01E881F98102A09C
:1012D000F3A1E02DB701CE01DF91CF911F910F91C6
:1012E000FF90EF90DF90CF90BF90AF900994EF9276
:1012F000FF920F931F93CF93DF9357FD38C0DC010C
:101300001A96ED91FC91E417F5078CF12115310542
:1013100071F137FF07C0F90131966E0F7F1F3195CC
:1013200021953109DC011896ED91FC91E617F7073C
:10133000F4F0EB01C20FD31FDE011197B7FD17C008
:1013400077FF03C09E0170E060E0EA17FB072CF412
:101350009F01261B370B2F5F3F4FDC01ED91FC9166
:101360000684F785E02D780101E010E00995DF9112
:10137000CF911F910F91FF90EF900895EF92FF9200
:101380000F931F93CF93DF9377FD39C0DC0118963D
:10139000ED91FC91E617F70794F12115310579F1EC
:1013A00037FF07C0F90131964E0F5F1F3195219528
:1013B0003109DC011A96ED91FC91E417F507FCF078
:1013C000EA01C20FD31FDE011197B7FD18C057FF06
:1013D00003C09E0150E040E0EA17FB072CF49F0198
:1013E000241B350B2F5F3F4FDC01ED91FC910684F0
:1013F000F785E02D7801890121E030E00995DF9142
:10140000CF911F910F91FF90EF900895DC015F96AF
:101410008D919C91DC01ED91FC91008CF18DE02D82
:101420000994EF92FF920F931F93CF93DF93EC01F8
:101430007901E881F98100A0F1A1E02D01E010E03F
:1014400021E030E009958F8D98A1DC01ED91FC91B0
:101450000484F585E02DB701DF91CF911F910F91A5
:10146000FF90EF900994DC015F968D919C91DC01D7
:10147000ED91FC910280F381E02D0994EF92FF92AF
:101480000F931F93CF93DF93EC0129A98F8D98A120
:10149000DC01ED91FC910190F081E02D2F3FA1F155
:1014A0000995E881F98106A0F7A1E02DCE01099503
:1014B000E881F981008CF18DE02D6F89CE010995CD
:1014C0000E811F81EC80FD80E881F9810484F5851F
:1014D000E02DCE010995E881F98100A0F1A1E02D70
:1014E000970150E040E070E060E0CE010995E881AE
:1014F000F9810688F789E02DCE01DF91CF911F9108
:101500000F91FF90EF9009942FEFCACFFC0111AA21
:101510000C943E0A6F927F928F929F92AF92BF92ED
:10152000CF92DF92EF92FF920F931F93CF93DF93AF
:10153000570137FF07C0F90131966E0F7F1F3195B4
:1015400021953109EC01A885B985A617B7070CF4D8
:1015500043C017FF07C0F80131964E0F5F1F11956A
:1015600001951109EC01EA85FB85E417F507A4F163
:101570006B01C20ED31E3601D1E06D1A710877FCE3
:101580002BC07A01E00EF11E4701C1E08C1A9108D0
:1015900097FC22C077FF03C0960170E060E057FF20
:1015A00003C0870150E040E0A615B7052CF49D016B
:1015B000261B370B2F5F3F4FE815F9052CF48F01E1
:1015C000041B150B0F5F1F4FDC01ED91FC9106848E
:1015D000F785E02D75010995DF91CF911F910F914E
:1015E000FF90EF90DF90CF90BF90AF909F908F9043
:1015F0007F906F90089508950895FC016370678B44
:10160000858D968D238D348DAC0141505109D901C2
:101610001197613011F0633049F4848395832683F8
:10162000378340875187A287B38708952483358302
:1016300086839783A087B187428753870895CF9386
:10164000DF93EC010E94FD0A8F898230A9F083307C
:10165000B9F09CA18130C1F49FA38DA188A78FEF21
:101660009FEF89A79AA78BA79CA78DA79EA78FA757
:1016700098ABDF91CF9108958DA18FA38EA1EECF6E
:101680008EA18FA38BA1EACF8BA18FA398A7E7CFC1
:101690001F93CF93DF93EC010E941F0BEF89E15062
:1016A00018E0E33020F4F0E0EC5DF24710818F8D1C
:1016B00098A1DC01ED91FC910280F381E02D099568
:1016C0008F8D98A1DC01ED91FC910680F781E02DD2
:1016D00066E309958F8D98A1DC01ED91FC91028460
:1016E000F385E02D612F09958F8D98A1DC01ED9197
:1016F000FC910480F581E02DDF91CF911F91099439
:1017000008956F927F928F929F92AF92BF92CF92E5
:10171000DF92EF92FF920F931F93CF93DF936C01B1
:101720005B014901EA013A01600E711EC615D70539
:1017300074F4D601ED91FC910288F389E02D8701C4
:101740009401AE01B501C60109952196EFCFDF9155
:10175000CF911F910F91FF90EF90DF90CF90BF90AE
:10176000AF909F908F907F906F900895EF92FF922F
:101770000F931F932115310529F00115110511F063
:101780000E948A0A1F910F91FF90EF90089577FDB4
:1017900017C0DC011896ED91FC911997E617F70731
:1017A0007CF057FD0DC01A96ED91FC911B97E41744
:1017B000F50734F0ED91FC910284F385E02D099456
:1017C00008952F923F924F925F926F927F928F92E5
:1017D0009F92AF92BF92CF92DF92EF92FF920F93C0
:1017E0001F93CF93DF93CDB7DEB76597CDBFDEBF35
:1017F0008C8B9D8B2B016A01922E18015701DC0105
:1018000059968D919C915A975496AC91EC89FD898B
:10181000058940855185009709F4FCC0FC01349688
:101820006491329725913491961AF7E09F9E200D8E
:10183000311D1124FC01659174916A877B87F90140
:10184000659174916F837887F901329674917983E9
:101850003196B491B98731966491FC013696F49033
:10186000F901359674917D83319684918B8344156B
:1018700055050CF43BC2EC89FD89828593858C1556
:101880009D050CF433C28980861608F4862E8A9E44
:1018900040011124C201880D991D181619060CF07B
:1018A00025C2F09E80011124C601800F911F1816D9
:1018B00019060CF01BC2AC89BD89ED91FC91119702
:1018C0000484F585E02DCD010995A214B304C9F077
:1018D0008F2D90E0880F991F63E070E00E94BC217B
:1018E000EC89FD892589269FC001279F900D112431
:1018F000A601481B590B75019401B201CF010E944A
:10190000B60B712C612CA12CB12C2B81022E000C5A
:10191000330B2B833C834D81042E000C550B4D83E0
:101920005E832C0D3D1D288B398B440D551D4A8B34
:101930005B8B5985651608F008C1912C812C6B8151
:101940007C81660D771D6C877D8788899989860DD6
:10195000971D8E879F878A2D880D9981891608F09B
:1019600053C0877061F48F8198850196EA85FB8565
:10197000AF81B885EA0FFB1FB4908F839887B7FEBD
:1019800012C0EC89FD8984896589813089F46130D0
:1019900079F491014E855F856A897B89680D791D8F
:1019A000CF010E94C70BBB0CBFEF8B1A9B0AD3CF92
:1019B00070E0AC89BD8956962C9130E090E08B01A7
:1019C000021B130BFC01E21BF30B9F01AC85BD85D1
:1019D000A69FA001A79F500DB69F500D11244C0D3E
:1019E0005D1DED81FE81E80DF91DE89FB001E99FC5
:1019F000700DF89F700D1124640D751D71018C8997
:101A00009D890E94B60BCFCFE981AE0EFFEF6F1A12
:101A10007F0A8FCF461757070CF468C1EC89FD8900
:101A2000828593858C159D050CF460C1CB01F6E091
:101A3000AF9F800D911D1124181619060CF056C188
:101A400028E0029F800111240C0D1D1D10161106A7
:101A50000CF04CC1AC89BD89ED91FC9111970484C7
:101A6000F585E02DCD010995B5E09B9EC0011124BF
:101A7000E1E0F0E0E983FA83712C612C9C012254AF
:101A80003F4F2F833887EF81F885E60DF71DE491EE
:101A9000912C812CA201460D571D4B835C836E2F28
:101AA00070E06D837E83E0FFE4C0AC89BD8954960D
:101AB0002C91549755960C915597213009F064C09C
:101AC000013009F061C09101A601480D591D6B81DB
:101AD0007C81CD010E94C70BED81FE81F595E795D4
:101AE000FFEF8F1A9F0A28E082169104C1F63FEF9C
:101AF000631A730A49815A814F5F5F4F49835A8342
:101B000055E06516710409F0BECFA214B304E9F0E4
:101B1000AC89BD8954968C91549755960C915597E4
:101B2000813009F0D0C0013009F0CDC0B2016B5F47
:101B30007F4FED91FC9111970088F189E02D85018F
:101B400028E030E0A601CD010995AC89BD89ED9171
:101B5000FC9111970688F789E02DCD016596CDBFE0
:101B6000DEBFDF91CF911F910F91FF90EF90DF903B
:101B7000CF90BF90AF909F908F907F906F905F902D
:101B80004F903F902F900994EC89FD89868910E051
:101B900030E0809EA001819E500D909E500D11243A
:101BA0004C0D5D1D629EB001639E700D729E700DA6
:101BB0001124640D751D882309F457C090E0081B9B
:101BC000190B281B390B7101CF010E94B60BAC8990
:101BD000BD8955960C91559710E056962C915697C5
:101BE00030E0089DA001099D500D189D500D112455
:101BF0004C0D5D1D54968C915497E981FA818E9F0E
:101C0000B0018F9F700D1124640D751D621B730B45
:101C10007501CD010E94B60BAC89BD8956960C9119
:101C2000569710E054968C91549790E09C01201B9D
:101C3000310B5596EC915597B4016F5F7F4FE69F3E
:101C4000A001E79F500D11244C0D5D1D401B510B51
:101C5000689EB001699E700D789E700D1124640D10
:101C6000751DCD010E94B60B37CF71018C899D89FE
:101C7000F9CFA214B30409F42FCFEC89FD8924898C
:101C80000589213051F4013041F49501A601480D38
:101C9000591D6B817C81CF011DCF10E030E0089D84
:101CA000A001099D500D189D500D11244C0D5D1D76
:101CB000629EB001639E700D729E700D1124640DC2
:101CC000751D7501D3CFB8E00B9F80011124282F1B
:101CD00030E0B201E5E08E9F600D711D11247501A9
:101CE000A6018C899D890E94B60B2FCF6596CDBF2A
:101CF000DEBFDF91CF911F910F91FF90EF90DF90AA
:101D0000CF90BF90AF909F908F907F906F905F909B
:101D10004F903F902F900895DF92EF92FF920F9394
:101D20001F93CF93DF93EC01262F898D9A8D009717
:101D300009F467C06A30C1F41C861D86FC01369622
:101D4000E4912D898E859F85E29F800D911D112440
:101D50008E879F8781E090E0DF91CF911F910F9157
:101D6000FF90EF90DF9008956D30A1F3FC01349661
:101D70003491631778F33196E491E61758F3FC0138
:101D8000329645915491631B362FFA0167E0369FD6
:101D9000E00DF11D11243496D490388D3323E1F0F9
:101DA0003C894C855D85D39E400D511D11244150C9
:101DB0005109688579856417750774F44E855F85C8
:101DC0001C861D860696FC0184919D89899F400D85
:101DD000511D11244E875F87EA88FB88088919897D
:101DE0004E855F856C857D85CE010E94E10B2C8937
:101DF0008C859D85D29E800D911D11248C879D8799
:101E0000A9CF6A3061F41C861D868D89F8E08F9F0A
:101E1000900111248E859F85820F931F99CF6D307D
:101E200009F498CF888D8823D9F03C898C859D85CD
:101E300046E0349F800D911D1124019748855985F6
:101E4000481759076CF44E855F851C861D868D8961
:101E500068E0869FC0011124840F951F8E879F879D
:101E6000EA88FB88088919894E855F856C857D85A0
:101E7000CE010E94E10B2C898C859D85E6E02E9F8A
:101E8000800D911D1124BACFAF92BF92CF92DF92F5
:101E9000EF92FF920F931F93CF93DF936C015A0140
:101EA000EB017B01E20EF31ECE15DF0544F4980131
:101EB000A501BE01C6010E94C70B2196F5CFDF9197
:101EC000CF911F910F91FF90EF90DF90CF90BF9037
:101ED000AF900895AF92BF92CF92DF92EF92FF92B0
:101EE0000F931F93CF93DF936C015B01EA017A019B
:101EF000E20EF31ECE15DF0544F49801AE01B501E4
:101F0000C6010E94C70B2196F5CFDF91CF911F919B
:101F10000F91FF90EF90DF90CF90BF90AF9008951A
:101F20002F923F924F925F926F927F928F929F92E9
:101F3000AF92BF92CF92DF92EF92FF920F931F93D7
:101F4000CF93DF93CDB7DEB72697CDBFDEBF4C0171
:101F50006B014D835E8359016217730791F5041776
:101F6000150734F49D818E810D831E83092F182F50
:101F70002D813E81021B130B98012F5F3F4FD4012F
:101F8000ED91FC910088F189E02D87014D815E8102
:101F9000B601C40109952696CDBFDEBFDF91CF9172
:101FA0001F910F91FF90EF90DF90CF90BF90AF9077
:101FB0009F908F907F906F905F904F903F902F9069
:101FC00008952D813E812017310799F4A616B70692
:101FD00024F48D2D6501A62EB82E95012C193D09EE
:101FE0002F5F3F4FD401ED91FC910288F389E02DE2
:101FF000CCCF2D813E811801221A330A20173107D8
:1020000024F02D803E80201A310A25014C185D08ED
:10201000CA14DB041CF026014A185B08421453045E
:102020005CF49A2D8B2D5801092F182F9C2D8D2D86
:10203000CD80DE809D838E83AC14BD045CF49D81D5
:102040008E810D831E83092F182F9C2D8D2D6501E8
:10205000A92EB82EC5018C199D0989839A83AD815B
:10206000BE81A017B107ACF598012A1B3B0B2B834F
:102070003C8369807A8075946794AD81BE81A01796
:10208000B10774F10FEF1FEFAC14BD040CF483CF54
:102090009701A6016D817E81421453041CF04D818D
:1020A0005E81B601C4010E94C70B2B813C81621A7C
:1020B000730A77FE0AC089819A81680E791EAD8104
:1020C000BE81A00FB11FAD83BE83BFEFCB1ADB0A69
:1020D000DBCF8D819E81801B910B8B839C83C9CF2D
:1020E00001E010E0D1CF90E080E008951F93CF93FE
:1020F000DF93EC01162FE881F9810280F381E02D56
:102100000995E881F9810680F781E02D612FCE01E4
:102110000995E881F9810480F581E02DCE01DF91F8
:10212000CF911F91099460E1FC01878D90A10E94DD
:10213000761068E770E080E090E00C948A0561E139
:10214000FC01878D90A10E94761068E770E080E026
:1021500090E00C948A05FC01878D90A122A1222396
:1021600021F0662321F060E203C06623E1F361E21F
:102170000C947610EF92FF920F931F93CF93DF93FF
:10218000EC018A017901E881F9810680F781E02D6F
:1021900009950093132810931428E881F98102848B
:1021A000F385E02D612FCE01099503E118E2E88166
:1021B000F9810284F385E02DD8016C91CE01099557
:1021C000E0921328F0921428E881F9810284F385C3
:1021D000E02D6F2DCE010995E881F9810284F38508
:1021E000E02DD8016C91CE01DF91CF911F910F911D
:1021F000FF90EF900994EF92FF920F931F93CF936C
:10220000DF93EC017A018901E881F9810680F78189
:10221000E02D0995E881F9810484F585E02DB70169
:10222000CE010995E881F9810484F585E02DB80196
:10223000CE01DF91CF911F910F91FF90EF90099404
:102240000F931F93CF93DF93EC018A01E881F9810B
:102250000084F185E02D0995E881F9810484F585F4
:10226000E02DB801CE01DF91CF911F910F9109941C
:102270000F931F93CF93DF93EC018A01E881F981DB
:102280000680F781E02D0995E881F9810484F585C0
:10229000E02DB801CE01DF91CF911F910F910994EC
:1022A0001F93CF93DF93EC01142FE881F98106800F
:1022B000F781E02D0995E881F9810284F385E02D0D
:1022C000612FCE01DF91CF911F910994DC01ED9137
:1022D000FC910088F189E02D23E030E009942F92F1
:1022E0003F924F925F926F927F928F929F92AF92A6
:1022F000BF92CF92DF92EF92FF920F931F93CF93F3
:10230000DF93CDB7DEB7E897CDBFDEBF1C012A0152
:102310003B015901EBAAFCAAA9019801CB01B2012A
:102320000E94711E9B01AC015F7729833A834B8326
:102330005C8320E030E044EB53E4C301B2010E942F
:10234000D81F2B013C0120E030E044EB53E4C501F1
:10235000B8010E94D81F6B017C0120E030E0A90188
:10236000C301B2010E94DE1E87FF0AC020E030E0F8
:1023700044EB53E4C301B2010E94721E2B013C01E5
:1023800020E030E0A901C701B6010E94DE1E87FFF0
:102390000AC020E030E044EB53E4C701B6010E94DC
:1023A000721E6B017C0120E030E040E054E3698163
:1023B0007A818B819C810E94DE1E87FD18C0A70157
:1023C0009601C301B2010E94711E9F7727E137EB8E
:1023D00041ED58E30E94DE1E18164CF0C12CD12CA2
:1023E000E4EBEE2EE3E4FE2E412C512C3201D10120
:1023F000ED91FC910484F585E02DC101099520E063
:1024000030E044EB52E4C301B2010E94DE1E882397
:10241000F1F020E030E044E353E4C301B2010E9454
:10242000DE1E8823A1F020E030E047E853E4C3013A
:10243000B2010E94DE1E882351F020E030E044EB20
:1024400053E4C301B2010E94DE1E81110AC02DECCB
:102450003CEC4CEC5DE3C301B2010E94711E2B0108
:102460003C0120E030E044EB52E4C701B6010E9499
:10247000DE1E8823F1F020E030E044E353E4C7019E
:10248000B6010E94DE1E8823A1F020E030E047E87C
:1024900053E4C701B6010E94DE1E882351F020E0FC
:1024A00030E044EB53E4C701B6010E94DE1E811107
:1024B0000AC02DEC3CEC4CEC5DE3C701B6010E9478
:1024C000711E6B017C0125E33AEF4EE85CE3C3012A
:1024D000B2010E94E82069877A878B879C870E94D7
:1024E000E31E69837A838B839C8325E33AEF4EE86E
:1024F0005CE3C701B6010E94E8204B015C010E9429
:10250000E31E6D837E838F83988769857A858B85AB
:102510009C850E9455219B01AC0169817A818B8148
:102520009C810E94E81E6A8F7B8F8C8F9D8FC501D6
:10253000B4010E9455219B01AC016D817E818F8188
:1025400098850E94E81E6E8F7F8F88A399A32981AA
:102550003A814B815C8160E070E080E09FE30E9403
:10256000E81E6AA37BA38CA39DA32D813E814F818E
:10257000588560E070E080E09FEB0E94E81E6EA34B
:102580007FA388A799A720E030E044E353E4C30188
:10259000B2010E94DE1E881F8827881F91E08927CC
:1025A0008AA720E030E044E353E4C701B6010E946B
:1025B000DE1E881F8827881F898F20E030E044E3D3
:1025C00053E4C301B2010E94721E9B01AC01C7011A
:1025D000B6010E94E32018160CF4F8C0A70196017A
:1025E000C301B2010E94E320181684F420E030E019
:1025F00044E353E4C701B6010E94721E9B01AC0183
:10260000C301B2010E94DE1E87FDE0C020E030E081
:1026100047E853E4C701B6010E94E32087FF0AC0E0
:1026200020E030E044EB52E4C701B6010E94DE1E18
:1026300087FF14C020E030E047E853E4C301B20153
:102640000E94E32087FF44C020E030E044EB52E4E6
:10265000C301B2010E94DE1E87FD3AC020E030E0D7
:1026600047E853E4C701B6010E94DE1E87FFA0C001
:1026700020E030E044EB52E4C701B6010E94E320C1
:1026800087FD18C020E030E047E853E4C301B20101
:102690000E94DE1E87FF8CC020E030E044EB52E455
:1026A000C301B2010E94E320812C912C5401839438
:1026B00087FF05C045E6842E912CA12CB12C2CE976
:1026C0003FEF4FEF5FEF29833A834B835C8309C071
:1026D00065E6862E912CA12CB12C19821A821B82C0
:1026E0001C8220E030E044E353E4C701B6010E94BD
:1026F000E32087FD0AC020E030E044E353E4C30157
:10270000B2010E94E32087FF7FC020E030E044E375
:1027100053E4C701B6010E94DE1E87FF81C020E09E
:1027200030E044E353E4C301B2010E94DE1E1FAA5D
:1027300087FF80C084E690E0A0E0B0E089879A87B8
:10274000AB87BC87412C512C3201A3019201C301FC
:10275000B2010E949821698B7A8B8B8B9C8B29818B
:102760003A814B815C81C12CD12C76012115310538
:102770004105510509F475C069017A01A701960167
:10278000C701B6010E94982129893A894B895C8941
:10279000620F731F841F951F64377742810591056F
:1027A0000CF451C04FEFC41AD40AE40AF40AE6CF7D
:1027B00055E6852E912CA12CB12C8CE99FEFAFEF23
:1027C000BFEF89839A83AB83BC838BCF91E09FABB0
:1027D00025E6822E912CA12CB12C24E630E040E09D
:1027E00050E029873A874B875C873CE9432E552484
:1027F0005A94652C752C8CE99FEFAFEFBFEF89835E
:102800009A83AB83BC83A1CF1FAA19861A861B8625
:102810001C869CE9492E55245A94652C752C95CF1D
:102820001FAA24E630E040E050E029873A874B8732
:102830005C87EFCF84E690E0A0E0B0E089879A87DC
:10284000AB87BC87E6CF51E085169104A104B104A3
:1028500041F0812C912C540183948C189D08AE0872
:10286000BF08C301B2010E94921F6D837E838F83D4
:1028700098879B01AC016AA17BA18CA19DA10E94BC
:10288000721E2A8D3B8D4C8D5D8D0E94E8206BA7BA
:102890007CA78DA79EA72D813E814F8158856EA173
:1028A0007FA188A599A50E94721E2E8D3F8D48A1FB
:1028B00059A10E94E8206FA778AB89AB9AAB1D8223
:1028C0001E821F821886C20188589F4F8DAB9EAB17
:1028D000A7019601C701B6010E94982129893A896A
:1028E0004B895C89260F371F481F591F2D873E874C
:1028F0004F87588B243B30424105510574F1C70185
:10290000B6010E94921F6D8B7E8B8F8B988F91E00A
:1029100098AF2D893E894F89588D6FA578A989A9CF
:102920009AA90E94E32087FD18AE11E02D893E8907
:102930004F89588D6BA57CA58DA59EA50E94E3208F
:1029400087FD10E0AAA5A11709F442C0B98D28ADF2
:10295000B21346C02FA9211143C02D813E814F8162
:102960005885232B242B252BA1F0B60168587F4FC7
:102970004D815E81641B750BD101ED91FC91028844
:10298000F389E02D0BA91CA99A014DA95EA9C101EB
:1029900009952D853E854F855889243787E238076C
:1029A000410551050CF042C0F7FE0DC0243B3042FA
:1029B0004105510544F4F094E094D094C094C11CB6
:1029C000D11CE11CF11C1D821E821F82188623C0AF
:1029D000BFA9BB2311F2398D48AD341709F4BDCF1F
:1029E000C814D904EA04FB0409F4B7CF8D859E8589
:1029F000AF85B88984379742A105B1050CF042C074
:102A00008D819E81AF81B8850196A11DB11D8D83F9
:102A10009E83AF83B887AFEFCA1ADA0AEA0AFA0AC6
:102A20008C149D04AE04BF040CF052CFBFEF4B1AC0
:102A30005B0A6B0A7B0A29853A854B855C852415E0
:102A40003505460557050CF080CED101ED91FC917E
:102A50000688F789E02DC101E896CDBFDEBFDF9182
:102A6000CF911F910F91FF90EF90DF90CF90BF908B
:102A7000AF909F908F907F906F905F904F903F901E
:102A80002F9009948D819E81AF81B885892B8A2BE7
:102A90008B2B61F26ACF8F929F92AF92BF920F936E
:102AA0001F93CF93DF93CDB7DEB7A197CDBFDEBF26
:102AB00019A2423008F44AE08E010F5D1F4F842EA8
:102AC000912CB12CA12CA50194010E94D021E62FBC
:102AD000B901CA01EA302CF5E05DD801EE938D0111
:102AE000232B242B252B79F790E080E0109769F0B9
:102AF000FD0101900020E9F73197AF014A1B5B0B04
:102B0000BD0187EE98E20E94BA05A196CDBFDEBF57
:102B1000DF91CF911F910F91BF90AF909F908F90B9
:102B20000895E95CDACFCF92DF92EF92FF92CF93D4
:102B3000DF936B017C016DE287EE98E20E94A503B2
:102B4000EC0166277727CB016C197D098E099F0957
:102B50004AE00E944B158C0F9D1FDF91CF91FF9093
:102B6000EF90DF90CF9008950E9496230C940D2350
:102B70006F927F928F929F92AF92BF92CF92DF928D
:102B8000EF92FF921F93CF93DF935C01DC0191964C
:102B90008C918F3F31F161E070E00E94DE0461E0D2
:102BA00070E0E50189A10E94D90464E670E080E04C
:102BB00090E00E948A0570E060E089A10E94D9043B
:102BC00068E770E080E090E00E948A0561E070E0D4
:102BD00089A10E94D90468E770E080E090E00E943B
:102BE0008A05F501E78CF0A0D0E0C0E08CE1882EEA
:102BF0008FE8982EFE01E95DF247E0816E01FFEF5C
:102C0000CF1ADF0AEB3008F07BC0F0E0E65FF94E48
:102C10000C941122591665163E1625168F16691644
:102C20001516631667166E16751610E01F5FD6012F
:102C3000A95DB247E701E881F9810680F781E02DBF
:102C40006C91C7010995E60101C011E03E01FFEF5B
:102C50006F1A7F0AC301895D92476C01D12FD15051
:102C600008F45FC0D6016D916D01D701ED91FC9123
:102C70000284F385E02DC7010995F1CF10E0F6013C
:102C8000E95DF2478081809314282296FE01E95D78
:102C9000F247808180931328609113287091142843
:102CA000D701ED91FC910084F185E02DC7010995D4
:102CB000CDCFD701ED91FC910280F381E02DC701CA
:102CC000099510E0C3CF11E0B1CF10E0B0CF12E012
:102CD000D6CFF601E95DF2471081B5CFD701ED916E
:102CE000FC910480F581E02DEACFF601E95DF24721
:102CF000608170E090E080E00E948A05E601E1CF0B
:102D00001F92EF93DF93CF939F928F920E949B230A
:102D10000F900F900F900F900F900F90D2CF12E066
:102D200095CFE301C10FD11DC930B1E0DB0708F435
:102D300061CFE5018AA1882391F061E28F8D98A18E
:102D4000DF91CF911F91FF90EF90DF90CF90BF90D8
:102D5000AF909F908F907F906F900C947610DF9142
:102D6000CF911F91FF90EF90DF90CF90BF90AF90E9
:102D70009F908F907F906F900895CF93DF93EC0199
:102D80004F3F8FEF58076807780721F440E052E182
:102D90006AE770E04A835B836C837D832E8361E006
:102DA00070E08F810E94DE0461E070E08F810E94FC
:102DB000D90488858F3F49F061E070E00E94DE040D
:102DC00061E070E088850E94D904EF81EB320CF05D
:102DD0006EC0AE2F0E2E000CBB0BAC59B1478C91C0
:102DE000863008F064C0A0E28A9FC00111249C5F75
:102DF00004968E879F878FEFEB3234F40E2E000CF3
:102E0000FF0BE258F14780818A8B80958B8BE88598
:102E1000EF3FF9F0EB320CF04DC0AE2F0E2E000C50
:102E2000BB0BAC59B1478C91863008F043C0B0E27F
:102E30008B9FC00111249C5F04968C879D878FEF28
:102E4000EB3234F40E2E000CFF0BE258F147808178
:102E5000888B88898095898B89859A85DC01ED919D
:102E6000FC910688F789E02D09958E818F3F11F43A
:102E700082E08E838E81082E000C990B4A815B8143
:102E80006C817D8140938A2950938B2960938C2992
:102E900070938D2980938E2990938F2981E090E003
:102EA0008093902990939129DF91CF91089590E09C
:102EB00080E09ECF90E080E0BFCFCF92DF92EF9294
:102EC000FF920F93FC01C12CB9E0DB2EBDE3EB2E8A
:102ED000F12CC082D182E282F3821482158281E0D9
:102EE00090E086839783C0900428D0900528E090D6
:102EF0000628F0900728F694E794D794C79490E0BA
:102F00004C155D056E057F0540F4F694E794D79463
:102F1000C7949F5F9630A1F797E004600187892FDF
:102F20008095A82FA170B0E084E0AA0FBB1F8A95FE
:102F3000E1F791629A2B80E0232B09F480E4982B2F
:102F400090870F91FF90EF90DF90CF9008950F93AF
:102F50001F93CF93DF93CDB7DEB72A97CDBFDEBFE8
:102F60008C01FC01878181110CC0108611861286AC
:102F700013861486158616861786108A118A81E0B4
:102F800087838091E305F8019681892B8093E3057F
:102F900061E070E083810E94DE0461E070E0F8018E
:102FA00084810E94DE048091C10884608093C108FE
:102FB0008091C00881628093C0084091822950911D
:102FC0008329609184297091852900918629209117
:102FD000882930918929CE0101960E945D17998533
:102FE0008A859093C0088093C1082A96CDBFDEBF22
:102FF000DF91CF911F910F9108955F926F927F9211
:103000008F929F92AF92BF92CF92DF92EF92FF92F8
:103010000F931F93CF93DF93CDB7DEB76297CDBFEA
:10302000DEBF3C010B871C872D873E87042F4F870F
:10303000588B698B7A8B29893A894B855C856D859C
:103040007E85CE0101960E945D1759841A85D301B1
:1030500018968C91882319F081FF18C0F89450922B
:10306000C0081093C1086296CDBFDEBFDF91CF913B
:103070001F910F91FF90EF90DF90CF90BF90AF9096
:103080009F908F907F906F905F90089580FFE7CF23
:10309000F30182849384A484B584C12CD12C76015D
:1030A000B0E09401A501B601C701A0E00E9465222D
:1030B000A9F1217030E040E050E060E070E080E095
:1030C00090E00E946522E9F090E080E0B03370F477
:1030D0008B2F869586958695F0E28F9FC0011124EF
:1030E000805F9B4F2B2F2770820F911DFC01408129
:1030F00093012B0F311DF901428BFC012081287FA8
:1031000020839401A501B601C70101E00E944A2273
:1031100049015A016B017C01BF5FC3CFD3011E96E9
:103120008D909D90AD90BC905197C12CD12C760183
:10313000B0E29401A501B601C701A0E00E9465229A
:1031400009F48DCF217030E040E050E060E070E0A5
:1031500080E090E00E946522E9F090E080E0B033EA
:1031600070F48B2F869586958695E0E28E9FC00140
:103170001124805F9B4F2B2F2770820F911DFC0124
:10318000408193012B0F311DF901428BFC012081FD
:10319000287F20839401A501B601C70101E00E94A8
:1031A0004A2249015A016B017C01BF5FC2CF2F92B5
:1031B0003F924F925F926F927F928F929F92AF92C7
:1031C000BF92CF92DF92EF92FF920F931F93CF9314
:1031D000DF93CDB7DEB72897CDBFDEBFE4E9F9E2D4
:1031E0001082118212821382148215821682178233
:1031F0001086118612861386148615861686178603
:1032000070962AE2E433F20758F36091102870E0D8
:1032100090E080E04AE00E944B15809110288111D7
:103220004FC081E0809310280E945B05E4E9F9E239
:1032300020813181232BD9F07096AAE2E433FA077A
:10324000B8F32896CDBFDEBFDF91CF911F910F91CC
:10325000FF90EF90DF90CF90BF90AF909F908F90B6
:103260007F906F905F904F903F902F9008952091A6
:103270009229309193292F5F3F4FF9F020939229A3
:10328000309393292091922930919329268737876B
:1032900027ED38E1208331831282138264837583A2
:1032A0008683978384EF91E0A0E0B0E080879187E8
:1032B000A287B38714861586C4CF21E030E0DECF25
:1032C00080E10E94B4048C0181E10E94B4042FEFDC
:1032D0008017910709F021E080910228909103283E
:1032E000820F911D27FD9A95853691053CF084E665
:1032F00090E0809302289093032806C097FFF9CFAF
:1033000010920228109203286091022870910328DD
:10331000072E000C880B990B0E94921F26E636E6BA
:1033200046EE5FE30E94E82020E030E044E353E40F
:103330000E94721E0E945A1F4B01609000287090DC
:1033400001286615770549F1C090342AD090352AB6
:10335000B301072C000C880B990B0E94921F1B01D4
:103360002C01B401092C000C880B990B0E94921FB0
:10337000AB01BC01681479040CF0B4C038EAE32E48
:103380003EEEF32E8A019C01B201A101C6010E940A
:103390006F118092002890920128809103288F93CA
:1033A000809102288F9388E39FE89F938F931F92C9
:1033B00084E08F93FE0131964F01FF93EF930E94BB
:1033C000B1235C01CDBFDEBF80910E2890910F2804
:1033D000A816B90611F1C090342AD090352AD6012A
:1033E000ED91FC910484F585E02DC6010995EE244C
:1033F000EA94FE2C0CE310E026E930E04AE550E0C8
:103400006DE270E0C6010E948A0AD601ED91FC913E
:103410000688F789E02DC60109956401C5010B2CCA
:10342000000CAA0BBB0B8D839E83AF83B8878601EC
:1034300008191909B6019FEFC91AD90ADB018C9145
:10344000882309F459C0FB0101900020E9F7319766
:10345000AF01461B570B87EE98E20E94BA05B801F0
:10346000110F880B990B0E94921F2B013C016D815B
:103470007E818F8198850E94921F20E030E040E09D
:103480005FE30E94E8209B01AC01C301B2010E94EE
:10349000711E20E030E040EA51E40E94E82020E084
:1034A00030E040EF52E40E94721E0E945A1F2B012E
:1034B000072E000C880B990B97FF1AC00E949315DA
:1034C000EE24EA94FE2C08EA1EEEF60131972081E4
:1034D00048E750E0B2018091342A9091352A0E9449
:1034E000E10BA5CFEE24EA94FE2C920181014ECF90
:1034F0004AE00E944B15E4CFA0920E28B0920F280C
:10350000A0CE109210280C94D7181F920F920FB6CD
:103510000F9211242F933F934F935F936F937F9359
:103520008F939F93AF93BF934091DB285091DC28FA
:103530006091DD287091DE288091D9289091DA2859
:103540002091D7283091D828420F531F611D711D3B
:103550002091D5283091D628820F931F883E23E0F2
:10356000920730F0885E93404F5F5F4F6F4F7F4F01
:103570008093D9289093DA284093DB285093DC2855
:103580006093DD287093DE288091E3289091E428F1
:10359000A091E528B091E6280196A11DB11D809368
:1035A000E3289093E428A093E528B093E62881E0EF
:1035B0008093B60ABF91AF919F918F917F916F9148
:1035C0005F914F913F912F910F900FBE0F901F90E1
:1035D00018951F920F920FB60F9211242F933F93BD
:1035E0004F935F936F937F938F939F93AF93BF930B
:1035F000EF93FF9385E00E94E705FF91EF91BF9164
:10360000AF919F918F917F916F915F914F913F917A
:103610002F910F900FBE0F901F9018951F920F9231
:103620000FB60F9211242F933F934F935F936F9395
:103630007F938F939F93AF93BF93EF93FF9384E018
:103640000E94E705FF91EF91BF91AF919F918F91FC
:103650007F916F915F914F913F912F910F900FBE8E
:103660000F901F9018951F920F920FB60F92112472
:103670002F933F934F935F936F937F938F939F937A
:10368000AF93BF93EF93FF9383E00E94E705FF9111
:10369000EF91BF91AF919F918F917F916F915F91CA
:1036A0004F913F912F910F900FBE0F901F90189543
:1036B0001F920F920FB60F9211242F933F934F93A7
:1036C0005F936F937F938F939F93AF93BF93EF938A
:1036D000FF9382E00E94E705FF91EF91BF91AF91C8
:1036E0009F918F917F916F915F914F913F912F911A
:1036F0000F900FBE0F901F9018951F920F920FB64C
:103700000F9211242F933F934F935F936F937F9367
:103710008F939F93AF93BF93EF93FF9381E00E94AA
:10372000E705FF91EF91BF91AF919F918F917F91AD
:103730006F915F914F913F912F910F900FBE0F901E
:103740001F9018951F920F920FB60F9211242F936E
:103750003F934F935F936F937F938F939F93AF9319
:10376000BF93EF93FF9380E00E94E705FF91EF91F5
:10377000BF91AF919F918F917F916F915F914F9189
:103780003F912F910F900FBE0F901F9018951F9291
:103790000F920FB60F9211242F933F934F935F9385
:1037A0006F937F938F939F93AF93BF93EF93FF9309
:1037B00087EE98E20E946003FF91EF91BF91AF9175
:1037C0009F918F917F916F915F914F913F912F9139
:1037D0000F900FBE0F901F9018951F920F920FB66B
:1037E0000F9211242F933F934F935F936F937F9387
:1037F0008F939F93AF93BF93EF93FF93E091F32841
:10380000F091F428818181FD2FC060818091F92899
:103810008F5F8F739091FA28891741F0E091F92812
:10382000F0E0E951F74D618F8093F928809180296C
:1038300090918129009739F0DC01ED91FC91019084
:10384000F081E02D0995FF91EF91BF91AF919F918C
:103850008F917F916F915F914F913F912F910F9039
:103860000FBE0F901F9018958081EDCFEF92FF92C1
:103870000F931F93CF93DF93E7EEF8E21282138248
:1038800088EE93E0A0E0B0E084839583A683B783BD
:103890008CE99EE88083918380E698E08487958711
:1038A00088E1868789E1878780E4808B128A138A82
:1038B000148A158A86E2868B178A108E10928029C8
:1038C00010928129E2E8F9E240E059E06DE370E00E
:1038D00040835183628373831482158281E090E078
:1038E00086839783C8E3DAE226EB3EE828833983B0
:1038F0001F8222E02E832CE02A832DE02C832BE0F4
:103900002B8328E0E22EED82EAE8F9E2408351833E
:1039100062837383148215828683978384E190E0A7
:103920000E9471228C0180E09FE8D8018D939C93C6
:10393000119787E017968C931797FF24FA9418969F
:10394000FC9218971996CD93DC931A97C1E01B96B9
:10395000CC930093362A1093372A82E390E00E949A
:103960007122FC011282138280EF90E0838F948F8A
:10397000858F968F84839583868397838FEE90E0DF
:103980008087918782879387178A14861586168683
:103990001786C58BC48B168A8FEF9FEF828B938B14
:1039A000808B918BC08F118E128E078F10A3E1A296
:1039B00012A213A214A215A216A2F1AA84ED9EE8E7
:1039C00080839183E093342AF093352A10929229D0
:1039D00010929329E4E9F9E280EADF011D928A95C9
:1039E000E9F7DF91CF911F910F91FF90EF9008952C
:1039F00088ED90E084BF9093610080E094E2A4EFB2
:103A0000B0E08093042890930528A0930628B093F3
:103A10000728809102068660809302068091000646
:103A2000816080930006809102068F7C809302065D
:103A30008091A0008F788093A00080910206806121
:103A4000809302061092E20581E08093E40583E012
:103A50008093010A8FEF90E08093260A9093270AC3
:103A600080E890E08093380A9093390A80933A0A6C
:103A700090933B0A80933C0A90933D0A8BE080939D
:103A8000000A8091E50581608093E5058091E50558
:103A900082608093E505E0E8FAE037E02FEF90E8F8
:103AA00085E031832487958780837096E03C4AE0E7
:103AB000F407B9F780E094E08093E1289093E2283E
:103AC0008091E1289091E2282FEF30E0B9010E9427
:103AD000A8216093DF287093E0288091E1289091DD
:103AE000E228E8EEF3E0BF010E94A8216093D72806
:103AF0007093D8288091E1289091E228BF010E941C
:103B0000A8218093D5289093D6282093BC0A30937F
:103B1000BD0A8091B50A81608093B50A84E08093E4
:103B2000B00A8091B00A81608093B00A7894809145
:103B3000342A9091352ADC01ED91FC910084F185C5
:103B4000E02D4FEF5FEFBA010995C091342AD09173
:103B5000352A0E811F81AC80BD80E881F981048403
:103B6000F585E02DCE010995EE24EA94FE2C950111
:103B700050E040E070E060E0CE010E94B60BE881CA
:103B8000F9810688F789E02DCE010995E091342A64
:103B9000F091352A168A83E0848B858B61E070E092
:103BA00089E00E94180461E070E089E00E947104DD
:103BB00062E070E080E10E94DE0462E070E081E19A
:103BC0000E94DE0481E89AE18093A7289093A828B8
:103BD000109247281092482880917104887F809322
:103BE00071048091710481608093710440E855E212
:103BF00060E070E087EE98E20E946611EE24E394A4
:103C0000F12C00E010E0C4E9D9E288819981892B88
:103C100041F10E945B054B015C018C819D81AE816D
:103C2000BF81B501A401481B590B6A0B7B0B88852A
:103C30009985AA85BB85481759076A077B0788F0CD
:103C4000E881F9818A819B810995882329F18C85F6
:103C50009D85892B09F1EC86FD868C829D82AE8242
:103C6000BF826096BAE2C433DB0778F20E945B053C
:103C7000C4E9D9E288819981892BF9F460964AE2F6
:103C8000C433D407B8F30E945B050115110509F48C
:103C9000BACF0E940000B7CF188219821A821B8205
:103CA0001C821D821E821F82188619861A861B8618
:103CB0001C861D861E861F86D4CF0E945B058C80C5
:103CC0009D80AE80BF80681979098A099B09888424
:103CD0009984AA84BB84681579058A059B0570F2CE
:103CE000D2CF5058BB27AA270E94891E0C9495203A
:103CF0000E945C2038F00E94632020F039F49F3F3E
:103D000019F426F40C9459200EF4E095E7FB0C947A
:103D10004520E92F0E94BA2058F3BA1762077307AB
:103D20008407950720F079F4A6F50C94DC200EF4B6
:103D3000E0950B2EBA2FA02D0B01B90190010C01BB
:103D4000CA01A0011124FF27591B99F0593F50F4D3
:103D5000503E68F11A16F040A22F232F342F44272B
:103D6000585FF3CF469537952795A795F040539523
:103D7000C9F77EF41F16BA0B620B730B840BBAF0F3
:103D80009150A1F0FF0FBB1F661F771F881FC2F75E
:103D90000EC0BA0F621F731F841F48F48795779572
:103DA0006795B795F7959E3F08F0B0CF9395880F2C
:103DB00008F09927EE0F9795879508950E94212086
:103DC00008F481E008950E946C20E3950C94A620ED
:103DD0000E94FC1E0C9495200E94632058F00E94C3
:103DE0005C2040F029F45F3F29F00C9445205111EC
:103DF0000C94DD200C9459200E94BA2068F399237A
:103E0000B1F3552391F3951B550BBB27AA276217D6
:103E10007307840738F09F5F5F4F220F331F441FE3
:103E2000AA1FA9F335D00E2E3AF0E0E832D0915017
:103E30005040E695001CCAF72BD0FE2F29D0660F04
:103E4000771F881FBB1F261737074807AB07B0E847
:103E500009F0BB0B802DBF01FF2793585F4F3AF04D
:103E60009E3F510578F00C9445200C94DD205F3F77
:103E7000E4F3983ED4F3869577956795B795F795D3
:103E80009F5FC9F7880F911D9695879597F90895BB
:103E9000E1E0660F771F881FBB1F62177307840757
:103EA000BA0720F0621B730B840BBA0BEE1F88F766
:103EB000E09508950E94611F6894B1110C94DD2073
:103EC00008950E94C22088F09F5798F0B92F992733
:103ED000B751B0F0E1F0660F771F881F991F1AF0F5
:103EE000BA95C9F714C0B13091F00E94DC20B1E05E
:103EF00008950C94DC20672F782F8827B85F39F05D
:103F0000B93FCCF3869577956795B395D9F73EF48D
:103F100090958095709561957F4F8F4F9F4F089535
:103F2000E89409C097FB3EF4909580957095619553
:103F30007F4F8F4F9F4F9923A9F0F92F96E9BB2709
:103F40009395F695879577956795B795F111F8CF85
:103F5000FAF4BB0F11F460FF1BC06F5F7F4F8F4FF0
:103F60009F4F16C0882311F096E911C0772321F0E6
:103F70009EE8872F762F05C0662371F096E8862F7E
:103F800070E060E02AF09A95660F771F881FDAF7D5
:103F9000880F9695879597F908950E945C2020F0E8
:103FA00019F00E94632050F40C9459200C94DD20E9
:103FB000E92F0E94BA2088F35523B1F3E7FB62177B
:103FC000730784079507A8F189F3E92FFF27882352
:103FD0002AF03197660F771F881FDAF7952F55273C
:103FE000442332F091505040220F331F441FD2F728
:103FF000BB27E91BF50B621B730B840BB109B1F2F4
:1040000022F4620F731F841FB11D31972AF0660FCF
:10401000771F881FBB1FEFCF9150504062F041F0D7
:10402000882332F0660F771F881F91505040C1F7E8
:1040300093950C944B208695779567959F5FD9F75C
:10404000F7CF990F0008550FAA0BE0E8FEEF161600
:104050001706E807F907C0F012161306E407F5077C
:1040600098F0621B730B840B950B39F40A2661F0F0
:10407000232B242B252B21F408950A2609F4A14093
:10408000A6958FEF811D811D089597F99F6780E8A0
:1040900070E060E008959F3F31F0915020F48795E3
:1040A00077956795B795880F911D9695879597F9A0
:1040B00008959FEF80EC089500240A9416161706C1
:1040C00018060906089500240A9412161306140609
:1040D000050608950C9459200E94C220D8F3E89454
:1040E000E0E0BB279F57F0F02AED3FE049EC06C027
:1040F000EE0FBB0F661F771F881F28F0B23A6207CA
:104100007307840728F0B25A620B730B840BE39594
:104110009A9572F7803830F49A95BB0F661F771F17
:10412000881FD2F790480C944D20092E0394000C60
:1041300011F4882352F0BB0F40F4BF2B11F460FF41
:1041400004C06F5F7F4F8F4F9F4F0895EF93E0FF45
:1041500007C0A2EA2AED3FE049EC5FEB0E94891E0E
:104160000E9495200F90039401FC9058E0EAF0E043
:104170000C945D2157FD9058440F551F59F05F3F37
:1041800071F04795880F97FB991F61F09F3F79F079
:1041900087950895121613061406551FF2CF4695FB
:1041A000F1DF08C0161617061806991FF1CF86957D
:1041B0007105610508940895E894BB276627772761
:1041C000CB0197F908950E94212008F48FEF0895FC
:1041D0000E94FB200C9495200E945C2038F00E94E5
:1041E000632020F0952311F00C9445200C94592065
:1041F00011240C94DD200E94BA2070F3959FC1F326
:10420000950F50E0551F629FF001729FBB27F00D84
:10421000B11D639FAA27F00DB11DAA1F649F6627D9
:10422000B00DA11D661F829F2227B00DA11D621F28
:10423000739FB00DA11D621F839FA00D611D221FE2
:10424000749F3327A00D611D231F849F600D211DC6
:10425000822F762F6A2F11249F5750409AF0F1F049
:1042600088234AF0EE0FFF1FBB1F661F771F881FB2
:1042700091505040A9F79E3F510580F00C94452085
:104280000C94DD205F3FE4F3983ED4F38695779558
:104290006795B795F795E7959F5FC1F7FE2B880F58
:1042A000911D9695879597F908959F930E946C208C
:1042B0000F9007FCEE5F0C94A6209F938F937F9343
:1042C0006F93FF93EF939B01AC010E94E820EF9165
:1042D000FF910E9471212F913F914F915F910C941A
:1042E000E820DF93CF931F930F93FF92EF92DF921B
:1042F0007B018C01689406C0DA2EEF010E94FB203E
:10430000FE01E894A5912591359145915591A6F32B
:10431000EF010E94891EFE019701A801DA9469F756
:10432000DF90EF90FF900F911F91CF91DF91089553
:10433000DB018F939F930E943522BF91AF91A29F83
:10434000800D911DA39F900DB29F900D1124089593
:10435000AA1BBB1B51E107C0AA1FBB1FA617B707AB
:1043600010F0A61BB70B881F991F5A95A9F78095C7
:104370009095BC01CD01089597FB072E16F400948B
:1043800007D077FD09D00E94A82107FC05D03EF494
:10439000909581959F4F0895709561957F4F0895F1
:1043A000A1E21A2EAA1BBB1BFD010DC0AA1FBB1F39
:1043B000EE1FFF1FA217B307E407F50720F0A21BAB
:1043C000B30BE40BF50B661F771F881F991F1A9418
:1043D00069F760957095809590959B01AC01BD0142
:1043E000CF010895052E97FB1EF400940E94092228
:1043F00057FD07D00E94D02107FC03D04EF40C9447
:10440000092250954095309521953F4F4F4F5F4F72
:10441000089590958095709561957F4F8F4F9F4F30
:104420000895EE0FFF1F0590F491E02D09940E946E
:104430001F22332312F48A1B9B0B0C943022A29F61
:10444000B001B39FC001A39F700D811D1124911D68
:10445000B29F700D811D1124911D08950E941F228D
:10446000B7FF0895821B930B08950E941F22A59FFA
:10447000900DB49F900DA49F800D911D112408955F
:10448000B7FF0C9435220E943522821B930B0895AE
:1044900097FD1094002E083098F00850232F342FE9
:1044A000452F562F672F782F892F912DF4CF1594F4
:1044B000979587957795679557954795379527955C
:1044C0000A95AAF71124002D08950024A7FD009451
:1044D0002A173005400550056005700580059005D8
:1044E00008950F931F93CF93DF938230910510F4BB
:1044F00082E090E0E0917C2AF0917D2A30E020E09B
:10450000B0E0A0E0309799F42115310509F44AC0D4
:10451000281B390B24303105D8F58A819B81611520
:10452000710589F1FB0182839383FE0111C04081F3
:1045300051810281138148175907E0F04817590744
:1045400099F4109761F012960C93129713961C939E
:104550003296CF01DF91CF911F910F910895009373
:104560007C2A10937D2AF4CF2115310551F0421792
:10457000530738F0A901DB019A01BD01DF01F80101
:10458000C1CFEF01F9CF80937C2A90937D2ACDCFC4
:10459000FE01E20FF31F819391932250310928838A
:1045A0003983D7CF20917A2A30917B2A232B41F46B
:1045B00020910A2830910B2820937A2A30937B2A65
:1045C00020910828309109282115310541F42DB793
:1045D0003EB740910C2850910D28241B350BE091DB
:1045E0007A2AF0917B2AE217F307A0F42E1B3F0BE7
:1045F0002817390778F0AC014E5F5F4F2417350755
:1046000048F04E0F5F1F40937A2A50937B2A819384
:1046100091939FCFF0E0E0E09CCFCF93DF930097A2
:10462000E9F0FC01329712821382A0917C2AB091AA
:104630007D2AED0130E020E01097A1F42081318146
:10464000820F931F20917A2A30917B2A28173907ED
:1046500009F061C0E0937A2AF0937B2ADF91CF9131
:104660000895EA01CE17DF07E8F54A815B819E01D4
:1046700041155105B1F7E901EA83FB83499159914D
:10468000C40FD51FEC17FD0761F48081918102965C
:10469000840F951FE90188839983828193818A839E
:1046A0009B83F0E0E0E012968D919C911397009728
:1046B000B9F52D913C911197CD010296820F931F70
:1046C00020917A2A30917B2A2817390739F63097BA
:1046D00051F510927C2A10927D2AA0937A2AB093E9
:1046E0007B2ABCCFC283D38340815181840F951F25
:1046F000C817D90761F44E5F5F4F88819981480FD1
:10470000591F408351838A819B8182839383211522
:10471000310509F0B0CFE0937C2AF0937D2A9ECF3B
:10472000FD01DC01C0CF12821382D7CF81E090E07F
:10473000F8940C949026B0E0A0E0E1EAF3E20C9447
:104740006F26AE014B5F5F4FFA0161917191AF012E
:104750008091802A9091812A0E94E123E2E00C94CA
:104760008826AEE0B0E0E7EBF3E20C946D260D890D
:104770001E898F89988D26E02C8309831A8397FFE1
:1047800002C080E090E801978D839E83AE01455E74
:104790005F4F698D7A8DCE0101960E94E1234D8194
:1047A0005E8157FD0AC02F813885421753070CF4EC
:1047B0009A01020F131FF80110822E96E4E00C9468
:1047C0008626ABE0B0E0E7EEF3E20C945F267C01D6
:1047D0003B018A01FC0116821782838181FFC8C1D7
:1047E000CE0101965C01F7019381F30193FD859160
:1047F00093FF81913F01882309F453C1853239F435
:1048000093FD859193FF81913F01853229F4B70192
:1048100090E00E94D125E7CF912C212C312CFFE193
:10482000F31538F08B3211F190F4803209F18332B4
:1048300029F137FC3CC020ED280F2A3050F536FE18
:1048400020C08AE0989E200D1124922E06C08D3241
:1048500091F0803371F7689430F8F30193FD8591FE
:1048600093FF81913F018111DACF21C0689431F823
:10487000689432F8F2CF689433F8EFCF689434F844
:10488000ECCFEAE02E9E200D1124222E689435F8FC
:10489000E4CF8E3229F436FC04C1689436F8DDCFBB
:1048A0008C3619F4689437F8D8CF8836B1F2982F3F
:1048B0009F7D95549330E0F08336A1F18337C1F1A9
:1048C000833509F063C02801F2E04F0E511CF80156
:1048D000C080D180692D70E036FC02C06FEF7FEFA1
:1048E000C6010E94BB254C01689437F882010AC0BA
:1048F0000C5F1F4FFFE3F98388248394912C65019B
:10490000E89437F833FE2DC0522C8114910471F5D0
:10491000552009F468CFB70180E290E00E94D125CC
:104920005A94F6CFF801808189830E5F1F4FE4CF40
:104930002801F2E04F0E511CF801C080D180692D92
:1049400070E036FC02C06FEF7FEFC6010E94C62503
:104950004C018201D5CFB70180E290E00E94D125C1
:104960002A942814190409F0B0F7CECFF60137FCC9
:10497000859137FE81916F01B70190E00E94D125AA
:1049800051105A94F1E08F1A9108BFCF843619F074
:10499000893609F077C0F80137FE6BC060817181FC
:1049A000828193810C5F1F4FF32DFF763F2E97FF7F
:1049B00009C090958095709561957F4F8F4F9F4F5F
:1049C000689437F82AE030E0A5010E940126C82E3D
:1049D000CA188C2C432C36FE0CC0E89440F8C9143D
:1049E00040F434FE05C032FC03C0F32DFE7E4F2E92
:1049F000892C44FE95C0FE01EC0DF11D80818033B1
:104A000009F087C0242D297E422E842D8870582ECF
:104A100043FC95C040FE8FC09C2C821418F42C0CD3
:104A2000922C981844FE91C0B70180E390E00E9458
:104A3000D12542FE09C088E790E041FE02C088E52A
:104A400090E0B7010E94D125C91408F48AC0CA9425
:104A5000D12C9FEFC91AD90ACA0CDB1CF60182912E
:104A60006F01B70190E00E94D125AC14BD04B1F7ED
:104A70004FCF60817181072E000C880B990B0E5F60
:104A80001F4F92CFD32CE894D4F82AE030E085373A
:104A900039F1232D297FD22E8F3601F148F4883544
:104AA000A9F0F701868197812B96E2E10C94782694
:104AB000803749F08837A9F7D4FE02C06894D2F84D
:104AC00020E130E00DC06894D4F8F6CF34FE03C086
:104AD000822F8660D82E20E132E002C028E030E04C
:104AE000F801D7FE0FC060817181828193810C5FD4
:104AF0001F4FA5010E940126C82ECA183D2CE8941C
:104B000037F867CF6081718190E080E00E5F1F4FC2
:104B1000F0CF42FC02C0839478CF8394839475CF06
:104B2000842D867809F471CFF6CFB70180E290E04A
:104B30000E94D12583948214C0F3512C73CF522C40
:104B40005818821408F46ECFF8CF842D867809F4B3
:104B50007BCF8BE241FE80E247FC8DE2B70190E023
:104B600071CFB70180E390E00E94D1259A946CCF79
:104B70008FEF9FEF99CFFC010590615070400110BD
:104B8000D8F7809590958E0F9F1F0895FC01615076
:104B9000704001900110D8F7809590958E0F9F1F5F
:104BA00008950F931F93CF93DF93182F092FEB01D5
:104BB0008B8181FD09C01FEF0FEF812F902FDF91B7
:104BC000CF911F910F91089582FF14C02E813F81D4
:104BD0008C819D81281739073CF4E881F981CF0148
:104BE00001968883998310838E819F8101968E839D
:104BF0009F83E3CFE885F985812F0995892BA1F360
:104C0000DACFFA01AA27283051F1203181F1E89456
:104C10006F936E7F6E5F7F4F8F4F9F4FAF4FB1E0AF
:104C20003ED0B4E03CD0670F781F891F9A1FA11DAA
:104C3000680F791F8A1F911DA11D6A0F711D811DAB
:104C4000911DA11D20D009F468943F912AE0269F70
:104C500011243019305D3193DEF6CF010895462FCF
:104C60004770405D4193B3E00FD0C9F7F6CF462FB0
:104C70004F70405D4A3318F0495D31FD4052419319
:104C800002D0A9F7EACFB4E0A695979587957795D6
:104C90006795BA95C9F700976105710508959B015D
:104CA000AC010A2E06945795479537952795BA95E6
:104CB000C9F7620F731F841F951FA01D08952F92BF
:104CC0003F924F925F926F927F928F929F92AF929C
:104CD000BF92CF92DF92EF92FF920F931F93CF93E9
:104CE000DF93CDB7DEB7CA1BDB0BCDBFDEBF0994A8
:104CF0002A88398848885F846E847D848C849B846C
:104D0000AA84B984C884DF80EE80FD800C811B8179
:104D1000AA81B981CE0FD11DCDBFDEBFED010895AF
:044D2000F894FFCF35
:104D240068C8A80001EF06EB1401FE01EF06EB14BE
:104D34000684400685FF0686FF0687FF06880A0666
:104D44008921068A00068B80068C01068D01068E59
:104D5400FF068FFF07B60020063A050190050408F8
:104D640008080806BD0606BC0001FF05036001042F
:104D740006C31306C41306C92206BE1107E1100EAA
:104D840001DF0503210C0201F00506450908082688
:104D94002A01F1050643707236376F01F2050645A4
:104DA400090808262A01F3050643707236376F078F
:104DB400ED1B0B06AE7706CD6301700509070704EA
:104DC4000E0F0907080306E8340162050C180D717B
:104DD400ED7070180F71EF70700163050C1811718C
:104DE400F17070181371F37070016405072829F1CC
:104DF40001F100070166050A3C00CD674545100036
:104E040000000167050A003C0000000154103298BC
:104E14000174050710858000004E0007983E0701C5
:104E2400350111090A78000129090A140000000358
:104E34000001020000010100000000000000000069
:104E44000000000000000504000506020401030040
:104E54000100010203020100020304050203050428
:104E64000202000502010500040101040404030315
:104E74000303050503030000010120100120400481
:104E840010020801020102040804020104081020AF
:104E94000408201000000000A503BA050A03F60365
:104EA4003B0319032D036611E304470320060000A6
:104EB40000002206B6157206430623067607250768
:104EC400FD177C06C607C007A717B8070000000037
:104ED4008C0EBA057310FB0A860A110A330A4D09AF
:104EE400BE097709900F4209480BAB109F1093102D
:104EF400CC07060A3709B81500000000BD160209E0
:104F0400EB08D508B408AF089B08501120113811DC
:104F1400FB10BA106F083B08556E6B6E6F776E20EE
:104F24006F7065726174696F6E20696420617420AA
:074F340025643A202564000A
:0E4F3B00B40032000024F4000000842A80003C
:00000001FF
