:100000000C9450000C946D000C946D000C946D00D9
:100010000C946D000C946D000C946D000C944601D2
:100020000C946D000C946D000C946D000C944502C2
:100030000C946D000C946D000C946D000C946D008C
:100040000C946D000C946D000C946D000C946D007C
:100050000C946D000C946D000C946D000C946D006C
:100060000C946D000C946D000C946D000C946D005C
:100070000C946D000C946D000C946D000C946D004C
:100080000C946D000C946D000C946D000C946D003C
:100090000C94E2000C946D000C946D000C946D00B7
:1000A00011241FBECFEFCDBFDFE3DEBF18E2A0E01B
:1000B000B8E2E8EFFCE002C005900D92A03AB1076B
:1000C000D9F728E2A0EAB8E201C01D92A63CB20727
:1000D000E1F70E945A020C9446060C940000282F67
:1000E00030E0F901E252F34B40814F3FC9F18B32CE
:1000F00058F4F901E655F34BE081EE2329F0E130A5
:1001000099F010F0E63010F12C53334BD901EC91FB
:10011000B0E2EB9FF0011124FC5F8085482381E071
:1001200090E001F580E008956091010AF901E0573F
:10013000F34B50815C5F81E090E001C0880F5A95DD
:10014000EAF7809586238093010ADECF80E1E89F5D
:10015000F0011124E05AF54F81818F7E8183D4CF45
:1001600080E090E00895CF93DF938FB7F8942091CB
:10017000C2283091C3284091C4285091C528E091ED
:10018000BA0A9091B60A90FF06C02F5F3F4F4F4FBB
:100190005F4FE091BA0A8FBFA091C028B091C128EB
:1001A000C091BE28D091BF280E942C06EC9F9001E0
:1001B000ED9F300D1124620F731F811D911DDF9182
:1001C000CF9108951F920F920FB60F9211242F9383
:1001D0003F934F935F936F937F938F939F93AF93CF
:1001E000BF934091BA285091BB286091BC28709170
:1001F000BD288091B8289091B9282091B6283091D7
:10020000B728420F531F611D711D2091B4283091F2
:10021000B528820F931F883E23E0920730F0885E56
:1002200093404F5F5F4F6F4F7F4F8093B8289093FD
:10023000B9284093BA285093BB286093BC28709388
:10024000BD288091C2289091C328A091C428B09164
:10025000C5280196A11DB11D8093C2289093C32883
:10026000A093C428B093C52881E08093B60ABF91BB
:10027000AF919F918F917F916F915F914F913F913E
:100280002F910F900FBE0F901F9018951F920F92F5
:100290000FB60F9211242F933F934F935F936F9359
:1002A0007F938F939F93AF93BF93EF93FF9380912F
:1002B000AC289091AD28A091AE28B091AF28409184
:1002C000A0285091A1286091A2287091A32801969E
:1002D000A11DB11D481759076A077B0708F0BAC06E
:1002E0006091A8287091A9288091AA289091AB28A4
:1002F00020E030E048EC53E40E9465050E94A3042E
:1003000060933C0A70933D0A8091A0289091A128A7
:10031000A091A228B091A328892B8A2B8B2B89F03E
:100320008091A628882309F48AC080E28093A604DD
:1003300080E48093460481E08093050480E180930B
:10034000A5048091B0289091B128A091B228B091D5
:10035000B3284091A0285091A1286091A2287091C3
:10036000A3280197A109B109481759076A077B0714
:1003700008F477C09091A7288091A728923011F0B7
:10038000843029F48091A62880958093A6289091A6
:10039000A7288091A728933011F0843091F56091BF
:1003A000A8287091A9288091AA289091AB282DECBB
:1003B0003CEC4CEC5DE30E9437046093A8287093FA
:1003C000A9288093AA289093AB286091A8287091BF
:1003D000A9288091AA289091AB2826E636E646E621
:1003E0005FE30E94600587FD0CC08DEC9CECACECDB
:1003F000BDE38093A8289093A928A093AA28B0933E
:10040000AB281092A0281092A1281092A228109236
:10041000A32880910B0A816080930B0AFF91EF91D2
:10042000BF91AF919F918F917F916F915F914F910C
:100430003F912F910F900FBE0F901F90189580E164
:100440008093A60481E08093060480E480934504B1
:1004500080E275CF80E28093A60480E18093A604B9
:1004600070CF8091A0289091A128A091A228B0914E
:10047000A3280196A11DB11D8093A0289093A128C7
:10048000A093A228B093A328C4CF1F920F920FB6B7
:100490000F9211248F93EF93FF93E0E0FAE08385AE
:1004A00080648387FF91EF918F910F900FBE0F9023
:1004B0001F90189588ED90E084BF9093610080E0D4
:1004C00094E2A4EFB0E08093002890930128A093D9
:1004D0000228B0930328809102068660809302066A
:1004E00080910006816080930006809102068F7CD7
:1004F000809302068091A0008F788093A000809165
:1005000002068061809302061092E20581E08093EA
:10051000E40583E08093010A8FEF90E08093260A40
:100520009093270A80E890E08093380A9093390AE4
:1005300080933A0A90933B0A80933C0A90933D0A39
:100540008BE08093000A8091E50581608093E5054A
:100550008091E50582608093E505E0E8FAE037E008
:100560002FEF90E885E0318324879587808370960C
:10057000E03C4AE0F407B9F780E094E08093C028BB
:100580009093C1288091C0289091C1282FEF30E02E
:10059000B9010E94F6056093BE287093BF28809130
:1005A000C0289091C128E8EEF3E0BF010E94F60553
:1005B0006093B6287093B7288091C0289091C12885
:1005C000BF010E94F6058093B4289093B52820932C
:1005D000BC0A3093BD0A8091B50A81608093B50A48
:1005E00084E08093B00A9091B00A91609093B00A31
:1005F00078943FB7F89420E12093620490917404BA
:100600009860909374043FBF90E29093A10420936C
:10061000A10491E09093010490E4909341048093AD
:1006200021048093000A83E48093010A80E991E029
:100630008093360A9093370A10923C0A10923D0A32
:1006400081E480930A0A8091000A8E7F8093000AD9
:1006500084E690E0A0E0B0E08093B0289093B128C9
:10066000A093B228B093B3281092AC281092AD2872
:100670001092AE281092AF281092A8281092A928A4
:100680001092AA281092AB281092A7281092A628A0
:100690008091000A81608093000A3CE0332E40E1A3
:1006A000C42E47E2D42EE12CF12C84E10E946F008D
:1006B000892B09F03FC0C0E0D0E08DE7C82ED12CD7
:1006C000E12CF12C9CE0892E912CA12CB12C26E65A
:1006D000422E542C642C2FE3722E12E084E10E94EF
:1006E0006F00892B09F0A2C08091000A816080937D
:1006F000000AC092B028D092B128E092B228F092BD
:10070000B3288092AC289092AD28A092AE28B092E7
:10071000AF284092A8285092A9286092AA287092E7
:10072000AB281093A7281092A6282097B9F20E9410
:100730000000D4CFC091A428D091A5283C9EF00100
:100740003D9EF00D1124EC5FF74D42805380648094
:10075000758086809780A084B1840285138520816E
:100760003181032E000C440B550B8091000A0115BA
:10077000110509F059C08E7F8093000AC701B601A8
:100780000E940A062093B0283093B1284093B228E3
:100790005093B328CA01B9010E94D204A301920167
:1007A0000E9465050E94A3046093AC287093AD2855
:1007B0008093AE289093AF288092A8289092A92881
:1007C000A092AA28B092AB280093A7281092A6283E
:1007D0002196C093A428D093A5282D9724F0109299
:1007E000A4281092A5280E94B3004B015C0128E9BF
:1007F000921A26E4A20A2EEFB20A811448E6940661
:1008000049EBA40641E0B40638F40E94B300861612
:100810009706A806B906C8F30E94B30068157905C3
:100820008A059B05C8F341CF8160A6CF8091000A5D
:100830008E7F8093000AC092B028D092B128E092B7
:10084000B228F092B3288092AC289092AD28A09262
:10085000AE28B092AF284092A8285092A928609262
:10086000AA287092AB281092A7285DCF5058BB27BA
:10087000AA270E944E040C9426050E94180538F001
:100880000E941F0520F039F49F3F19F426F40C94C0
:1008900015050EF4E095E7FB0C940F05E92F0E9477
:1008A000370558F3BA17620773078407950720F0D6
:1008B00079F4A6F50C9459050EF4E0950B2EBA2F99
:1008C000A02D0B01B90190010C01CA01A001112456
:1008D000FF27591B99F0593F50F4503E68F11A1602
:1008E000F040A22F232F342F4427585FF3CF469593
:1008F00037952795A795F0405395C9F77EF41F16B5
:10090000BA0B620B730B840BBAF09150A1F0FF0F7E
:10091000BB1F661F771F881FC2F70EC0BA0F621F6A
:10092000731F841F48F4879577956795B795F7955A
:100930009E3F08F0B0CF9395880F08F09927EE0FEF
:100940009795879508950E943F0588F09F5798F0E6
:10095000B92F9927B751B0F0E1F0660F771F881FC4
:10096000991F1AF0BA95C9F714C0B13091F00E94DE
:100970005905B1E008950C945905672F782F882701
:10098000B85F39F0B93FCCF3869577956795B39505
:10099000D9F73EF490958095709561957F4F8F4F74
:1009A0009F4F0895E89409C097FB3EF49095809579
:1009B000709561957F4F8F4F9F4F9923A9F0F92F25
:1009C00096E9BB279395F695879577956795B795A3
:1009D000F111F8CFFAF4BB0F11F460FF1BC06F5F89
:1009E0007F4F8F4F9F4F16C0882311F096E911C09B
:1009F000772321F09EE8872F762F05C0662371F0BC
:100A000096E8862F70E060E02AF09A95660F771FCF
:100A1000881FDAF7880F9695879597F9089597F9C3
:100A20009F6780E870E060E008959FEF80EC089594
:100A300000240A94161617061806090608950024BD
:100A40000A9412161306140605060895092E039437
:100A5000000C11F4882352F0BB0F40F4BF2B11F4AB
:100A600060FF04C06F5F7F4F8F4F9F4F089557FD0A
:100A70009058440F551F59F05F3F71F04795880F0C
:100A800097FB991F61F09F3F79F0879508951216A3
:100A900013061406551FF2CF4695F1DF08C016164F
:100AA00017061806991FF1CF869571056105089400
:100AB0000895E894BB2766277727CB0197F9089517
:100AC0000E94D20508F48FEF08950E9478050C94D7
:100AD00026050E94180538F00E941F0520F0952376
:100AE00011F00C940F050C94150511240C945A0563
:100AF0000E94370570F3959FC1F3950F50E0551F85
:100B0000629FF001729FBB27F00DB11D639FAA2762
:100B1000F00DB11DAA1F649F6627B00DA11D661FB1
:100B2000829F2227B00DA11D621F739FB00DA11DD2
:100B3000621F839FA00D611D221F749F3327A00D8C
:100B4000611D231F849F600D211D822F762F6A2F28
:100B500011249F5750409AF0F1F088234AF0EE0F8D
:100B6000FF1FBB1F661F771F881F91505040A9F7BA
:100B70009E3F510580F00C940F050C945A055F3F81
:100B8000E4F3983ED4F3869577956795B795F795F6
:100B9000E7959F5FC1F7FE2B880F911D969587956E
:100BA00097F90895990F0008550FAA0BE0E8FEEF9A
:100BB00016161706E807F907C0F012161306E40721
:100BC000F50798F0621B730B840B950B39F40A261A
:100BD00061F0232B242B252B21F408950A2609F4F8
:100BE000A140A6958FEF811D811D0895AA1BBB1BF7
:100BF00051E107C0AA1FBB1FA617B70710F0A61B1D
:100C0000B70B881F991F5A95A9F780959095BC013D
:100C1000CD010895A1E21A2EAA1BBB1BFD010DC038
:100C2000AA1FBB1FEE1FFF1FA217B307E407F5079C
:100C300020F0A21BB30BE40BF50B661F771F881F78
:100C4000991F1A9469F760957095809590959B010E
:100C5000AC01BD01CF0108950E943706A59F900DFC
:100C6000B49F900DA49F800D911D11240895A29F03
:100C7000B001B39FC001A39F700D811D1124911D70
:100C8000B29F700D811D1124911D0895F894FFCF1E
:100C9000050400050602040103000100010203022D
:100CA0000100020304050203050400000003000123
:100CB0000200000101000000000000000000000030
:100CC0000000000002020005020105000401010409
:100CD00004040303030305050303000001012010BE
:100CE000012040041002080102010204080402016C
:080CF000040810200408201084
:100CF8000024F400C800CDCCCC3DCDCCCC3D0100C7
:100D0800C800CDCCCC3DCDCCCC3D0300C800CDCC6B
:100D1800CC3DCDCCCC3D0200C800CDCCCC3DCDCC1B
:100D2800CC3D04006400CDCCCC3DCDCCCC3D010005
:100D38002C01CDCCCC3DCDCCCC3D0100F401CDCCAB
:100D4800CC3DCDCCCC3D01006400CDCCCC3DCDCC50
:100D5800CC3D010064009A99993ECDCCCC3D010070
:100D680064000000003FCDCCCC3D01006400CDCC38
:100D7800CC3DCDCCCC3D01006400CDCCCC3DCDCC20
:100D8800CC3E01006400CDCCCC3D9A99193F0100BE
:00000001FF
