:100000000C9450000C946D000C946D000C946D00D9
:100010000C946D000C946D000C946D000C94D30046
:100020000C946D000C946D000C946D000C94D20136
:100030000C946D000C946D000C946D000C946D008C
:100040000C946D000C946D000C946D000C946D007C
:100050000C946D000C946D000C946D000C946D006C
:100060000C946D000C946D000C946D000C946D005C
:100070000C946D000C946D000C946D000C946D004C
:100080000C946D000C946D000C946D000C946D003C
:100090000C946F000C946D000C946D000C946D002A
:1000A00011241FBECFEFCDBFDFE3DEBF18E2A0E01B
:1000B000B8E2EAE9F9E002C005900D92A430B10778
:1000C000D9F728E2A4E0B8E201C01D92A832B20735
:1000D000E1F70E94E7010C94CB040C9400001F92FE
:1000E0000F920FB60F9211242F933F934F935F936C
:1000F0006F937F938F939F93AF93BF9340912428E7
:1001000050912528609126287091272880912228D7
:10011000909123282091202830912128420F531FAD
:10012000611D711D20911E2830911F28820F931F81
:10013000883E23E0920730F0885E93404F5F5F4F28
:100140006F4F7F4F80932228909323284093242839
:1001500050932528609326287093272880911A2889
:1001600090911B28A0911C28B0911D280196A11DDB
:10017000B11D80931A2890931B28A0931C28B0933C
:100180001D2881E08093B60ABF91AF919F918F9116
:100190007F916F915F914F913F912F910F900FBE83
:1001A0000F901F9018951F920F920FB60F92112467
:1001B0002F933F934F935F936F937F938F939F936F
:1001C000AF93BF93EF93FF938091122890911328E0
:1001D000A0911428B0911528409105285091062827
:1001E00060910728709108280196A11DB11D48173C
:1001F00059076A077B0708F0BAC060910E28709112
:100200000F28809110289091112820E030E048ECD0
:1002100053E40E9426040E94A10360933C0A709359
:100220003D0A8091052890910628A0910728B09159
:100230000828892B8A2B8B2B89F08091042888230E
:1002400009F48AC080E28093A60480E48093460487
:1002500081E08093050480E18093A50480911628B5
:1002600090911728A0911828B0911928409105283D
:100270005091062860910728709108280197A109DC
:10028000B109481759076A077B0708F477C09091AE
:100290000D2880910D28923011F0843029F480913E
:1002A000042880958093042890910D2880910D2832
:1002B000933011F0843091F560910E2870910F28E1
:1002C00080911028909111282DEC3CEC4CEC5DE3D2
:1002D0000E94350360930E2870930F288093102896
:1002E0009093112860910E2870910F28809110280A
:1002F0009091112826E636E646E65FE30E94210447
:1003000087FD0CC08DEC9CECACECBDE380930E281B
:1003100090930F28A0931028B093112810920528CD
:1003200010920628109207281092082880910B0A34
:10033000816080930B0AFF91EF91BF91AF919F91E4
:100340008F917F916F915F914F913F912F910F907E
:100350000FBE0F901F90189580E18093A60481E056
:100360008093060480E48093450480E275CF80E2A8
:100370008093A60480E18093A60470CF8091052825
:1003800090910628A0910728B09108280196A11DF8
:10039000B11D8093052890930628A0930728B09359
:1003A0000828C4CF1F920F920FB60F9211248F937B
:1003B000EF93FF93E0E0FAE0838580648387FF9109
:1003C000EF918F910F900FBE0F901F90189588EDB1
:1003D00090E084BF9093610080E094E2A4EFB0E0ED
:1003E0008093002890930128A0930228B0930328BB
:1003F00080910206866080930206809100068160EB
:1004000080930006809102068F7C80930206809183
:10041000A0008F788093A000809102068061809375
:1004200002061092E20581E08093E40583E0809368
:10043000010A8FEF90E08093260A9093270A80E8C4
:1004400090E08093380A9093390A80933A0A909307
:100450003B0A80933C0A90933D0A8BE08093000A0C
:100460008091E50581608093E5058091E5058260D6
:100470008093E505E0E8FAE037E02FEF90E885E0CB
:1004800031832487958780837096E03C4AE0F407A7
:10049000B9F780E094E080930B2890930C2880912A
:1004A0000B2890910C282FEF30E0B9010E94B7047F
:1004B0006093092870930A2880910B2890910C284A
:1004C000E8EEF3E0BF010E94B70460932028709328
:1004D000212880910B2890910C28BF010E94B7041D
:1004E00080931E2890931F282093BC0A3093BD0A46
:1004F0008091B50A81608093B50A84E08093B00A48
:100500009091B00A91609093B00A78943FB7F894B4
:1005100020E1209362049091740498609093740495
:100520003FBF90E29093A1042093A10491E09093A7
:10053000010490E490934104809321048093000A85
:1005400083E48093010A80E991E08093360A9093D6
:10055000370A10923C0A10923D0A81E480930A0AFD
:100560008091000A8E7F8093000A84E690E0A0E0EC
:10057000B0E08093162890931728A0931828B09382
:1005800019281092122810921328109214281092F1
:10059000152810920E2810920F28109210281092F1
:1005A000112810920D288091000A81608093000A22
:1005B000C0E0D0E082E3C82ED12CE12CF12C95E0F4
:1005C000892E912CA12CB12C2AE9422E29E9522EF8
:1005D000652C2EE3722E14E08091680484FD24C003
:1005E0008091000A81608093000AC0921628D09200
:1005F0001728E0921828F0921928809212289092D9
:100600001328A0921428B092152840920E285092D8
:100610000F28609210287092112810930D282097AF
:10062000D9F20E940000D8CF8091000A8E7F80937B
:10063000000AC0921628D0921728E0921828F0924B
:1006400019288092122890921328A0921428B09210
:10065000152840920E2850920F2860921028709210
:10066000112810920D28DBCF5058BB27AA270E94D3
:100670004C030C94E7030E94D90338F00E94E00376
:1006800020F039F49F3F19F426F40C94D6030EF4AD
:10069000E095E7FB0C94D003E92F0E94F80358F390
:1006A000BA17620773078407950720F079F4A6F557
:1006B0000C941A040EF4E0950B2EBA2FA02D0B010A
:1006C000B90190010C01CA01A0011124FF27591B97
:1006D00099F0593F50F4503E68F11A16F040A22F9D
:1006E000232F342F4427585FF3CF4695379527950E
:1006F000A795F0405395C9F77EF41F16BA0B620B0D
:10070000730B840BBAF09150A1F0FF0FBB1F661F53
:10071000771F881FC2F70EC0BA0F621F731F841F96
:1007200048F4879577956795B795F7959E3F08F0BC
:10073000B0CF9395880F08F09927EE0F979587957E
:1007400008950E94000488F09F5798F0B92F9927C8
:10075000B751B0F0E1F0660F771F881F991F1AF0AC
:10076000BA95C9F714C0B13091F00E941A04B1E0F3
:1007700008950C941A04672F782F8827B85F39F0F2
:10078000B93FCCF3869577956795B395D9F73EF445
:1007900090958095709561957F4F8F4F9F4F0895ED
:1007A00097F99F6780E870E060E008959FEF80EC24
:1007B000089500240A9416161706180609060895C7
:1007C00000240A9412161306140605060895092E2D
:1007D0000394000C11F4882352F0BB0F40F4BF2B9C
:1007E00011F460FF04C06F5F7F4F8F4F9F4F0895DC
:1007F00057FD9058440F551F59F05F3F71F04795D2
:10080000880F97FB991F61F09F3F79F087950895B6
:10081000121613061406551FF2CF4695F1DF08C0D5
:10082000161617061806991FF1CF869571056105F2
:1008300008940895E894BB2766277727CB0197F99A
:1008400008950E94930408F48FEF08950E943904DC
:100850000C94E7030E94D90338F00E94E00320F0D3
:10086000952311F00C94D0030C94D60311240C940E
:100870001B040E94F80370F3959FC1F3950F50E09D
:10088000551F629FF001729FBB27F00DB11D639F42
:10089000AA27F00DB11DAA1F649F6627B00DA11DE8
:1008A000661F829F2227B00DA11D621F739FB00D8E
:1008B000A11D621F839FA00D611D221F749F3327FE
:1008C000A00D611D231F849F600D211D822F762F97
:1008D0006A2F11249F5750409AF0F1F088234AF074
:1008E000EE0FFF1FBB1F661F771F881F91505040E0
:1008F000A9F79E3F510580F00C94D0030C941B0483
:100900005F3FE4F3983ED4F3869577956795B79566
:10091000F795E7959F5FC1F7FE2B880F911D969580
:10092000879597F90895990F0008550FAA0BE0E8ED
:10093000FEEF16161706E807F907C0F012161306A1
:10094000E407F50798F0621B730B840B950B39F4E1
:100950000A2661F0232B242B252B21F408950A2647
:1009600009F4A140A6958FEF811D811D0895AA1B52
:10097000BB1B51E107C0AA1FBB1FA617B70710F08A
:10098000A61BB70B881F991F5A95A9F780959095BC
:0A099000BC01CD010895F894FFCFDB
:04099A000024F40041
:00000001FF
