:1000000000800010215200005152000053520000A5
:1000100055520000575200005952000000000000E5
:100020000000000000000000000000006505000066
:100030005D52000000000000CF0500000506000032
:1000400063520000635200006352000063520000DC
:1000500063520000635200006352000063520000CC
:1000600063520000635200006352000063520000BC
:1000700063520000635200006352000063520000AC
:10008000635200006352000063520000635200009C
:10009000635200006352000063520000635200008C
:1000A000635200006352000063520000635200007C
:1000B000635200006352000063520000635200006C
:1000C0006352000063520000635200000348044B77
:1000D000834202D0034B03B118477047680D0010EC
:1000E000680D001000000000054806490B1AD90FE2
:1000F00001EBA301491002D0034B03B1184770472D
:10010000680D0010680D00100000000010B5064CCE
:10011000237843B9FFF7DAFF044B13B10448AFF378
:1001200000800123237010BD680D00100000000046
:100130005053010008B5044B1BB104490448AFF308
:100140000080BDE80840CFE7000000006C0D001003
:1001500050530100A3F5803A704700BF154B002BA8
:1001600008BF114B9D46FFF7F5FF00218B460F4658
:100170001148124A121A08F00DF80C4B002B00D04F
:1001800098470B4B002B00D098470020002104001B
:100190000D000B4806F00CFC07F08AFB200029003C
:1001A00004F031FF06F016FC00000800000000001B
:1001B000FB4F000000800010680D0010B02B0010F5
:1001C0001D6E00007047704710B50446094B48305B
:1001D00003F1200240F8483C5C3340F8182C40F80A
:1001E000143C00F0B7F804F1300005F081FF204620
:1001F00010BD00BF204A0100A0F13000E4E7A0F1EB
:100200003400E1E710B50446FFF7DEFF2046602129
:1002100006F0C8FB204610BDA0F13000F2E7A0F1C7
:100220003400EFE7704710B504460C2106F0BAFB26
:10023000204610BD73B50C2004F032FF0446244A5A
:10024000244905F05BFD244B20462360234A244BC0
:10025000244904F0BFFC244C244D2368286001335A
:1002600004D124222249234805F072FF23696268E1
:1002700021481A6006F090F82368013304D1242243
:100280001B491C4805F064FFE36862681A481A605D
:1002900006F082F8286804F0B9FC184E184C78B9BA
:1002A000184E174C2B6801A9586803681B699847BA
:1002B0000028F7D131462046019A05F02BFFF1E7DF
:1002C0003146204605F026FF286804F09FFCE6E74B
:1002D0000BC009200AC009206842010000C00920A3
:1002E00004C0092019C00920E80D0010840D001079
:1002F000E441010023420100CDCCCC3D3B42010052
:10030000B80D00105442010010B50B4C00232046DC
:100310000A4A0B4905F01CFE20460A4A0A4906F023
:100320003BFB0A4B00211822184607F033FFBDE8BB
:100330001040074905F0BBBF880D001003C009201D
:1003400002C00920C8000010C9010000E80D00101B
:1003500040C0092010B50446006800F049FB204663
:1003600010BD704708B5024C23689847FCE700BFF2
:10037000CC000010234A836AD2F800C02DE9F04176
:100380009B08056B08BFCCF38D0305EB8302540774
:100390004FF0807448BF043A42E902144FF000085D
:1003A0001446A2F14007A2F14406A2F10C0E46F851
:1003B000048F7645FBD1C6691CF0805F42F8206C43
:1003C000C762416317D0112B15D94FF0CC31103BC8
:1003D0005B08A2EBC302083CA24210D16FF00702F7
:1003E00002FB037303F1080204339D423CBF4FF04C
:1003F000CC3342F8043C044B2B60BDE8F08144E967
:100400001011E8E7CC420100A52E5AE2C36A196236
:100410007047C36AC3E908127047000008B50E4868
:1004200000F0B2FA02460D4B0D481A6000F0ACFA2B
:1004300002460C4B0C481A6000F0A6FA02460B4B21
:100440000B481A6006F0B4FA07F032FABDE808402B
:100450000021084604F0D7BDC44201005C2400100E
:10046000C0420100080E0010BC420100000E001046
:100470001D6E0000FFF776BF10B5044600F0DEF9F0
:100480002146BDE810400246014805F073BE00BF9A
:10049000784201004FF4806030B4084B0849C3F142
:1004A00080520B60074D084C02F5F842074913448F
:1004B0002B602260086030BC704700BFB02B00107A
:1004C000781F0010100E0010741E00100C0E00108B
:1004D00000F0DAFAFFF7DEFF0348002100F0F2F93E
:1004E00000F032F9FEE70000D0000010024B4FF0A0
:1004F000FF31186800F064BA080E0010014B18684C
:1005000000F06ABA080E001080F309887047EFF314
:1005100009807047684680F309883F480078C00723
:1005200014BF0220032080F314887047DFF8ECC06A
:10053000EFF305831B0618BF6047EFF31483DB0757
:1005400008BF604700DF7047DFF8D4C0EFF30583D2
:100550001B0618BF6047EFF31483DB0708BF604733
:1005600000DF7047EFF30980816911F8021CF1B9CF
:1005700090E80F10E047EFF3098C8CE80700294B57
:1005800093E8060091420FD039B12CE9F00FC1F881
:100590002CC00CB400F06EFF0CBC1A60D2F82CC05A
:1005A000BCE8F00F8CF309886FF0020E704710B5AD
:1005B0001D4A1268914209D81C4C54F8214090E819
:1005C0000F10A047EFF3098C8CE80F0010BD00F06E
:1005D000E1FE144B93E80600914210D0EFF3098C32
:1005E0002CE9F00FC1F82CC00CB400F043FF0CBC98
:1005F0001A60D2F82CC0BCE8F00F8CF309886FF0B9
:10060000020E704700F018FFFFF7E3BF00F012FF83
:1006100000F012FFFFF7DDBFB1420100A51000009E
:10062000BF1000005C2B001000000000FCFFFFFF6B
:1006300000B5DFF80CC000DFDFF808C000DFFEE720
:100640003D0800005508000030B500240A4A136830
:1006500043B90360816013B19D68691A996044B120
:10066000206030BD9D688D42F3D81C46491B1B6835
:10067000EEE71060F5E700BF182B0010C0B1431C77
:1006800011D00C4B984211D84FF47A710A4B1B6869
:100690005A1E01FB0020B0FBF3F34FF6FE708342BD
:1006A00006D898B270474FF6FF7070474FF6FE704D
:1006B000704700BF00093D00AC42010038B183071C
:1006C00004D10378002B18BF00207047002070472A
:1006D000B0B50E4D00AF2878A8B90D4C236893F83B
:1006E000241000F037FF2368DA78FF2A03D1DA6A92
:1006F000203282F3098862680AB9C4E9002301F054
:10070000D1F801232B700020B0BD00BF152B0010C5
:100710005C2B0010014B1878704700BF152B0010A0
:1007200010B5EFF305841CB9EFF31484E40702D489
:10073000034B187810BDDFF80CC000DFFAE700BFEC
:10074000152B00101507000090B589B000AFEFF32E
:100750000583002B33D1FFF7E3FF28B9194C246838
:1007600014B1646804B1A047EFF3148404F00304E7
:10077000022C18D0032C1CD0012C1ED007F1200411
:1007800084F30988104C2478E40710D5022484F3FC
:100790001488BFF34F8FBFF36F8FDFF830C000DFD7
:1007A0002437BD4690BD084C2478E407F5D40324D3
:1007B000EDE7054C2478E407EFD5FF20F0E7822031
:1007C000EEE700BF4C2B0010B1420100D106000043
:1007D00070B50B461546044610B90024204670BD7E
:1007E00000680028F9D0B4F90460F21C92B2062A1D
:1007F000F3D8E168C1B12269043646EA012100F06C
:10080000E7FE0028E9D00A4B013853F82040094A96
:10081000E36A5A63084B1B6843B19B6833B12946AE
:10082000E0789847A063D9E70A46E5E7A563D5E7EE
:1008300098230010310600004C2B001008B500F082
:1008400081FE18B1024B013853F8200008BD00BFEB
:100850009823001010B5FFF731FF044670B1084B24
:100860001B681BB1DB680BB1806B9847E07800F028
:10087000FDFEFF2814BF0020812010BD8020FCE772
:100880004C2B0010F0B506460D461446EFF30587D5
:100890008FB9EFF31487FF0706D4084F3F781FB9CD
:1008A000BDE8F040FFF794BF304629462246DFF806
:1008B00010C000DFF0BD0020FCE700BF152B0010CA
:1008C000D10700000022FFF7DDBF8207034604D1F5
:1008D00018B14269196910687047002001467047D5
:1008E00010B504460846DFF80CC000DFC4E900017B
:1008F000204610BDCB08000010B5044630B1046896
:1009000024B1237823B9204600F0EDFB204610BD2A
:100910000024FBE770B510F0030504460E4612D123
:1009200088B10378032B0ED10846FFF7A7FE0146D6
:10093000204600F0A7FC012803D1002E14BFC125DA
:100940008125284670BD8025FBE710B510F0030413
:100950000AD148B10378032B06D100F023FCFF280D
:1009600008BF8124204610BD8024FBE710B510F09D
:10097000030407D130B10378032B03D100F0BCFB93
:10098000204610BD8024FBE730B50446EFF3058513
:100990007DB9EFF31485ED0706D4074D2D781DB909
:1009A000BDE83040FFF7A8BF2046DFF810C000DFE9
:1009B00030BD0020FCE700BF152B0010F908000037
:1009C00010B5EFF305841CB9DFF808C000DF10BDD7
:1009D0008220FCE71509000010B5EFF305841CB96F
:1009E000DFF808C000DF10BD8220FCE74B090000E3
:1009F00010B5EFF305841CB9DFF808C000DF10BDA7
:100A00008220FCE76D09000010B5044660B1016862
:100A100051B1406838B1037833B90431890089B2E3
:100A200000F01EFA606810BD0020FCE738B50F4CDE
:100A300023780BB900F0C4FEFF220D4B25781B680C
:100A40009A7065B929460B48FFF7DEFF0A4B2A4624
:100A5000186029460948FFF7BBFE094B18600123BF
:100A600000202370074B187038BD00BF142B0010F6
:100A70005C2B0010B442010058240010D042010049
:100A8000102B0010152B001010B5EFF305845CB986
:100A9000EFF31484E40703D4BDE81040FFF7C6BFAA
:100AA000DFF808C000DF10BD8220FCE72D0A00003F
:100AB0002DE9FF410C46804620B30378012B26D157
:100AC0000846FFF7DBFD02A90246404600F0D4F9D4
:100AD000012812D10020002C024603460CBF2046FC
:100AE0004020029904460D4616461F4620462946D8
:100AF00032463B4604B0BDE8F08100200246034682
:100B00001020EEE78024054606460746EEE700255E
:100B100080242E462F46E9E770B50E46144605465A
:100B200060B15AB90378012B08D100F0F7F938B158
:100B30003146284600F0F6F9204670BD8024FBE7D8
:100B40008124F9E7F8B5114E34682CB1A368104F31
:100B5000013BA360A26802B1F8BD25682146386850
:100B60003560FFF7D9FF10B10420FFF785FC6379EA
:100B7000012B07D12046E168FFF766FD002DEBD081
:100B80002C46E7E701232371F8E700BF182B00107C
:100B9000582400107FB504461646084601B122B11C
:100BA00080232360204604B070BD0B78012BF7D161
:100BB00002A900F0BEF9042808BF102301AD14BF3C
:100BC0000196019395E8070084E80700EAE7000032
:100BD000F8B50446EFF305871FB1FFF7DBFF2046AA
:100BE000F8BD08461146DFF80CC000DFC4E900017B
:100BF000A260F4E7B10A00007FB50A4C4FF0FF3263
:100C0000216803A8FFF7E4FF039B102BF6D104999A
:100C100001A8FFF765FE019B002BEFD002989847D3
:100C2000ECE700BF5824001010B5038B427819433D
:100C3000062A0446438B018315D133EA010219D1F8
:100C400021EA03012046218300F0D6F80123204643
:100C50000821628B6370FFF7DCFB2146BDE8104082
:100C6000054800F00BB8052A04D111EA030201D0AF
:100C70004283E5E710BD00BF1C2B001030B50278A1
:100C80008C78013A4368D2B213B19D78A54207D25D
:100C9000022A4B60416006D803B19960886030BD7C
:100CA00018465B68F0E700238B60F8E7034640686E
:100CB00019784268013902295A604FF0000105D8BD
:100CC0000AB19360416000238360704741607047C0
:100CD000034B5A684260002258608260704700BF30
:100CE0001C2B0010114B10B5DA6892B19A8A8A4217
:100CF000DC680DD3C460D860C468036104B12061AE
:100D000092B2541A8482988A0144891A998207E01F
:100D10003CB90024891AC460D86003619982848236
:100D200010BDA38A1A442346E1E700BF342B00100C
:100D30002DE9F041164CE36853B10025A38ADFF892
:100D40005880013B134FA382A28A0AB9E16809B90E
:100D5000BDE8F0818B6833B1486858604E680EB1C9
:100D6000B3604A608D604046FFF788FF8B8AA3829C
:100D70004B78042B01BF3B68CA8A9B188B820123E6
:100D80004B70CB68E3600BB11C61CD600D61DBE79C
:100D9000342B0010A02B00101C2B001083682BB1EB
:100DA00042685A6042685AB193607047054B1A46D0
:100DB0005B68984202D1436853607047002BF6D1BC
:100DC000704700BF1C2B001010B5846801462CB979
:100DD0004378012B0DD1074C03E0A4682378002B46
:100DE000FBD00846FFF7DAFF2046BDE81040FFF7CA
:100DF00045BF10BD1C2B0010036910B55BB1C26864
:100E0000DA604AB1998A848A214499821361002365
:100E1000C3600023036110BD9A82FAE730B40F4B20
:100E2000DD78EFF3108272B69A78954207D90132D5
:100E30009A701A78541CA54208BF00241C7062B630
:100E4000DC78944205D930BC03EBC203C3E901014D
:100E50007047022030BCFFF70FBB00BFD423001047
:100E600001230380002310398908C0E9013383700E
:100E70008381C1817047000038B5838904461546D7
:100E8000002B35D043891A1D50F8222001330A6007
:100E9000C2899BB29A42438104BF002343814368C5
:100EA000F3B14378022B1BD1FFF700FF0546002169
:100EB000FFF7ACFA2389E9691A1D44F822100133BF
:100EC000E2899BB29A42238108BF0023284608BFCB
:100ED0002381FFF791FF284600F0F8FA002038BD83
:100EE000EFF3108372B6A389013BA38162B6F5E7E5
:100EF0004AB1094B196843683BB1FFF7BFFE0821AF
:100F0000284600F005FB0120E9E74160C1E9013016
:100F100001234370F3E700BF5C2B0010C289808976
:100F2000101A704708B5FFF779FFBDE8084000F0D8
:100F30001FBA838910B50446F3B14389043350F8CE
:100F400023300B604378022B04D10021FFF766FFAA
:100F500000F00EFAEFF3108372B6A389013BA38170
:100F600062B66389E28901339BB29A42638101D1FF
:100F700000236381042000E0184610BD426870B56C
:100F800004460D46002A49D04678022E20D0032E72
:100F90000AD0012E59D1FFF789FE04462A461021B6
:100FA000FFF737FA66700EE0084600F07BF805465A
:100FB00000284AD02046FFF779FE29460446FFF76D
:100FC00025FA012363702046FFF716FF214620E033
:100FD000FFF76CFE05460021FFF718FA2389EA693E
:100FE000043344F82320EFF3108372B6A38901334E
:100FF000A38162B62389E28901339BB29A4223819D
:1010000004BF00232381012328466B70FFF7F4FE01
:101010002946BDE870401048FFF730BE8189C3897A
:10102000994213D20389043340F82350EFF310831D
:1010300072B683890133838162B60389C189013322
:101040009BB29942038100D1028170BD0320BDE8AB
:101050007040FFF711BA00BF1C2B0010002ABBBF65
:1010600022F000420732033222F00702AABF22F028
:10107000030210230C2310B592B1D4188C420FD860
:1010800001440344C0E9011203605442891A9818CC
:10109000814202D303460051F9E70020186010BDD9
:1010A0000120FCE70346EFF3108272B6006802F0FD
:1010B000010208B10168196002B962B67047814245
:1010C0000DD343688B420AD9EFF3108372B60268DE
:1010D0000A60016013F0010003D162B6704701207D
:1010E000704700207047032303700023C0E90133D9
:1010F0004380C36070470000F8B5438804469BB145
:101100008068036A9C4228D1E368036290F8243027
:10111000026A52BB82789A4206D083701F4B1B68CA
:10112000834201D0FFF750FE01261D4F656825BBA5
:101130001B4843686BB1194E9A7831688B789A4294
:1011400007D9FFF79BFD0122336828465A7000F04B
:10115000BDF900202070F8BD1346002BD6D0DA6808
:10116000A242F9D1E268DA60D0E7516819B1897812
:101170008B4238BF0B46D268CBE72046FFF796FD7F
:1011800005460021FFF742F92846FFF735FE2946BC
:1011900038466E70FFF772FDC8E700BF5C2B001089
:1011A0001C2B00102DE9F84343880546002B63D023
:1011B000324F826839688A425ED1013B9BB24380DC
:1011C0001BB100242046BDE8F8830B6A984229D160
:1011D000C3680B6291F824300C6A5CBB8B706A6840
:1011E000DFF89C80002A3BD02846FFF75FFD0646CB
:1011F0004FF001092146FFF709F93046FFF7FCFDE2
:10120000336A3968EB60D8F80430A5F80290AE6014
:1012100035628A789B789A4214D3304600F056F9AA
:10122000D0E71346002BD5D0DA68AA42F9D1EA6894
:10123000DA60CFE762681AB19278934238BF1346FA
:10124000E468CAE74046FFF719FD31464046FFF71C
:1012500015FD3B6883F8019086F801902046DDE794
:10126000D8F8042092789A42ABD94046FFF706FDA1
:1012700001223B685A70F1E7FF24A3E75C2B0010C2
:101280001C2B001070B50D46134E41880446336880
:1012900039B91A6A8360C260186200200131618026
:1012A00070BD80689842F8D085B19B7882789A4268
:1012B00002D28370FFF788FD6368316843B120462E
:1012C000FFF7DCFC0921284600F022F90120E7E7BE
:1012D0006160C1E90134F5E75C2B00100022034B8B
:1012E0001A60034A1268DA80704700BF502B001062
:1012F000C842010008B50E4B5A680E4B19880E4BB8
:101300001868904204D01A60DA88013A0A449A8038
:101310009A888A420AD1002205481A60FFF7C6FC63
:10132000BDE8084001460248FFF7A8BC08BD00BF61
:101330001C2B0010A02B0010502B0010426810B581
:101340007AB1FFF7B3FC0446FFF756FD01212046B2
:101350006170FFF75BF82146BDE810400348FFF7D6
:101360008DBC42880132428010BD00BF1C2B001092
:10137000054B1B7823B94FF08052044B1A6070471D
:101380000122034B1A707047641E001004ED00E048
:10139000651E001038B5184B184C186801234370AF
:1013A000FFF796FC6578A3783BB915486570FFF7A1
:1013B0007DFCBDE8384000F06FB804EBC503586809
:1013C00002787AB91989FFF72FFCE3780135AB422F
:1013D00008BF0025EFF3108372B6A378013BA3701A
:1013E00062B6E0E7012A03D19968FFF7C7FDECE791
:1013F000FFF7A4FFE9E700BF5C2B0010D423001027
:101400001C2B0010084B4FF0FF301A68074B1A6076
:1014100000225A60072243F8042C054A136843F05F
:101420007F431360704700BFE442010014E000E016
:1014300020ED00E07047000008B50B4B1868012351
:101440004370FFF745FCFFF755FF084A1368013367
:101450001360FFF76DFCFFF775FB0548FFF726FCEF
:10146000BDE8084000F018B85C2B0010A02B00105D
:101470001C2B0010064B1A68136BD26A934203D8D8
:101480001A68044B9A4202D00120FEF7F5BF70475C
:101490005C2B0010A52E5AE2054B586002234370C6
:1014A000044B1B681BB11B690BB1806B184770475D
:1014B0005C2B00104C2B001008B50348FFF7F6FB1F
:1014C000BDE80840FFF7E8BF1C2B001070B50446CC
:1014D00018B9BDE87040FFF7EFBF0B4EA278306837
:1014E000012583789A4208D9FFF7F2FB336820463A
:1014F0005D70BDE87040FFF7CFBF65702146BDE865
:1015000070400248FFF7BABB5C2B00101C2B001088
:1015100038B50C46014680B14FF6FF739842074D2F
:1015200002D02868FFF7DEFB2B6805485C70FFF7E8
:10153000BDFBBDE83840FFF7AFBF38BD5C2B0010E6
:101540001C2B0010024B186800B1C078704700BF18
:101550005C2B001010B5A8B9194B1B68997083F863
:101560002410184843689B788B4201D8002010BD96
:10157000134C2168FFF782FB012223685A70FFF7A2
:101580009BFFF3E7104B1B88834217D30F4B0138A7
:1015900053F8204094B10A4BA1701B6884F82410C2
:1015A0009C42DED02046FFF70FFC6378012BDDD193
:1015B0000448FFF77BFBFFF789FFD7E7FF20D6E75B
:1015C0005C2B00101C2B0010B2420100982300106D
:1015D0002DE9F0470D4611F0FF0F07461F4816464C
:1015E0009A4608BF0135FFF75DFD044618B900268D
:1015F0003046BDE8F0871A4B290A066381621888D5
:10160000184B012699468642F1D853F8042B06F16F
:10161000FF380AB10136F6E74FF48073EDB2C4E942
:101620000122C4E90322C4E90522E670C4F81CA023
:101630002380A57084F82450226284F8252019B9EB
:101640000948FFF72FFD206320463946FEF792FE3A
:10165000204649F82840FFF739FFC9E780270010E6
:10166000B242010098230010882100102DE9F84FA4
:101670004D4E346810B1E378834240D1002363704B
:10168000FEF745FF0127E062FFF7F4FE3368DFF85D
:101690002C811C6AA4B932684449D3784448013B80
:1016A00041F82340116BFFF70AFD316841480C6394
:1016B000FFF705FD3460FFF7FFFE2046BDE8F88F19
:1016C0006368B3B12046FFF7F1FA05460021FEF743
:1016D0009DFE2846FFF790FB294640466F70FFF7B6
:1016E000CDFAE3682A6A6780A560E2602C621C4636
:1016F000D0E7E2686380C4E902331446CAE72E4BA0
:101700001B8883424ED3294B451E53F825B098467B
:10171000BBF1000F46D04FF001095846FFF73EFBE2
:101720005846FFF769FBDFF894A0DBF82040C4B906
:10173000DBF830101E4848F82540FFF7C0FC59463A
:101740001C48CBF83040FFF7BAFC1C4831684368AE
:101750009A788B789A42B0D901234B70FFF78EFAB2
:10176000A9E76368C3B12046FFF7A0FA0746002146
:10177000FEF74CFE3846FFF73FFB3946504687F8E8
:101780000190FFF77BFAE3683A6AA4F80290A76039
:10179000E2603C621C46CAE7E2686380C4E9023347
:1017A0001446C4E7FF2488E75C2B00109823001040
:1017B0008821001080270010B24201001C2B00106D
:1017C00038B5274B274A198800231846994243D831
:1017D0000025254B3C2219882448FFF73FFC244B69
:1017E00024481A88244B42F000421968FFF736FC5F
:1017F000224B08221988224B224C1868FFF72EFC36
:10180000214B1C48C4E90035C4E90255C4E904551C
:10181000A562A5612562A584FFF744FC1B492063EE
:101820002046FEF7A7FD0422194B20461A705D6082
:10183000184B1A70C3E903559D82174B1C60022395
:101840006370FFF729FE154A154B12781D80DA7078
:10185000BDE83840FFF742BD42F8040B0133B5E75D
:10186000B242010098230010A84201008027001016
:10187000CC42010088210010A4420100AA420100CC
:10188000040E0010642B0010000100FF750400001E
:101890001C2B0010342B00105C2B0010B0420100F8
:1018A000D423001008B51E4B1A6842F47F021A6058
:1018B0001B681B0203F07F43DB43B3FA83F3194A2F
:1018C000DBB21268C3F10803C2F30222934298BF4D
:1018D000531C6FF08072144802FA03F3016803F09E
:1018E0007F4321F07F4213430360FFF78BFD0F4BD3
:1018F0000028186012DBFF22012100F1604000F592
:10190000644002701A6853099B0003F1604302F0BF
:101910001F0203F5614301FA02F21A6008BD00BF1D
:1019200020ED00E00CED00E01CED00E0582B001075
:10193000054B10B504460360406F10B103685B6847
:101940009847204610BD00BF984401000B68184717
:1019500010B50446FFF7ECFF20464FF4EE7105F09A
:1019600021F8204610BD70B58AB0BDF83860044635
:101970001F2E154614D832460DF109008DF8083097
:1019800006F02CFB0023294600932046731C02AA74
:1019900004F0E0F9003818BF012040420AB070BDE1
:1019A0006FF00100FAE77FB514468DF80F30012380
:1019B0000E46009321460DF10F02054604F0CAF9C8
:1019C00068B90090324621462846BDF8203004F020
:1019D000E1F9003818BF0120404204B070BD4FF05B
:1019E000FF30FAE7022330B585B000930446027950
:1019F00012230D46006803A9FFF7D5FF0122617984
:101A0000BDF80C308A4092B26DB923EA0203ADF8FA
:101A10000C300223227900932068122303A9FFF7D8
:101A2000A2FF05B030BD1343F1E7F0B54FF0FF3032
:101A3000DF083D460026DDF814C003F00703CCF8AC
:101A40000000954217D2B6B9BD420CBF1C463446C1
:101A5000485D04BF1841C0B210F0010605D004EB88
:101A6000C504CCF800400135EBE70134082C4FEAFF
:101A70005000F1D1F7E7F0BDB2EBD30F4FEAD3003E
:101A800010B503F0070483BF012303FA04F20B5CD3
:101A90006FF0310082BF13430B54002010BD0020B3
:101AA0001860087F28B1908A0A6A42438032120A7D
:101AB0001A600020704713B51C46D368236001AB41
:101AC000FFF7EDFF18B92368019A1344236002B0B1
:101AD00010BD4FF080438B4201D99B08FBE70020EB
:101AE00043B1C2188A424FEA50009CBFC018891AFD
:101AF0009B08F5E7704700002DE9F041B1F854C1AB
:101B0000D1F858610546DDE9080706FB0CF680367A
:101B1000360A06FB0CF653B1940204EB5304B4FBF3
:101B2000F3F404EB4404644304F50044230C4FF045
:101B3000060CDDE90642544304F50044240C04FB82
:101B400004F200F50044240C0334B4FBFCF4C4EBB1
:101B5000C404B4F5803F3FBFC11CB1FBFCF1C1EB35
:101B6000C10101F500413ABF090C49431A4902EB92
:101B700057040C44B4FBF7F4FE22A4037F34B4FBF7
:101B8000F2F44FF47A775C4304F5FA74B4FBF7F49B
:101B900006F120012401890904F5FA742846FFF7AB
:101BA00098FFBC4221BF4FF4FA61B4FBF1F1B4FBE2
:101BB000F7F4891980462CBFB1FBF4F100212846C7
:101BC000FFF787FF0A9B804594BFC3F80080186029
:101BD0000020BDE8F08100BF0000F0FF2DE9F04FCC
:101BE0000746914691B00A930B6A0D460E93D2E9CF
:101BF000033A0D930FABFFF75EFF4A4638460EAB34
:101C0000FFF74DFF48BBD1F8DC3091F8E080089336
:101C1000D1F8E430B8F1080F09930CBF0223032375
:101C20004FF47A760C930F9B0E9A06FB03F48033E5
:101C300004F500440B925FEA144C23F0FF0291F884
:101C4000E8E0DFF8ECB107920F9209D10A9BC3F8E4
:101C500000B01A9BC1F840B1186011B0BDE8F08F18
:101C60006E4A099902FB08F002FB0EF24FF4FA6E7D
:101C700002F5FA72B2FBFEF800F5FA70B0FBFEFE58
:101C8000B2FBF6F2B0FBF6F006FB01880899B8FB50
:101C9000F2F206FB01EEBEFBF0F00C990244514358
:101CA000C90201F5FA71B1FBF6F140F2776808FB61
:101CB00001F808F5FA78B8FBF6F806FB0AFA584A74
:101CC000190A0AEA020ABAFBFCFC08FB01F1554BAF
:101CD00080319C454FEA112128BF9C4601294FF0D5
:101CE0000C0338BF01214FF4167A594338460AFBDA
:101CF0000CFAFFF7EEFE99F818104300B9F8080047
:101D0000002940F088804849454A41430B981440D7
:101D10007043B0F5481F28BF4FF4481004F5FA741B
:101D2000A4EB4000B0FBF6F0B4FBF6F641F25C2207
:101D30000002B0FBF6F6B1FBF2F13602C6F58036D2
:101D400001FB06F404F50044240C04F58034640817
:101D50006443A40B4FF448710AF500426143120C2E
:101D6000524301F50041090C01FB012138460B9358
:101D7000FFF7AFFE060464203236B6FBF0F60B9B8D
:101D800040F6B530B6FBF3F641F2883300FB063679
:101D9000264B4FF4FA619E4298BF42F210734FF403
:101DA0007A7998BFB6FBF3F6DDE90832134403F500
:101DB000FA73B3FBF1F1B3FBF9F301F5C811B1FB11
:101DC000F3F1384688BF4FF47046FFF782FE0102F8
:101DD00001F5FA71B1FBF9F14943384606FB0611EA
:101DE000FFF777FE09FB00F0584528BF58460A9BCD
:101DF000294618601A9BC5F84001CDE903834FF4CA
:101E000048733846CDE90043079A0D9BCDF808A0EA
:101E1000FFF772FE21E74FF480349BE7002F3A0072
:101E20000000FFFF666666009A9906000F279F2450
:101E3000AE878F02084661B10023481E30F0FF02D2
:101E400099B203F1010301D04008F7E700EB01204C
:101E500080B2704713B50C461946BDF81030009398
:101E6000806E13462246FFF77EFD003818BF012022
:101E7000404202B010BD10B4BDF8044091F85C11AE
:101E8000019410BCFFF7E6BF07B513460622009287
:101E9000B022FFF7F0FF03B05DF804FB2DE9FF412E
:101EA00000230746884616461846F15C002946D0AE
:101EB000002844D15D1CFF29725D2BD19D1C715DF2
:101EC000032A03D8DFE802F0060E161E6FF00300A7
:101ED0002B46EAE71D1D3344DB7803EB0121A8F80C
:101EE0003411F5E71D1D3344DB7803EB0121A8F81D
:101EF0003611EDE71D1D3344DB7803EB0121A8F813
:101F00003811E5E71D1D3344DB7803EB0121A8F808
:101F10003C11DDE70429D9D80DF10C0C9C1C63465B
:101F2000354415F801EF013081420CF801EBF8DC83
:101F30006518009138464146FFF79DFFC8E704B099
:101F4000BDE8F0811FB58DF80F30012391F85C11C9
:101F500000930DF10F03FFF77DFF05B05DF804FB63
:101F600053088A22FFF7EEBF1FB55BBAADF80C30FD
:101F7000022391F85C11009303ABFFF76BFF05B0F0
:101F80005DF804FBF8B51E468B1893F828500C46F4
:101F9000174625B904EB87040020666310E0052A84
:101FA00017D8DFE802F003050E1012124E63F1E7B6
:101FB0004422C6F34F232146FFF7D6FF0028E9D07D
:101FC000F8BDCE63E6E70E64E4E76422C6F34F2370
:101FD000F1E76FF00300F3E713B50C461946BDF8BF
:101FE00010300093806E13462246FFF7DCFC003869
:101FF00018BF0120404202B010BD10B4BDF804402B
:1020000091F85C11019410BCFFF7E6BF07B51346C9
:1020100006220092B022FFF7F0FF03B05DF804FB48
:102020002DE9F04F054689469A464FF0000B89B0DE
:10203000159F03920597DDE91246169B9B4524D018
:1020400005AB009332463B4651462846FFF7EDFC70
:10205000DDF81480B8F1FF3F36D0149B08EB030283
:102060001B4B920953F82220039B003A18BF012210
:102070009A4229D14346324621462846FFF7FCFCC6
:1020800008F101070BF1010BD7E70020179B1F6038
:10209000B8B9224649462846FFF7F6FE88B94946B0
:1020A000284606AAFFF7B2FF04EB060806AB444534
:1020B00007D014F8011B13F8012B9142F7D06FF0F1
:1020C000310009B0BDE8F08F6FF03100DEE700BFEE
:1020D00090030010F0B517461E46FF22012389B079
:1020E00005460C46FFF72EFF0346C8B94F2221468E
:1020F0002846FFF727FF98B92C234E222146284671
:10210000FFF720FF034658B9FF2221462846FFF774
:1021100019FF28B9B423B62221462846FFF712FF3B
:102120000021C4F82411A4F8281156B1134A01F172
:10213000B4039B0952F8233023B92C2902D0013172
:10214000F5E7314607ABB422CDE904730623CDE9A8
:10215000013204F5927303910093324621462846DA
:1021600004F59573FFF75CFF30B9012384F8137110
:1021700084F8153184F8146109B0F0BD90030010A3
:1021800013B5012491F85C110094FFF725FF003886
:1021900018BF0120404202B010BDF7B500238322D2
:1021A00005460E46FFF7CEFE044698B94FF4FA678F
:1021B0000DF10703832231462846FFF7E1FF9DF822
:1021C00007300446034313F0FF0F03D1013FEFD163
:1021D0006FF006040123832231462846FFF7B2FE42
:1021E000204340B203B0F0BD37B515460DF10703EB
:1021F00001220C46FFF7C4FF38B99DF8073084F878
:102200003031DB092B7084F84C3003B030BD002333
:1022100013B514468DF8073001220DF10703FFF7BF
:10222000AFFF78B99DF80730C3F300122270C3F3F3
:10223000C002A270C3F380026270C3F38012DB0994
:10224000E270237102B010BD13B51C462AB1012AF9
:1022500010D06FF0030002B010BD50220DF1070343
:10226000FFF78EFF0028F6D19DF8072001325200BB
:102270002270F0E770220DF10703F1E713B5144661
:102280000DF107031322FFF77BFF9DF8073013F0D2
:10229000180F18BF6FF0050003F00702226002B0AC
:1022A00010BD13B591F8DA301446042B09D101AAF8
:1022B000FFF7E4FF019B1A1F53425341237002B002
:1022C00010BD142201ABFFF75BFF0028F7D19DF88A
:1022D0000430DB0701D50123F0E72070EFE700238E
:1022E00073B505460E464FF4FA648DF80730314653
:1022F00028460DF10702FFF7D4FF58B99DF80730C3
:10230000012B07D0013C03D0022004F051F8EEE786
:102310006FF0060002B070BDF7B506460F46002507
:1023200001230B2239463046FFF70CFE00230446FA
:102330000B2239463046FFF705FE0DF10703044333
:10234000132239463046FFF71BFF9DF8073064B271
:10235000044301355B0760B2EDB205D0032D08D010
:102360000028DDD003B0F0BD032D08BF6FF00B00D7
:10237000F8E76FF00B00F5E770B542F001030022BB
:1023800004460D46FFF7DEFD90B929462046FFF7CB
:10239000A6FF68B9024629462046FFF7BDFF38B9B7
:1023A0000346024629462046BDE87040FFF7CABDF5
:1023B00070BD10B5134614460922FFF7E1FE18B9A7
:1023C000237803F00103237010BD0023F7B51746EF
:1023D0008DF80730FF22012305460C46FFF7B2FDBA
:1023E00068B90422214628460DF10703FFF7C8FE0D
:1023F00028B90346FF2221462846FFF7A3FD9DF892
:1024000007603E6056BB0123802221462846FFF725
:1024100099FD0123FF2221462846FFF793FD33460D
:10242000324621462846FFF78DFD9122214694F839
:102430003A312846FFF786FD0123324621462846D9
:10244000FFF780FD3346FF2221462846FFF77AFD3D
:102450003346802221462846FFF774FD03B0F0BDC5
:102460001FB51C460023ADF80C30022391F85C1117
:10247000009303ABFFF7B0FD30B99DF80C209DF839
:102480000D3003EB0223238004B010BD13B51446B6
:102490000DF106032822FFF7E3FF60B9BDF806300F
:1024A000C3F30B0213F4006F4FF0FA0318BFA2F549
:1024B00080525343236002B010BD37B515460DF16D
:1024C000060320220C46FFF7CBFF28B9BDF80630E3
:1024D00023B9236A2B60207703B030BDDB002B606B
:1024E000236201232377F7E737B50C461D46052AFB
:1024F0002CD8DFE802F0030717191B1B4A6B0020DA
:102500002A6021E044220DF10603FFF7A9FFD8B9A4
:10251000BDF8062053029AB12B60A363012384F80F
:10252000293011E0CA6BEAE70A6CE8E764220DF192
:102530000603FFF795FF38B9BDF806205202DEE723
:10254000A36B2B6084F8290003B030BD6FF003004B
:10255000FAE700002DE9FF410024022A07468846D9
:102560001D468DF80340ADF8044022D822460DF1F7
:102570000203FFF769FE30B94622414638460DF1A5
:102580000303FFF7FDFD9DF8023048499DF8034025
:1025900059434FF47A7301F5FA71B1FBF3F104FB7F
:1025A000011101F5FA74B4FBF3F42C6004B0BDE83A
:1025B000F081032A2CD122460DF10203FFF744FEDD
:1025C0000028F2D10246414638460DF10203FFF7DA
:1025D0003BFE28B951224146384601ABFFF740FF88
:1025E000BDF804309DF804401B0A9C4001349DF85E
:1025F0000220A3B22D4C54434FF47A7204F5FA74BE
:10260000B4FBF2F45C4304F5FA74B4FBF2F4CCE7E7
:10261000042A49D102AAFFF7FAFD9DF80B30C3B195
:102620002246414638460DF10203FFF70DFE70B910
:1026300001AB512241463846FFF712FFBDF8043086
:102640009DF804401B0A9C400134A4B210B1002341
:1026500018E01C460122414638460DF10203FFF7FF
:10266000F3FD0028F3D171220DF1060341463846EF
:10267000FFF7F6FEBDF806209DF80630120A9340DB
:1026800001339BB29DF80210084A1C1B4A434FF4C9
:102690007A7102F5FA72B2FBF1F2A4B2544304F576
:1026A000FA74B4FBF1F480E720467EE7002F3A008D
:1026B000F0B5002314464FF4FA6287B0CDE9022347
:1026C00040F6363304AA236007460E46FFF79FFD07
:1026D0000546002838D19DF811209DF8103013438D
:1026E0009DF8122013431AD002223146384602AB1D
:1026F000FFF730FF002842D19DF810302BB1029B2C
:1027000003F24E222368134423609DF81230F3B184
:10271000029B03F2B222236803EB420323609DF87D
:102720001330F3B99DF8143063B1042201AB314684
:102730003846FFF70FFF019B03F22622236813445C
:102740002360E0B923687361284607B0F0BD9DF8A7
:102750001130002BE3D0029B03F52572236813444C
:10276000DCE7032203AB31463846FFF7F3FE039B59
:1027700003F525722368134423600028D2D0054650
:10278000E2E70000F7B51F460E220DF106030546ED
:102790000E46FFF765FE0B4CBDF8063004EA4343D6
:1027A0003B6060B90DF106030C2231462846FFF765
:1027B00057FEBDF8063004EA4344089B1C6003B092
:1027C000F0BD00BF0000FE1F2DE9FF4191F8DA3097
:1027D0008046013B022B0F4615463AD803AB0093C7
:1027E000012202ABFFF7CEFF029B0646B3F57F0F37
:1027F00003D8039BB3F57F0F07D936B94DB13946DE
:102800004046154AFFF74AFB0646304605B0BDE88C
:10281000E0810423FF2239464046FFF793FB33460D
:102820000546702239464046FFF78CFB3346FF22AF
:10283000394605434046FFF785FB6DB233460543F5
:10284000802239464046FFF77DFB6DB2284346B2F1
:10285000DBE70026D9E700BFD701001073B50C46AF
:102860000546012380220E7CFFF76CFB0123FF222B
:1028700021462846FFF766FB002321461A462846D4
:10288000FFF760FB9122214694F83A312846FFF782
:1028900059FB0123002221462846FFF753FB002362
:1028A000FF2221462846FFF74DFB002380222146C8
:1028B0002846FFF747FB012E2AD0032E3AD0002EE0
:1028C00040D10123324621462846FFF73BFB012336
:1028D0008DF80730A0B102B070BD024621462846EF
:1028E0000DF10703FFF74CFC9DF807300136DB07BD
:1028F00008D538B9B6F5FA6FEFD16FF00600EAE700
:102900000646F1E7B6F5FA6F08BF6FF00600E2E79A
:1029100020B9324621462846FFF756FF02230022FF
:1029200021462846FFF70EFB0028D4D1042384F863
:102930003231D0E720B9012221462846FFF744FF73
:102940000423ECE76FF00700C5E770B50E7C054681
:102950000C462EB121462846FFF7C1FC28B170BDB8
:10296000FFF77CFF0028F5D0F9E7002EF7D103230D
:1029700084F83231F3E738B5002305460C461A4691
:10298000FFF7E0FA0123FF2221462846FFF7DAFA93
:10299000002321461A462846FFF7D4FA0023912245
:1029A00021462846FFF7CEFA012300222146284679
:1029B000FFF7C8FAFF22002321462846FFF7C2FA94
:1029C000024640B903232146284684F83231BDE847
:1029D0003840FFF7F9BE38BD2DE9F04F8FB00793AF
:1029E000D30805934FF2A1030024C2F3C30823FACE
:1029F00008F303F00103069391F8283082460D4650
:102A0000BDF860B0DDF86890ADF822400D940493F5
:102A1000F3B10DAB199A009309ABFFF7DFF802464B
:102A2000002840F0BA800D9B199950464B812946E9
:102A30000AABFFF759FD0A9C24B1099B9C422CBFAD
:102A40000024012428B10027BB463E46039748E0F6
:102A5000049C95F82A300393002B68D00222294663
:102A600050460BABFFF740FDA0B90123FF222946DA
:102A70005046FFF767FA68B9B622294650460DF16D
:102A80002203FFF7EDFC28B90346FF2229465046F2
:102A9000FFF758FABDF8226072020B9EC5F8482174
:102AA0001EB196422CBF00260126002878D195F849
:102AB0002B70002F3FD0BBF1000F03D0079B1B02F0
:102AC000B3FBFBFB0CAB032229465046FFF70CFD82
:102AD0000C9B73B35B4594BF4FF0000B4FF0010BA1
:102AE00050B399F800300BB9199A5381049A95F8AC
:102AF0002930002A08BF0124B8F1040F16BFB3FA29
:102B000083F301235B0985F82F30039B0020002B02
:102B100008BF0126002F08BF4FF0010B85F82E409B
:102B200085F8306085F831B00FB0BDE8F08F039EB6
:102B3000BDE79B46D4E7BB46069B1BB1FF2389F844
:102B40000030CEE708F1FF33022B01D80523F6E76A
:102B5000B8F1060F02D0B8F1090F01D10423EEE756
:102B6000059B03F00D03082B01D0012E01D1032397
:102B7000E5E7B8F1040F02D0BBF1010F01D1022348
:102B8000DDE7012C03D15E4689F80040A9E7002368
:102B900089F80030A3462646A3E727460394F9E7C1
:102BA0000027BB469DE70C232DE9F04290B000932F
:102BB000144606AB142207460D46FFF71EFA84465C
:102BC000002872D19DF81E209DF81F30A07520604E
:102BD000606003EB02239DF820009DF821209DF802
:102BE000226002EB002292B2520222619DF81B0089
:102BF0009DF81A209DF8231000EB022080B2A082DD
:102C000001EB06219BB2B5F852615B02E360B6F5B9
:102C10007A7F9DF8182095F831C189B20DD07143A3
:102C20004FF47A7695F81CE001F5FA71B1FBF6F1F4
:102C30002E6ABEF1000F3CD189B2BCF1000F46D024
:102C40008E1026818901E1750DF11701CDE9014151
:102C5000009029463846FFF7BFFE844628BB9DF802
:102C600017E005F1500684F818E009AF0FCE0FC742
:102C700096E80700E37D87E80700D4E90301A28A0C
:102C8000D4F808906468CDE90C01CDE90A49ADF8A3
:102C900038208DF83B308DF83CE0503509AC0FCC36
:102CA0000FC597E8070086E80700604610B0BDE84A
:102CB000F0821FFA86FE00FB0EFEB3EB2E2F4FEACA
:102CC0002E2607D1BCF1000F0AD148F6E021218160
:102CD0000021B8E789B259439E1BB1FBF6F1ABE77F
:102CE00042F2B821ACE7002370B50B7405460C46E0
:102CF0001646FFF72AFE60B9324621462846FFF7FE
:102D000052FF30B9024621462846BDE87040FFF721
:102D100003BB70BDF0B5C023174689B0012206463B
:102D20000C4691F83051FFF70DF918BB214630469B
:102D300001AAFFF7D8FFE8B90123FF222146304658
:102D4000FFF700F9B0B93B46B62221463046FFF7FF
:102D500087FB78B90346FF2221463046FFF7F2F899
:102D600040B92B46012221463046FFF7EBF808B95F
:102D700084F8305109B0F0BD032A2DE9FF41074620
:102D80000E4698462ED100220DF10503FFF75CFA9E
:102D90009DF805103D4B4FF47A724B434FF4FA61A6
:102DA00003F5FA73B3FBF1F1B3FBF2F302FB081185
:102DB000B1FBF3F1044689B23846FFF73BF803460E
:102DC000ADF80600A6F8D80044B95122314638467D
:102DD000FFF7CAF8044608B9C6F8E480204604B0F4
:102DE000BDE8F081042A4DD102AAFFF710FA9DF840
:102DF0000B50DDB10022314638460DF10503FFF7D7
:102E000023FA04460028E9D10DF106035122314688
:102E10003846FFF725FBBDF806309DF806501B0A23
:102E20009D4001350446ADB20028D7D1012231467C
:102E300038460DF10503FFF707FA04460028CDD107
:102E40009DF80510114A4FF47A734A434FF4FA6122
:102E500002F5FA72B2FBF1F1B2FBF3F203FB0811D7
:102E6000B1FBF2F138462944FEF7E4FF7122034634
:102E700031463846FFF778F804460028AED1C6F848
:102E8000DC80ABE76FF00304A8E700BF002F3A0037
:102E9000022A73B506460D461C4628D800220DF1BD
:102EA0000703FFF7D1F900BB9DF80730114A4FF433
:102EB0007A715A434FF4FA6302F5FA72B2FBF3F3F4
:102EC000B2FBF1F201FB0433B3FBF2F39AB2B2F5B9
:102ED000807F8EBFFF2303F1FF33DBB246222946FA
:102EE0003046A5F8D830FFF72DF802B070BDFFF7D7
:102EF00043FFFAE7002F3A002DE9FF411746002370
:102F00004FF4FA62CDE9002344F61F639F428046E6
:102F10000E4605D86FF00305284604B0BDE8F081E1
:102F200002AAFFF774F905460028F5D19DF809209B
:102F30009DF80830A7F6363413439DF80A20134352
:102F40001CD06B46022231464046FFF703FB0028A7
:102F50003DD19DF808302BB1009B03F24E239C42DB
:102F6000D8D9E41A9DF80A3033B3009B03F2B22398
:102F7000B4EB430F4FEA4302CCD9A41A9DF80B30AF
:102F800063B101AB032231464046FFF7E3FA019BF0
:102F900003F52573A342BDD2C8B9E41A9DF80C30DD
:102FA000002BB9D0042231464046A4F22623FFF775
:102FB000E3FE77610546AFE79DF80930002BDDD0D1
:102FC000009B03F525739C42A4D9E41AD6E7054675
:102FD000A2E7FFF791BF2DE9F74399460023144676
:102FE0008DF8073001220DF1070380460F46FFF7E9
:102FF000C7F80646F0B9B9F1010F9DF8075029D17D
:10300000042C3DD8DFE804F0031A1D20230045F00E
:103010001004A5420ED02346012239464046FEF751
:1030200091FF064630B9394640467A6987F8304103
:10303000FFF7CFFF304603B0BDE8F08345F028042A
:10304000E7E745F00404E4E745F04004E1E745F034
:103050008004DEE7042C13D8DFE804F00306090C33
:103060000F0005F0EF04D4E705F0D704D1E705F031
:10307000FB04CEE705F0BF04CBE705F07F04C8E70B
:103080006FF00306D6E7002307B5C022ADF806307F
:10309000D0F8D8110DF10603FFF7E2F94EF6AA6356
:1030A000BDF806209A4218BF4FF0FF3003B05DF81C
:1030B00004FB1FB51C4600230393042391F85C1105
:1030C000009303ABFEF788FF70B99DF80D209DF8C3
:1030D0000C30120402EB03629DF80E3002EB032267
:1030E0009DF80F301A44226004B010BD2DE9F04F56
:1030F0004FF0000A91F8F07091B0072F06460C4689
:103100009046CDE907AA00F0E58201238022FEF770
:1031100019FF01238146FF2221463046FEF712FFA8
:1031200053465246214649EA00093046FEF70AFF57
:103130004FFA89F90623FF22214649EA0009304661
:10314000FEF700FF4FFA89F98322214649EA000978
:103150000DF115033046FFF713F89DF815304FFABF
:1031600089F98322214649EA000943F004033046E5
:10317000FEF7E8FE4FFA89F90723FF22214649EAC4
:1031800000093046FEF7DEFE4FFA89F9012381225D
:10319000214649EA00053046FEF7D4FE6DB20543EC
:1031A000022003F005F90123802221463046FEF774
:1031B000C9FE6DB2054318F001036DB2019300F032
:1031C0005A82FB0700F15C826B2394222146304631
:1031D000FEF7B8FE214681463046FEF7DEFF90221C
:1031E000214649EA000906AB3046FFF762FF069B1D
:1031F00045EA0905C3F306226DB221460543009254
:1032000030469422C3F3C03A2423FEF79BFE6DB2EE
:10321000214605433046FEF7C0FF6DB2902221469D
:10322000054306AB3046FFF744FF069B6DB21BBA61
:10323000942221460543099330462523FEF782FE5A
:103240006DB2214605433046FEF7A7FF6DB29022CE
:10325000054306AB21463046FFF72BFF069B6DB2B8
:103260001A0E05431B0C6DB28DF828208DF82930FD
:1032700018F00203039300F0EE8017F0020940F00B
:10328000EA800223942221463046FEF75BFE214667
:1032900083463046FEF781FF902221464BEA000B21
:1032A0000DF116033046FEF76BFF45EA0B056DB2D4
:1032B0007B239422214605433046FEF743FE6DB240
:1032C000214605433046FEF768FF6DB29022214645
:1032D00005430DF117033046FEF752FF6DB2772319
:1032E0009422214605433046FEF72CFE6DB221465E
:1032F00005433046FEF751FF6DB29022214605434B
:1033000006AB3046FFF7D5FE069B6DB25A0E8DF820
:103310002C20C3F386428DF82D20C3F3C6228DF8EE
:103320002E20C3F30612DB0003F078032146054389
:103330008DF82F208DF81530942278233046FEF733
:1033400001FE6DB2214605433046FEF726FF6DB201
:1033500090222146054306AB3046FFF7AAFE069BA6
:103360009DF815206DB202EB53728DF83020C3F337
:1033700086528DF83120C3F3C6328DF83220C3F364
:1033800006228DF83320C3F346029B0103F040036D
:10339000214605438DF834208DF815309422792389
:1033A0003046FEF7CFFD6DB2214605433046FEF7AD
:1033B000F4FE6DB290222146054306AB3046FFF77E
:1033C00078FE069B9DF815206DB202EB93628DF896
:1033D0003520C3F3C6428DF83620C3F306328DF88C
:1033E0003720C3F346129B0003F07C0321460543BC
:1033F0008DF838208DF8153094227A233046FEF768
:10340000A1FD6DB2214605433046FEF7C6FE6DB202
:103410009022054306AB21463046FFF74AFE069B45
:103420009DF815206DB202EB93728DF83920C3F32D
:10343000C6528DF83A20C3F3064205438DF83B206F
:10344000C3F34622C3F386036DB28DF83C208DF89A
:103450003D308DF83E9018F00403029300F0138184
:10346000780700F110817B23942221463046FEF735
:1034700069FD214681463046FEF78FFE902249EADB
:103480000009214607AB3046FFF713FE45EA090560
:103490006DB27C239422214605433046FEF752FD4F
:1034A0006DB2214605433046FEF777FE6DB290229D
:1034B0002146054308AB3046FFF7FBFD6DB2732391
:1034C0009422214605433046FEF73CFD6DB221466D
:1034D00005433046FEF761FE6DB29022214605435A
:1034E00006AB3046FFF7E5FD069B6DB29422214600
:1034F00005434FEA032930467423FEF723FD6DB2DE
:10350000214605433046FEF748FE6DB29022214623
:10351000054306AB3046FFF7CCFD9DF81B301FFA84
:1035200089F96DB294222146054343EA09093046E0
:103530007523FEF707FD6DB2214605433046FEF7C1
:103540002CFE6DB290222146054306AB3046FFF7B4
:10355000B0FD069B6DB21B029422214605431FFA63
:1035600083FB30467623FEF7EDFC6DB22146054322
:103570003046FEF712FE6DB2054306AB902221469F
:103580003046FFF796FD6DB29DF81B3005436DB2D6
:1035900043EA0B0B0023812221463046FEF7D2FC82
:1035A0000623FF22214605433046FEF7CBFC6DB2D1
:1035B0008322214605430DF115033046FEF7E0FD59
:1035C0009DF815306DB283222146054303F0FB03BD
:1035D0003046FEF7B7FC6DB20123FF2221460543BA
:1035E0003046FEF7AFFC6DB20123002221460543B1
:1035F0003046FEF7A7FC6DB20023FF2221460543AB
:103600003046FEF79FFC6DB2054300238022214621
:103610003046FEF797FC6DB205436DB23DBB019B92
:10362000ABBB039B002B45D1029BE3B17B071AD4B4
:10363000079BC4F81831089BC4F81C314FEA492392
:10364000C4F82031BBF1000F0BD0ABF5C8534FF4D9
:103650007A7B0BFB03FB4FEA1B1BCBF1000B0FFA32
:103660008BFBC4F80CB047EA080784F8F0702846D2
:1036700011B0BDE8F08FDDF804A0CDF800A0F7E5AB
:10368000CDF800A0F4E54FF00009CB4682E7F9073A
:10369000C7D4009B84F814A184F8133109AA04F557
:1036A000957304F5987112F8010B03F8010B994218
:1036B000F9D1B6E7BA07B7D49DF816300BA984F84C
:1036C000F1309DF8173004F1F30084F8F23005F082
:1036D000FDFAA9E75546CAE7F8B5174602220E4695
:1036E0001C46FFF703FD054640B996F8F13004F19A
:1036F00040002BB905493D7005F0E8FA2846F8BDB1
:1037000096F8F23006F1F3013B70F5E75342010001
:1037100073B5134614460DF1070205460E46FFF732
:10372000DBFF10BB9DF807300BBB1749204605F0A7
:10373000CDFA164904F1200005F0C8FAC02231463E
:10374000284604F16003FEF71BFD70B90DF1060376
:10375000C22231462846FEF713FD012384F861306A
:103760009DF806301B0984F8623002B070BD222B30
:1037700003D8202B03D00649D8E7262B01D80549CA
:10378000D4E70549D2E700BFE84201002143010028
:10379000F4420100004301000C43010073B51546DB
:1037A0000DF10203F82206460C46FEF759FE78B9E1
:1037B00004222146304601ABFFF77BFC40B9BDF83F
:1037C00002201AB1019BB3FBF2F32B602B68A361BB
:1037D00002B070BD2DE9F0470B7C144602F8083B9F
:1037E00006460D46FFF7DAFF60BB207329463046D8
:1037F00004F11002FEF761FE20BB2946304604F1B9
:103800001402FEF743FEE8B9074604F1240A05F165
:10381000280904F11808534629463046BAB2FEF783
:1038200063FE78B919F8013B0137062F08F8013B10
:103830000AF1040AEFD12946304604F13C02FEF7B2
:10384000D3FC08B1BDE8F08729463046221DBDE80B
:10385000F047FEF72DBF2DE9FF414FF001081C4650
:103860000023CDF800800D468DF80F3091F85C11E3
:103870000DF10F0306461746FEF7AEFB88B99DF81B
:103880000F309DF828201C40144330463A4695F8E6
:103890005C11CDF800800DF10F038DF80F40FEF79D
:1038A000D9FA40B204B0BDE8F0812DE9F04F4FF0F5
:1038B000000B85B090461F46FF22012305460E46A9
:1038C0009DF844A09DF848908DF80FB0FEF73AFBA4
:1038D0005B4604465A4631462846FEF733FB5B46B4
:1038E0000443FF2231462846FEF72CFB64B2044312
:1038F00064B2B8F1000F37D0BAF1000F07D0CB2275
:10390000314628460F9BFEF73BFC044364B2B9F1F5
:10391000000F08D0EE22314628460DF10F03FEF7C6
:103920002FFC044364B231460123FF222846FEF7F0
:1039300009FB31460123002204432846FEF702FB1F
:1039400064B20023FF22314604432846FEF7FAFA08
:1039500064B29DF80F30109A204323F0100340B258
:10396000137005B0BDE8F08FBAF1000F07D03B46E9
:10397000CB2231462846FEF7E5FA044364B2B9F19A
:10398000000FD0D09DF83830EE22009331468023CE
:103990002846FFF760FFC4E72DE9F0479A46002369
:1039A00088B09DF8409006460D4617468DF81F30AA
:1039B000B9F1000F26D091F83081012329461A462B
:1039C0003046FEF7BFFA044670BB40222946304617
:1039D000FEF7D2FC044638BBBAF1010F14D10DF149
:1039E0001F03CDE903A0CDE90173009003465246C1
:1039F00029463046FFF759FF38B10446204608B043
:103A0000BDE8F087C846D8E73870B9F1000FF5D0A7
:103A10004346012229463046FEF794FA0446002820
:103A2000ECD185F83081E9E7002320463B70E4E7DC
:103A30002DE9F04788B09DF8409006460D461746A0
:103A40009A46B9F1000F26D091F830810223012265
:103A500029463046FEF776FA044670BB02462946F0
:103A60003046FEF789FC044638BBBAF1010F14D189
:103A70000DF11F03CDE90003CDE9030A03465246C9
:103A8000294630460297FFF710FF38B1044620461A
:103A900008B0BDE8F087C846D8E73870B9F1000F24
:103AA000F5D04346012229463046FEF74BFA04463C
:103AB0000028ECD185F83081E9E7002320463B70EF
:103AC000E4E72DE9F0431F46002387B017F0010912
:103AD00006460D4690468DF80B3004D132B9A7F159
:103AE0000C03062B5FD96FF003006AE0012A20D097
:103AF0007C10013CE4B2B8F1000F00F0C780B8F1CF
:103B0000010FF0D104222946304603ABFEF722FD17
:103B100060B92346702229463046FEF713FA28B9C9
:103B2000042229463046039BFFF726F985F8E0700A
:103B3000D0E0A7F10803062BD5D8082F50D11023C9
:103B40004822FEF7FFF93B46472229463046FEF75A
:103B5000F9F902230446322229463046FEF7F2F9EB
:103B60000C233022294604433046FEF7EBF964B2B9
:103B700043460443FF2229463046FEF7E3F930234B
:103B800064B2044364B2302229463046FEF7DAF9C3
:103B90004B460443FF2229463046FEF7D3F964B270
:103BA000204340B20BE00C2F0ED118235722FEF712
:103BB000C9F90823562229463046FEF7C3F90028E2
:103BC00096D007B0BDE8F0830E2F01D13023EDE78A
:103BD000102F01D14023E9E7122F89D15023E5E7C7
:103BE0000A2F24D128234822FEF7ACF908234722C4
:103BF00029463046FEF7A6F9032304463222294619
:103C00003046FEF79FF90923044364B23022294667
:103C10003046FEF797F943460443FF2229463046D3
:103C2000FEF790F964B20443202364B2ABE70C2F93
:103C300014D138234822FEF785F908234722294664
:103C40003046FEF77FF903230446322229463046E8
:103C5000FEF778F90443082364B2D7E70E2F7FF408
:103C600047AF48231A46FEF76DF908234722294635
:103C70003046FEF767F903230446322229463046D0
:103C8000FEF760F90443072364B2BFE70322294625
:103C9000304604ABFEF75EFCD0B90222294630461E
:103CA00005ABFEF757FC98B923465022294630460B
:103CB000FEF748F960B9032229463046049BFFF716
:103CC0005BF828B9022229463046059BFFF7E0F849
:103CD00085F8E87000287FF474AF294630466A6999
:103CE000FFF70AF900287FF46CAF012329460093FF
:103CF0000DF10B0203463046FFF79AFE61E72DE90E
:103D0000F3411E4600239DF8208091F83071009306
:103D1000434605460C46FFF73FFE80B900904346F8
:103D2000324621462846FFF783FE40B93B46012232
:103D300021462846FEF706F908B984F8307102B02A
:103D4000BDE8F0812DE9F04F93B0CDE909230023C0
:103D5000FF22CDE90E338DF834308DF83530C1F8BF
:103D60002431A1F82831012306460D46B1F83C81E3
:103D7000FEF7E8F80446002840F0028103464F228F
:103D800029463046FEF7DEF80446002840F0F88069
:103D90002C234E2229463046FEF7D4F8044600284C
:103DA00040F0EE800346FF2229463046FEF7CAF86F
:103DB0000446002840F0E480B423B6222946304669
:103DC000FEF7C0F80446002840F0DA80034680225F
:103DD00029463046FEF7B6F80446002840F0D08069
:103DE0000090294630460DF135030DAAFFF787FFF5
:103DF0000446002840F0C48003230E90CDE903035D
:103E00000623B42005F5957A05F592790EAFCDE934
:103E1000013022465346294630460597CDF800909A
:103E2000FEF7FEF80446002840F0AA800E9B2946C3
:103E300030460DF136020693FEF76CFF044600286B
:103E400040F09E80BDF83620069B424540F2C0807F
:103E50006349C5F82401A5F8280103F1B4029209C9
:103E600051F822209AB14FF0030BB421CDE9033B66
:103E700006230122CDE901313046534629460597F4
:103E8000CDF80090FEF7CCF828B1044678E02B2B53
:103E9000E9D80133E1E70E9B294630460DF13602A1
:103EA0000693FEF737FF0746002840F08C80BDF8E8
:103EB0003620069B424540F28E8001270697BDF8CA
:103EC000362042456ED24FF0030BA2EB0802D9F820
:103ED0000000B9F80410002AB8BF52429DF81870CB
:103EE0001090ADF8441008920FAA00925146062295
:103EF0003046FDF79AFD0F9B5A1C66D0384903F1F6
:103F0000B402920951F822200699003A18BF012202
:103F10008A4247D10BF101020792494606223046F8
:103F20000B93FDF7A9FD0028AFD14A46294630463C
:103F3000FDF7AAFF0028A8D1294630460DF1360228
:103F4000FEF7E8FE0028A0D1BDF836100B9BA1EBD0
:103F50000802002AB8BF5242414515D9089B9A422F
:103F60001ED910AA29463046FDF78EFF0346BDF83C
:103F700044201098A5F82821C5F8240193B11C46C7
:103F8000204613B0BDE8F08FD5F82401B5F828110C
:103F9000DDF81CB001331090ADF844100892A3E78F
:103FA000DDF81CB0099BC3F800B00A9B1F70012309
:103FB00085F81531099B1B6885F813310A9B1B781E
:103FC00085F81431DCE70446DAE76FF03104D7E70F
:103FD0000027BB4672E70122834606926FE700BFC7
:103FE0009003001013B501240094FFF788FE02B07F
:103FF00010BDF7B5152A06460D461C469DF82070E3
:1040000076D10123FF22FDF79DFF002304461A46C7
:1040100029463046FDF796FF0023FF222946044338
:104020003046FDF78FFF64B2012380222946044306
:104030003046FDF787FF64B20223852229460443F8
:104040003046FDF77FFF64B20423FF222946044374
:104050003046FDF777FF64B20023CD2229460443A2
:104060003046FDF76FFF64B21123CC22294604438A
:104070003046FDF767FF64B20723FF222946044359
:104080003046FDF75FFF64B20023BE222946044399
:104090003046FDF757FF64B20623FF22294604434A
:1040A0003046FDF74FFF64B20923CC222946044372
:1040B0003046FDF747FF64B20023FF222946044340
:1040C0003046FDF73FFF64B20123FF222946044337
:1040D0003046FDF737FF002364B204431A462946F1
:1040E0003046FDF72FFF64B2204340B203B0F0BD6D
:1040F000042B1AD80A22FDF725FF0028F6D1002F3D
:1041000018BF1027EF238422294630460097FFF777
:10411000A2FB0028EAD102462946304685F8DA405B
:1041200003B0BDE8F040FEF7F7B86FF00A00DDE736
:10413000F0B597B00D4607464022002106A804F0CE
:1041400029F80023012229463846ADF80E308DF8B3
:104150000B308DF80C300493FEF7C8FF95F814313E
:10416000012B06D895F8132140F0BC80202A40F29C
:10417000BB802946384603AB04AAFFF7E3FD04469B
:10418000002840F0AC8095F85031002B40F0B18011
:10419000D5F84C2129463846FDF780FE0446002814
:1041A00040F09D8022460094042329463846FFF7BC
:1041B00020FF0446002840F092800123FF22294678
:1041C0003846FDF7BFFE8422064629460DF10E0350
:1041D0003846FEF745F923460643FF22294638466E
:1041E000FDF7B0FE76B2304344B2002C77D1BDF873
:1041F0000E3029461B013846C5F8D43006AAFFF711
:10420000E9FA044600286AD1294638460DF10B0226
:10421000FEF7CFF80446002861D19DF80B3005F178
:10422000100406AE85F831310FCE0FC40FCE0FC487
:104230000FCE0FC496E80F0084E80F000122294634
:1042400038460DF10B03FDF79BFF0446002846D1CD
:104250009DF80B30024685F8303129460346384632
:10426000FEF7B9FE0446D0BB034602222946384673
:10427000FEF7B1FE044690BB0323024685F83231B7
:10428000294638460DF10D03FDF7DEFF044630BB2D
:104290009DF80D30012285F8E830294638460DF1A9
:1042A0000D03FDF7D1FF0446C8B99DF80D30032278
:1042B00085F8E0302946384605ABFEF74BF9044651
:1042C00068B9059B0422C5F8E4302946384605AB99
:1042D000FEF740F9044610B9059BC5F8DC302046CE
:1042E00017B0F0BD0C2A42E729463846FDF7F2FE2A
:1042F00045E7014A4EE700BFE4000010052AF7B584
:104300000C4617461D4638D863B101EB82030026E0
:1043100001225B6B791E042907D8DFE801F00E1833
:104320001B1E26001A460126F4E784F828203C4488
:10433000FDB984F82850002007E044222146C3F349
:104340004F23FDF711FE0028F1D003B0F0BD84F833
:104350002A20ECE784F82B20E9E7FE23760000967C
:1043600060222146FFF777FAEDE73601EF2300964A
:10437000F6E7012384F82830DDE76FF00300E4E777
:104380002DE9F041002392B088220D460646FDF744
:10439000D9FD4FF47A72A5F852214FF4C872002368
:1043A000A5F85421544A2946C5F85821534A3046A5
:1043B000C5F8D42085F8F0302B6202AAFFF70AFA7C
:1043C000044688B9ADF8080005F1100C02AF0FCF14
:1043D000ACE80F000FCFACE80F000FCFACE80F0038
:1043E00097E80F008CE80F00454B0127C5F83431E2
:1043F0004FF4FA73A5F838314FF420638022294630
:10440000A5F83C3130463B4685F85071FDF79AFDE2
:104410003B468046FF2229463046FDF793FD0023A8
:1044200048EA00001A46294604433046FDF78AFD53
:1044300064B29122294604430DF107033046FDF78B
:104440009FFE9DF8073064B200222946044385F898
:104450003A3130463B46FDF775FD64B20023FF223A
:10446000294604433046FDF76DFD64B20443002342
:10447000802229463046FDF765FD64B220430024C2
:1044800040B2B0BBA2B20123294630460134FFF747
:1044900035FF062CF5D160BB04460346688504222F
:1044A00029463046FFF72AFF18BB03460522294656
:1044B0003046FFF723FFE0B94FF4901301226B63FE
:1044C00029464FF480433046FDF75CFD88B94FF430
:1044D0000C13C5E90F30FF23012285F8303129463E
:1044E0003046FDF72FFD012385F8323108B985F8F4
:1044F000154112B0BDE8F081856B0100A470090080
:104500006400840308B5D0F8D811FFF739FF08BD5F
:10451000002373B505460E464FF4FA640193314605
:10452000284601AAFDF751FF019B3BB130B902209B
:1045300001F03EFF013CF2D16FF0060002B070BD09
:10454000F7B5C46E05460E46002C36D023680133FD
:1045500004D124224449454801F0FAFD23696268E8
:104560001A600A2001F024FFEC6E002C2FD0236883
:10457000013304D124223C493C4801F0E9FDE368C1
:1045800062681A600A2001F013FF00238DF80430DE
:104590002B6828465B6801A998470446002858D133
:1045A0002F4657F8783B284639461B6898470446FB
:1045B000B8B12F4803F064FE4BE0006F0028D0D064
:1045C0004379102BCDD02146FDF70CFAC9E7286FAF
:1045D0000028D7D04379102BD4D00121FDF702FA5F
:1045E000D0E739462A1D2846FFF792F8214803F004
:1045F0008FFE2846D5F8D811FFF79AFDB8B91E48A6
:1046000003F086FE2846D5F8D8110DF103030DF10D
:104610000202FFF7E7FC50B9184803F079FE28467C
:10462000D5F8D8110DF1010301AAFFF78BFB044661
:1046300008B11348BEE7522E0ED032462846D5F8B0
:10464000D811FDF78DFC044660B9D5F8D83183F850
:104650005C61204603B0F0BD0A4803F011FE6FF024
:104660000304F6E70848A5E7E441010023420100FE
:10467000294301004A430100664301008D430100C4
:10468000B7430100D4430100EB430100F0B5032917
:1046900005460E46174689B040F08B80436F0124D3
:1046A0002BB9474803F034FE204609B0F0BDD0F8DE
:1046B000D811FEF760F92246009404232846D5F865
:1046C000D811FFF796FC0646044670B9686F40B1F2
:1046D0003C4B002F049718BF1F4604A9079701F011
:1046E000EBFB686F08B101F09AFB17222846D5F85A
:1046F000D811FDF711FE002ED6D10122D5F8D83100
:104700001A742846D5F8D811FEF7A8F844E000221C
:10471000D5F8D8311A74D5F8D831324683F82860E4
:10472000D5F8D8113346FFF7E9FD04460028BBD180
:1047300041F6991332462846D5F8D811FDF722FCE8
:1047400004460028B0D14FF47013D5F8D81148F2C0
:10475000E80228464B63FEF7CFFB04460028A3D1AE
:10476000024612232846D5F8D811FFF7AAF90446C5
:10477000002899D10E2332462846D5F8D811FFF7E4
:10478000A0F9044600288FD12846D5F8D81104ABEB
:104790000DF10F02FFF726FC044685E70A4803F0F7
:1047A000B7FD0122D5F8D83108481A7403F0B0FDDE
:1047B000A7E70129ABD00229F0D0002474E700BF9D
:1047C0000B4401004D19000018440100364401005B
:1047D0000129F8B505460E46174616D1D0F8D8116E
:1047E000FEF781FA04462046F8BD032E01D00024CE
:1047F000F9E7D5F8D811FEF7D6F91B220446D5F80B
:10480000D8112846FDF788FDEDE70229EDD1D5F84E
:10481000D811FDF764FD04460028E4D13A46D5F8E6
:10482000D8112846FEF7BFF904220446D5F8D8115E
:104830002846FDF771FD304601F0BAFDD3E70000D0
:104840000239012910B5044618D80D4803F060FD5F
:104850002046D4F8D811FEF78EF870B9094803F055
:1048600057FD2046D4F8D811FFF752FE28B904228C
:104870002046D4F8D811FDF74FFD10BD0020FCE70D
:10488000574401007744010070B500220E4688B0FD
:1048900001210546FFF7FAFE044628B90121284602
:1048A00001AAFFF795FF04469DF81C304BB9BDF8EF
:1048B0000C30012128463360FFF7C2FF204608B0C4
:1048C00070BD00236FF00504F3E7022330B585B017
:1048D00000930446027912230D46006803A9FDF7F0
:1048E00062F801226179BDF80C308A4092B26DB94C
:1048F00023EA0203ADF80C300223227900932068EA
:10490000122303A9FDF72FF805B030BD1343F1E7DB
:1049100030B504460846114610291A4685B0206075
:10492000237161712CD00125142303A90095FDF793
:104930003AF8152322790DF10D0120680095FDF755
:1049400032F86379BDF80C2005FA03F31343ADF890
:104950000C302279142303A920680095FDF703F891
:1049600015232279206800950DF10D01FCF7FBFF5E
:104970006379102B04D020469DF82010FFF7A5FF87
:10498000204605B030BD07B50B4611460222009205
:10499000027A0068FCF7E7FF03B05DF804FB1FB57F
:1049A000802304468DF80F3001232160227200938A
:1049B000084603230DF10F01FCF7D5FF2246002323
:1049C000204622F8043F1421FFF7DDFF22464FF670
:1049D000FF732046122122F8063FFFF7D4FF20463E
:1049E00004B010BD70B51D46124B026703609DF800
:1049F00010306A1C80F8D4314FF0010380F8D531B3
:104A00004FF4C873A0F8D63100F17803C0F8D8315C
:104A10004FF0000304468166C36609D0482000F0C9
:104A20003FFB0646294601F01BFA6667204670BD2B
:104A30004367FBE79844010010B5C46E7CB123685E
:104A4000013304D124220B490B4801F081FB236977
:104A500062681A600A20BDE8104001F0A9BC006F2E
:104A60000028F7D04379102BF4D02146FFF72DFF13
:104A7000F0E700BFE44101002342010030B5022508
:104A80000446084685B00095C4E9001200230A7A5E
:104A900000680DF10E01FCF786FF60680DF10E0154
:104AA000027A009500230068FCF77DFF4FF6FF7344
:104AB00020680DF10E021421ADF80E30FFF763FFF0
:104AC0004BF6FF7360680DF10E021421ADF80E3045
:104AD000FFF759FF43F6FF7320680DF10E02122114
:104AE000ADF80E30FFF74FFF606812210DF10E0296
:104AF000FFF749FF204605B030BD2DE9F7430446D6
:104B000001600C2098460D46914600F0C9FA064611
:104B100029468622FFF743FF26610C2000F0C0FAE9
:104B2000064629468422FFF73AFF6661082000F016
:104B3000B7FAD4E904120546FFF7A0FF6562082022
:104B400000F0AEFA01270546216884230F22009762
:104B5000FFF7DEFEA5614FF4EE7000F0A1FA5226D9
:104B600005464B46A26921680096FFF73BFF65604A
:104B7000082000F095FA0546216886230E2200974A
:104B8000FFF7C6FEE5614FF4EE7000F089FA0546C6
:104B90004346E26921680096FFF724FFA5600820DC
:104BA00000F07EFA0546216886230F220097FFF762
:104BB000AFFE25624FF4EE7000F072FA0A9B226A93
:104BC000216800960546FFF70DFF2046E56003B01B
:104BD000BDE8F0832DE9F7430B4C99462368064660
:104BE0000F4690465BB9282000F05AFA0546434626
:104BF0003A463146CDF80090FFF77FFF25602068E8
:104C000003B0BDE8F08300BF681E001070B5044615
:104C10004068FFF711FFA068FFF70EFFE068FFF79D
:104C20000BFF54216068FFF78BFC002840D06068C0
:104C300010B10368DB689847A06910B1082101F042
:104C4000B1FE002521486560A56103F019FB5621DE
:104C5000A068FFF775FC00282FD0A06810B103688A
:104C6000DB689847E06910B1082101F09BFE002342
:104C70001748A360E36103F003FB5821E068FFF7E6
:104C80005FFC0646F0B1E06810B10368DB68984746
:104C9000206A10B1082101F085FE0023B5FA85F6DF
:104CA0000C48E360236203F0EBFA7609304670BDEE
:104CB000094803F0E5FA0125C9E7084803F0E0FADE
:104CC0000135DAE7064803F0DBFAEFE7AC44010010
:104CD000E044010010450100C8440100FA4401000D
:104CE0002B45010010B50C4CA268A4681346B4F122
:104CF000805F0CD2131F094A53F8044F42F8044F47
:104D0000074CA242F8D1044A4FF080539360103010
:104D100043F8201010BD00BF00ED00E0FCFFFF0FC6
:104D2000C000001038B50368044601330D4604D1B5
:104D300005480649242201F00BFA63680DB1E268C8
:104D400000E02269136038BD2342010042450100A2
:104D500000B599B001F020FA68461B4901F0A7FAA6
:104D600006A81A4901F0A3FA0CA8194901F09FFA04
:104D700012A8184901F09BFA68460121FFF7D2FFFB
:104D800006A80021FFF7CEFF0CA80021FFF7CAFFFD
:104D900012A80121FFF7C6FF962001F009FB684623
:104DA0000021FFF7BFFF06A80121FFF7BBFF0CA8FA
:104DB0000121FFF7B7FF12A80021FFF7B3FF9620EC
:104DC00001F0F6FAD8E700BF32C0092034C009204C
:104DD00035C0092037C0092030B505460C46A1B0C2
:104DE00001F0DAF929466846224608F01FFE051E42
:104DF00003DC01F0FBF921B030BD094B1B6823B97E
:104E000008480949094A00F009FE00241DF8041069
:104E10000448013400F066FDAC42F7D1E9E700BF79
:104E20007C1F0010A42B001002C0092003C0092021
:104E30000FB407B504A951F8040B0191FFF7CCFF9B
:104E400003B05DF804EB04B0704770B50446036826
:104E50005B6A9847236820461B6900210122984716
:104E6000431C0646236804D120469B6A9847304677
:104E700070BD1B6920460021022298472368054621
:104E8000314600221B6920469847236820469B6ACA
:104E90009847284670BD000008B5084B1B685BB9F1
:104EA00007480849084A00F0B9FD05484FF4165173
:104EB000BDE8084000F094BB08BD00BF7C1F001097
:104EC000A42B001002C0092003C0092002284FF0C3
:104ED000000309DD0749C21E51F8220041F82230C3
:104EE00020B103685B681847184670474FF0FF30E1
:104EF000704700BF781E0010022870B50C4615469A
:104F00000FDC0E4B1B680BB9FFF7C6FF6619B442E6
:104F100005D00B4814F8011B00F0E4FCF7E7284625
:104F200070BD084B033853F8200020B1BDE8704035
:104F300003681B6818474FF0FF3070BD7C1F0010DE
:104F4000A42B0010781E0010022810B50C460ADCB5
:104F50000B4B1B680BB9FFF79FFF0A4800F07EFC64
:104F60002070012010BD084B033853F8200020B1F9
:104F7000BDE8104003689B6818474FF0FF3010BD34
:104F80007C1F0010A42B0010781E0010022807DDE3
:104F9000064B033853F8200020B10368DB6818473C
:104FA000012070474FF0FF30704700BF781E00109F
:104FB000022807DD064B033853F8200020B10368B0
:104FC0001B691847002070474FF0FF30704700BF43
:104FD000781E0010022808B504D84FF400534B6027
:104FE000002008BD01F0F0FC092303604FF0FF3002
:104FF00008BD08B5012001F0EDFC08B5FBF768FA23
:1050000008BD7047704708B5FFF7FCFFFFF7F9FFD1
:10501000BDE80840FBF70EB90C4A10B513681844F8
:10502000EFF30881884205D3094B0C221A604FF038
:10503000FF3010BD0749096821B1074C246821449D
:105040008842F1D21060184610BD00BFA0030010C6
:10505000AC2B0010741E0010781F0010094C08B50E
:1050600023680546986801F0CDFD2368D86801F0F3
:10507000C9FD01F01FF908B101F06EF90DB1FFF79C
:1050800067FEFEE7A8030010002103F0AFBB08B5E0
:10509000FBF72CFA08BD08B5FBF730FA08BD000095
:1050A00010B502F0A1FC044610B9024801F062F804
:1050B000204610BDC845010008B102F09DBC7047F4
:1050C000034653F8042B10B5044602B90360226866
:1050D0009A4204D003480449542201F039F8206868
:1050E00010BD00BF04460100184601000B4B10B56F
:1050F000036004460A48FFF7E3FF0023094A52F819
:105100002310A14204BF002142F823100133402B99
:10511000F4D10348FFF7D4FF204610BD78460100C4
:105120006C1E0010781E00102DE9F34188463649A8
:10513000054603F0EDFC044610B9FFF7ADFE5EE056
:105140002846324903F0E4FC18B9FFF7A5FE012414
:1051500055E028462E4903F0DBFC18B9FFF79CFE0A
:1051600002244CE02B48FFF7ABFF00242A4E56F8F0
:105170002430374633B10134402CF7D12548FFF7AE
:105180009FFF3AE04FF0FF33224846F82430FFF704
:1051900097FF2B783A2B06D1284620496A4603F020
:1051A00017FC009824E06846294600F059FD68463F
:1051B00000F098FD10B946F824001EE0684600F0A3
:1051C0007FFD18B1684600F084FD11E0684600F0EC
:1051D00070FD054610B946F824000EE003686846E5
:1051E0009E6800F05BFD28F4803201462846B047F7
:1051F00047F8240008B1033401E04FF0FF342046A3
:1052000002B0BDE8F08100BFAF450100614601007A
:10521000B64501006C1E0010781E00105D460100AE
:105220000649074A074B9A42BEBF51F8040B42F8A1
:10523000040BF8E704488047044800475C5301002A
:10524000C8000010680D0010655200005D010000EC
:10525000FEE7FEE7FEE7FEE7FEE7FEE7FEE7FEE726
:10526000FEE7FEE7264B2022C3F8A021D3F8A021B9
:10527000900603D5D3F8A0215106FBD50222C3F82E
:1052800004210022C3F8A8210120C3F8AC210B227D
:10529000C3F80C01AA21C3F884205522C3F88C104E
:1052A000C3F88C20C3F88000C3F88C10C3F88C209E
:1052B000134BD3F888205201FAD50322C3F880207B
:1052C000AA22C3F88C205522C3F88C20D3F888106A
:1052D0000B4A11F0407FF9D00523C2F80831094B81
:1052E000C2F8C4300023C2F8C831136823F47043F5
:1052F00023F03A0343F4405343F03A0313607047FA
:1053000000C00F40DE872804431C10B5044604D1BA
:1053100006480749152200F01BFF2046002100F037
:1053200043F804F01F040120A04010BD28420100F2
:10533000A446010038B505464B1C0C4629600FD029
:105340000846FFF7E1FF24F01F0404F11803EB60A7
:1053500004F11C032B6104F1140368606B61AC6001
:1053600038BD006800F048B838B50368044601331A
:105370000D4604D10A480B492C2200F0E9FE15B174
:10538000012D06D038BDA2686168136823EA0103C5
:1053900003E0A268636811680B43136038BD00BF67
:1053A00023420100A446010038B5431C04460D46C3
:1053B00004D10F480F49152200F0CAFE04F16040E5
:1053C000A0F51C2003099B0003F1804303F5303353
:1053D00000F00F02520018680321914020EA0101F9
:1053E00019601868954045EA0001196038BD00BF92
:1053F000284201000347010038B5431C05460C460E
:1054000004D118481849202200F0A2FE05F160409E
:10541000A0F51C2043099B0003F1804303F53033C2
:105420009D6EC4F3800200F01F0102FA01F125EA2B
:1054300001059D669D6E2943996692B903099B00FB
:1054400003F1804303F5303300F00F025200186C73
:105450000321914020EA01011964196C94400C4326
:105460001C6438BD2842010003470100012810B523
:1054700002D0022811D010BD0346382251431148F2
:1054800042184058E8B113B992F83620CAB1BDE8C5
:1054900010400D4A1946126810470A48382303FB8A
:1054A00001035868013005D018699C68046093F8BE
:1054B00036300BB10023E0E7506820F00100506067
:1054C000DBE710BD841F0010801F0010034A00217D
:1054D0009068C0F34200FFF7C9BF00BF00C00040A2
:1054E000034A01219068C0F34200FFF7BFBF00BF2D
:1054F00000000140034A02219068C0F34200FFF718
:10550000B5BF00BF00800940034A03219068C0F383
:105510004200FFF7ABBF00BF00C0094070B5284B89
:1055200004689C4211D006DCA3F580439C4212D152
:10553000244D052311E0244B9C4209D003F5804300
:105540009C4208D1214D082307E0214D062304E0A9
:10555000204D072301E000252B4672B16268012629
:1055600006FA01F10A4362605CB220462946FFF761
:10557000B9FB194BA6401E6070BD01290AD04568D1
:10558000164A382606FB052292F8365030325279F8
:10559000D54213D1012202FA01F6B1FA81F1656810
:1055A000490925EA06056560006802FA01F14068CC
:1055B000014202BF9A40084BC3F8802070BD00BF73
:1055C00000000140CD540000008009400955000052
:1055D000E1540000F554000000E100E0841F0010D9
:1055E0002DE9F04F0268734B8DB09A4206460F4684
:1055F00004DD714871499B2200F0AAFD3368704AAE
:10560000934223D00FDCA2F58042934239D16D4BF7
:10561000D3F8A82122F0C002C3F8A821D3F8A8210A
:1056200042F040021DE0684A93421DD002F58042DC
:10563000934226D1634BD3F8AC2122F44022C3F825
:10564000AC21D3F8AC2142F4802218E05D4BD3F8B2
:10565000A82122F44072C3F8A821D3F8A82142F46B
:105660008072C3F8A8210CE0564BD3F8AC2122F489
:105670004032C3F8AC21D3F8AC2142F48032C3F8F5
:10568000AC21524B3D01D3F800B0BBFBF5F305FB59
:1056900013B51FFA83F9002D53D04FEA4B0305933E
:1056A0004FF0010A4FEA8B03069303935346059A82
:1056B0000197CDF808B00497002501995FFA8AFC9C
:1056C0004FF00008002A5FFA88F00790ABBF0398FC
:1056D000B2FBF1F4B0FBF1F42409A8BF6409013472
:1056E000C4F34F04002C49D0B8F1000F02D0012CB4
:1056F00098BF022408EB0A0060430893029BC00095
:10570000B3FBF0F00130C7EB5000CDF82CC00A918C
:10571000099201F049F9049B099A98420A99089B59
:10572000DDF82CC005DAB8422ED06346A146079DAD
:10573000049008F101085FFA88F060453944C1D34C
:1057400026E00123316845EA03150A7BEDB242F0F9
:1057500080020A733268C9F30721117132685FFA57
:1057600089F982F80090326882F828503268137BF9
:1057700003F07F0313730DB0BDE8F08FB8F1000F95
:1057800014BF02240124B5E76346079DA146D9E76B
:10579000BAF10F0FD6D00299069859440291059993
:1057A0000AF1010A0A440399014403910199394419
:1057B000019182E700C00940F0470100094801005B
:1057C0000000014000C00F4000800940A403001009
:1057D000F8B55E1E012E07460C46154604D914483E
:1057E0001449FB2200F0B4FC053C032C04D91248F8
:1057F0001049FC2200F0ACFC042D04D90F480D49DF
:10580000FE2200F0A5FC013DEDB2032D87BF002272
:1058100011460B4B012198BF5A5744EA860343EACD
:10582000C104386844EA0214E4B20473F8BD00BF4E
:105830006A480100094801008F480100B248010090
:1058400046490100034B1960416838234B43024924
:10585000CA507047801F0010841F0010024610B508
:1058600001680B7DDB07FCD50B785268D8B2084B7A
:10587000382404FB02335A6801321FBF5A699B68FF
:1058800013604B681CBF43F001034B6010BD00BFA9
:10589000841F00104268124B382101FB0233D96982
:1058A00003F11802013109D01B6B19689368194282
:1058B00014D10368187DC0F380107047026830333C
:1058C000127D12F0200F03D000221A7101207047C0
:1058D00018790F288CBF00200120704700207047E6
:1058E000841F001038B504460D462046FFF7D2FF4E
:1058F0000028FAD02368EDB21D706268044B38218D
:1059000001FB023393F83420013283F8342038BD90
:10591000841F00102DE9F84F9A463C4C0368054659
:10592000A34218BF00248846914647681CB1237CD7
:1059300003F03F032374364E382202FB07634FF017
:10594000FF31D96159606B68002102FB036328466F
:1059500083F835100A46FFF7E1FDB8F1000F52D089
:105960002C49484600F0D6FC2B498346504600F0AF
:10597000D1FCA8F10203012B17D8BAF1FF3F3FD0A9
:10598000224B984209D144B1237C504643F0800316
:105990002374214900F090FC32E0382000FB0760BE
:1059A00051461C3000F069FC2AE0B8F1010F2AD101
:1059B000B9F1FF3F27D02B6807221A72134B9B4582
:1059C0000AD14CB1237C484643F04003237411496B
:1059D000BDE8F84F00F070BC382404FB076049466E
:1059E0000430002200F04CFC6B68012204FB0366CB
:1059F00086F835202846BDE8F84F0021FFF78EBD18
:105A0000B8F1030FD3E7BDE8F88F00BF00000140F5
:105A1000841F001060470100B84901002DE9F843D8
:105A200005460F4608464D49164600F07FFC4C4996
:105A30000446304600F07AFC0146204600F058FC4F
:105A4000411C044604D1474847495C2200F080FBD2
:105A5000464B2C609C4217D009D8A3F580439C424A
:105A60001FD1434AD2F8C43043F0080317E0414B3A
:105A70009C420FD003F580439C4212D13C4AD2F89D
:105A8000C43043F000730AE0394AD2F8C43043F01E
:105A9000100304E0364AD2F8C43043F08073C2F8F1
:105AA000C4304FF0010984F808902B684FF00008CB
:105AB000C3F8048028464FF41651FFF791FD424683
:105AC0004B4628460821FFF783FE3846234900F05D
:105AD000F3FB3046224900F0EFFB7A1C03D0384636
