:100000000C942B0E0C94530E0C94530E0C94530E14
:100010000C94530E0C94530E0C94530E0C94530EDC
:100020000C94530E0C94530E0C94530E0C94530ECC
:100030000C94530E0C94530E0C94530E0C94530EBC
:100040000C94530E0C94530E0C94530E0C94530EAC
:100050000C94530E0C94530E0C94530E0C94530E9C
:100060000C94530E0C94530E0C94530E0C94530E8C
:100070000C94530E0C94530E0C94530E0C94530E7C
:100080000C94530E0C94530E0C94530E0C94530E6C
:100090000C9468190C94F2190C94CC190C94530E0E
:1000A00000407A10F35A00A0724E18090010A5D42F
:1000B000E80000E87648170000E40B54020000CA8C
:1000C0009A3B000000E1F5050000809698000000D2
:1000D00040420F000000A086010000001027000031
:1000E0000000E803000000006400000000000A00B7
:1000F000000000000100000000002C76D888DC67BA
:100100004F0823DFC1DFAE59E1B1B796E5E3E45311
:10011000C63AE651997696E8E6C28426EB898C9B2E
:1001200062ED407C6FFCEFBC9C9F40F2BAA56FA5CE
:10013000F490055A2AF75C936B6CF9676DC11BFC50
:10014000E0E40D47FEF520E6B500D0ED902E03006B
:10015000943577050080841E080000204E0A0000B8
:1001600000C80C333333330F986E12831141EF8D77
:100170002114893BE65516CFFEE6DB18D1844B38B7
:100180001BF77C1D901DA4BBE424203284725E22E8
:100190008100C9F124ECA1E53D270000000000002A
:1001A000000000000000000000000000000000004F
:1001B000000000000000000000000000000000003F
:1001C0000000000007000700070007000700070005
:1001D0000700020002000000000007000700000006
:1001E00000000000000000000000000000001CE013
:1001F0001CE01CE00840084008400000000000002F
:1002000000000000000000000000000000000000EE
:1002100000000CC00CC00CC00CC00CC03FF03FF084
:100220000CC00CC03FF03FF00CC00CC00CC00CC0A8
:100230000CC000000000000000000300030007E005
:100240000FE0186018001F000FC000E01860186071
:100250001FC01F8003000300030000000000000017
:10026000000000001C002200220022001C6001E0AF
:100270000F803C0031C002200220022001C000009B
:10028000000000000000000000000000000000006E
:1002900003E00FE00C000C0006000F301FF019E027
:1002A00018C01FF007B000000000000000000000B0
:1002B00000000000000003800380038001000100B3
:1002C000010000000000000000000000000000002D
:1002D00000000000000000000000000000C000C09E
:1002E000018001800180030003000300030003007C
:1002F000030001800180018000C000C000000000F8
:10030000000000000C000C000600060006000300C0
:1003100003000300030003000300060006000600BC
:100320000C000C00000000000000000003000300AF
:1003300003001B601FE0078007800FC00CC0000097
:1003400000000000000000000000000000000000AD
:100350000000000000000000030003000300030091
:100360003FF03FF003000300030003000000000023
:10037000000000000000000000000000000000007D
:10038000000000000000000000000000000000006D
:1003900003800300030006000600040000000000C4
:1003A000000000000000000000000000000000004D
:1003B0003FE03FE0000000000000000000000000FF
:1003C000000000000000000000000000000000002D
:1003D000000000000000000000000000000000001D
:1003E0000380038003800000000000000000000084
:1003F00000000060006000C000C000C001800180FB
:1004000003000300060006000C000C000C0018009E
:100410001800000000000000000000000F801FC056
:1004200018C0306030603060306030603060306004
:1004300018C01FC00F800000000000000000000076
:100440000000000003001F001F0003000300030062
:10045000030003000300030003001FE01FE000008F
:100460000000000000000000000000000F801FC01E
:1004700038E03060006000C00180030006000C001E
:1004800018003FE03FE00000000000000000000016
:10049000000000000F803FC030E0006000E007C0B7
:1004A00007C000E00060006060E07FC03F800000A7
:1004B00000000000000000000000000001C003C0B8
:1004C00003C006C00CC00CC018C030C03FE03FE005
:1004D00000C003E003E00000000000000000000096
:1004E000000000001FC01FC0180018001F801FC0A0
:1004F00018E000600060006030E03FC01F80000036
:1005000000000000000000000000000003E00FE019
:100510001E001800380037803FC038E0306030607F
:1005200018E01FC00780000000000000000000006D
:10053000000000003FE03FE03060006000C000C00D
:1005400000C001800180018003000300030000005F
:100550000000000000000000000000000F801FC02D
:1005600038E0306038E01FC01FC038E030603060D5
:1005700038E01FC00F8000000000000000000000F5
:10058000000000000F001FC038C03060306038E04D
:100590001FE00F6000E000C003C03F803E0000008D
:1005A000000000000000000000000000000000004B
:1005B00000000000038003800380000000000000B2
:1005C00003800380038000000000000000000000A2
:1005D00000000000000000000000000001C001C099
:1005E00001C00000000000000380030006000600B8
:1005F00004000000000000000000000000000000F7
:10060000003000F003C007001C0078001C00070049
:1006100003C000F0003000000000000000000000F7
:100620000000000000000000000000007FF07FF0EC
:10063000000000007FF07FF00000000000000000DC
:1006400000000000000000000000000000000000AA
:1006500030003C000F00038000E0007800E00380E1
:100660000F003C003000000000000000000000000F
:100670000000000000000F801FC0186018600060BC
:1006800001C0038003000000000007000700000015
:1006900000000000000000000000000003800C804B
:1006A00008401040104011C012401240124011C0CA
:1006B0001000080008400780000000000000000053
:1006C0000000000000001F801F80038006C006C0DD
:1006D0000CC00C601FE01FE03030787878780000A4
:1006E00000000000000000000000000000003F804B
:1006F0003FC01860186018E01FC01FE01870183065
:1007000018303FF03FE00000000000000000000053
:1007100000000000000007B00FF01C7038303000FF
:1007200030003000300038301C700FE007C000008F
:1007300000000000000000000000000000007F80BA
:100740007FC030E03070303030303030303030709A
:1007500030E07FC07F80000000000000000000004B
:100760000000000000003FF03FF018301830198002
:100770001F801F801980183018303FF03FF00000B4
:1007800000000000000000000000000000003FF03A
:100790003FF01830183019801F801F801980180012
:1007A00018003F003F0000000000000000000000B3
:1007B00000000000000007B01FF01870303030005B
:1007C000300031F831F8303018301FF007C0000029
:1007D00000000000000000000000000000003CF0ED
:1007E0003CF01860186018601FE01FE01860186087
:1007F00018603CF03CF00000000000000000000029
:100800000000000000001FE01FE0030003000300E1
:10081000030003000300030003001FE01FE00000CB
:10082000000000000000000000000000000003F8CD
:1008300003F800600060006000603060306030608D
:1008400030E03FC00F80000000000000000000000A
:100850000000000000003EF83EF818E019801B0080
:100860001F001D8018C018C018603E783E38000078
:1008700000000000000000000000000000003F0039
:100880003F000C000C000C000C000C000C300C3075
:100890000C303FF03FF000000000000000000000BE
:1008A0000000000000007878787838703CF034B0B0
:1008B00037B037B03330333030307CF87CF800005C
:1008C000000000000000000000000000000039F0FF
:1008D0003DF01C601E601E601B601B6019E019E08B
:1008E00018E03EE03E600000000000000000000054
:1008F00000000000000007800FC01CE0387030309E
:1009000030303030303038701CE00FC007800000CD
:1009100000000000000000000000000000003FC0D8
:100920003FE018701830183018701FE01FC0180012
:1009300018003F003F000000000000000000000021
:1009400000000000000007800FC01CE0387030304D
:1009500030303030303038701CE00FC0078007B0C6
:100960000FF00CE0000000000000000000003FC09D
:100970003FE01870183018701FE01FC018E01860B2
:1009800018703E383E180000000000000000000013
:100990000000000000000FB01FF038703030380049
:1009A0001F8007E00070303038703FE037C0000033
:1009B00000000000000000000000000000003FF008
:1009C0003FF03330333033300300030003000300C3
:1009D00003000FC00FC00000000000000000000076
:1009E0000000000000003CF03CF018601860186047
:1009F00018601860186018601CE00FC007800000C5
:100A0000000000000000000000000000000078F07E
:100A100078F03060306018C018C00D800D800D80F7
:100A200007000700070000000000000000000000B1
:100A30000000000000007C7C7C7C301833983398E8
:100A4000339836D816D01C701C701C7018300000FB
:100A5000000000000000000000000000000078F02E
:100A600078F0306018C00D80070007000D8018C0B6
:100A7000306078F078F00000000000000000000016
:100A80000000000000003CF03CF018600CC0078043
:100A9000078003000300030003000FC00FC0000025
:100AA00000000000000000000000000000001FE047
:100AB0001FE0186018C001800300030006000C60EE
:100AC00018601FE01FE000000000000000000000B0
:100AD0000000000003C003C0030003000300030084
:100AE00003000300030003000300030003000300EE
:100AF00003C003C0000000000000180018000C0034
:100B00000C000C00060006000300030001800180B9
:100B100000C000C000C000600060000000000000D5
:100B2000000000000F000F0003000300030003009B
:100B3000030003000300030003000300030003009D
:100B40000F000F000000000000000000020007007E
:100B50000D8018C030602020000000000000000060
:100B60000000000000000000000000000000000085
:100B70000000000000000000000000000000000075
:100B80000000000000000000000000000000000065
:100B9000000000000000FFFCFFFC00000400030058
:100BA00000800000000000000000000000000000C5
:100BB0000000000000000000000000000000000035
:100BC0000000000000000000000000000FC01FE057
:100BD00000600FE01FE0386030E03FF01F70000061
:100BE0000000000000000000000000007000700025
:100BF0003000300037803FE0386030303030303007
:100C000038607FE0778000000000000000000000F6
:100C100000000000000000000000000007B01FF00E
:100C2000183030303000300038301FF00FC0000076
:100C300000000000000000000000000000700070D4
:100C40000030003007B01FF01870303030303030D6
:100C500038701FF807B80000000000000000000016
:100C600000000000000000000000000007801FE0FE
:100C700018603FF03FF0300018301FF007C0000050
:100C800000000000000000000000000003F007F07A
:100C9000060006001FE01FE0060006000600060032
:100CA00006001FE01FE00000000000000000000040
:100CB00000000000000000000000000007B81FF85E
:100CC000187030303030303018701FF007B00030FE
:100CD00000700FE00FC00000000000003800380076
:100CE000180018001BC01FE01C6018601860186016
:100CF00018603CF03CF00000000000000000000024
:100D00000000000003000300000000001F001F009F
:100D1000030003000300030003001FE01FE00000C6
:100D200000000000000000000000000003000300BD
:100D3000000000001FC01FC000C000C000C000C0F5
:100D400000C000C000C000C001C03F803F000000E4
:100D50000000000038003800180018001BE01BE0FD
:100D60001B001E001E001B00198039F039F0000026
:100D70000000000000000000000000001F001F0035
:100D8000030003000300030003000300030003004B
:100D900003001FE01FE00000000000000000000052
:100DA0000000000000000000000000007EE07FF076
:100DB000333033303330333033307BB87BB80000DE
:100DC0000000000000000000000000000000000023
:100DD000000000003BC03FE01C6018601860186015
:100DE00018603CF03CF00000000000000000000033
:100DF00000000000000000000000000007801FE06D
:100E0000186030303030303018601FE0078000004C
:100E100000000000000000000000000000000000D2
:100E20000000000077807FE03860303030303030B4
:100E300038603FE03780300030007C007C000000EC
:100E400000000000000000000000000007B81FF8CC
:100E5000187030303030303018701FF007B000306C
:100E6000003000F800F80000000000000000000062
:100E7000000000003CE03DF00F300E000C000C00C4
:100E80000C003FC03FC00000000000000000000058
:100E900000000000000000000000000007E01FE06C
:100EA00018601E000FC001E018601FE01F800000E6
:100EB00000000000000000000000000000000C0026
:100EC0000C000C003FE03FE00C000C000C000C009C
:100ED0000C300FF007C00000000000000000000010
:100EE00000000000000000000000000038E038E0D2
:100EF000186018601860186018E01FF00F7000008C
:100F000000000000000000000000000000000000E1
:100F10000000000078F078F0306018C018C00D8034
:100F20000D80070007000000000000000000000026
:100F300000000000000000000000000078F078F0E1
:100F40003260326037E01DC01DC018C018C00000FC
:100F50000000000000000000000000000000000091
:100F6000000000003CF03CF00CC00780030007804C
:100F70000CC03CF03CF0000000000000000000004D
:100F800000000000000000000000000078F078F091
:100F9000306018C018C00D800F80070006000600E2
:100FA0000C007F007F000000000000000000000037
:100FB000000000001FE01FE018C0018003000600D1
:100FC0000C601FE01FE000000000000000000000B7
:100FD0000000000001C003C0030003000300030081
:100FE000030007000E0007000300030003000300D6
:100FF00003C001C000000000000000000300030067
:1010000003000300030003000300030003000300C8
:1010100003000300030003000300030000000000BE
:10102000000000001C001E0006000600060006006E
:101030000600070003800700060006000600060001
:101040001E001C0000000000000000000000000066
:101050000000000000000E003F3033F001E000000F
:101060000000000000000000000000000000000080
:101070000000000000000000000000000000000070
:101080000000000000000000000000000000000060
:10109000000000000C000C000C000C000C000C0008
:1010A0000C000C0000000C0000000000000000001C
:1010B0000000000000001DC01DC0088008800880DE
:1010C0000000000000000000000000000000000020
:1010D000000000000D800D800D800D803FC01B00C2
:1010E0003FC01B001B001B001B0000000000000095
:1010F000000004001F803180318038001E000F0086
:101100000380318031803F000400040000000000B3
:101110000000000018002400240018C007801E00F2
:101120003180024002400180000000000000000009
:101130000000000000000F001800180018000C004C
:101140001D80370033001D800000000000000000FB
:10115000000000000000070007000200020002007B
:10116000000000000000000000000000000000007F
:10117000000000000300030006000E000C000C003D
:101180000C000C000E00060003000300000000002D
:1011900000000000180018000C0006000600060001
:1011A0000600060006000C001C00180000000000ED
:1011B00000000000060006003FC03FC00F001F8077
:1011C0001980000000000000000000000000000086
:1011D00000000000000000000400040004003F8044
:1011E00004000400040000000000000000000000F3
:1011F00000000000000000000000000000000000EF
:1012000000000000060004000C00080008000000B8
:1012100000000000000000000000000000003F800F
:1012200000000000000000000000000000000000BE
:1012300000000000000000000000000000000000AE
:10124000000000000C000C00000000000000000086
:10125000000000C000C00180018003000300060000
:101260000C000C00180018003000300000000000D6
:10127000000000000E001B00318031803180318081
:10128000318031801B000E000000000000000000D3
:101290000000000006003E000600060006000600F2
:1012A0000600060006003FC000000000000000002D
:1012B000000000000F00198031803180030006001B
:1012C0000C00180030003F8000000000000000000B
:1012D000000000003F006180018003001F000380C8
:1012E0000180018061803F000000000000000000DC
:1012F00000000000070007000F000B001B00130098
:1013000033003F8003000F80000000000000000059
:10131000000000001F801800180018001F00118036
:101320000180018021801F000000000000000000FB
:101330000000000007801C001800300037003980D2
:101340003180318019800F00000000000000000093
:10135000000000007F0043000300060006000600B6
:1013600006000C000C000C00000000000000000053
:10137000000000001F003180318031801F0031806B
:101380003180318031801F0000000000000000002B
:10139000000000001E0033003180318033801D804A
:1013A0000180030007003C00000000000000000076
:1013B000000000000000000000000C000C00000015
:1013C000000000000C000C00000000000000000005
:1013D0000000000000000000000003000300000007
:1013E00000000000060004000800080000000000E3
:1013F00000000000000000C00300040018006000AE
:1014000018000400030000C00000000000000000FD
:101410000000000000000000000000007FC000008D
:101420007FC000000000000000000000000000007D
:10143000000000000000600018000400030000C06D
:10144000030004001800600000000000000000001D
:101450000000000000001F00318031800180070083
:101460000C000C0000000C00000000000000000058
:10147000000000000E0011002100210027002900BB
:1014800029002700200011000E00000000000000CD
:101490000000000000003F000F00090019801980C3
:1014A0001F8030C030C079E0000000000000000064
:1014B0000000000000007F003180318031803F005B
:1014C0003180318031807F0000000000000000008A
:1014D0000000000000001F4030C06040600060005D
:1014E0006000604030801F0000000000000000002D
:1014F0000000000000007F00318030C030C030C0EC
:1015000030C030C031807F000000000000000000CB
:101510000000000000007F803080308032003E00FC
:101520003200308030807F8000000000000000002A
:101530000000000000007FC03040304032003E001C
:101540003200300030007C0000000000000000008D
:101550000000000000001E8031806080600060009C
:1015600067C0618031801F000000000000000000A3
:101570000000000000007BC03180318031803F805E
:101580003180318031807BC000000000000000000D
:101590000000000000003FC0060006000600060034
:1015A0000600060006003FC000000000000000002A
:1015B0000000000000001FC0030003000300030040
:1015C0006300630063003E000000000000000000B4
:1015D0000000000000007BC03180330036003C007A
:1015E0003E003300318079C00000000000000000A0
:1015F0000000000000007E0018001800180018000D
:101600001840184018407FC0000000000000000093
:10161000000000000000E0E060C071C07BC06AC054
:101620006EC064C060C0FBE000000000000000006D
:1016300000000000000073C0318039803D8035809B
:101640003780338031807980000000000000000086
:101650000000000000001F00318060C060C060C05A
:1016600060C060C031801F0000000000000000006A
:101670000000000000007F00318031803180318027
:101680003F00300030007E0000000000000000003D
:101690000000000000001F00318060C060C060C01A
:1016A00060C060C031801F000CC01F8000000000BF
:1016B0000000000000007F003180318031803E005A
:1016C0003300318031807CE0000000000000000029
:1016D0000000000000001F803180318038001F00B2
:1016E0000380318031803F000000000000000000D6
:1016F0000000000000007F804C804C804C800C007B
:101700000C000C000C003F00000000000000000076
:101710000000000000007BC03180318031803180CA
:101720003180318031801F00000000000000000087
:101730000000000000007BC0318031801B001B00D6
:101740001B000A000E000E00000000000000000058
:10175000000000000000FBE060C064C06EC06EC00E
:101760002A803B803B8031800000000000000000A8
:101770000000000000007BC031801B000E000E0046
:101780000E001B0031807BC0000000000000000044
:1017900000000000000079E030C019800F00060052
:1017A0000600060006001F80000000000000000088
:1017B0000000000000003F8021802300060004009C
:1017C0000C00188030803F80000000000000000006
:1017D0000000000007800600060006000600060064
:1017E0000600060006000600060007800000000054
:1017F000000030003000180018000C000C0006003B
:10180000030003000180018000C000C00000000050
:10181000000000001E00060006000600060006008C
:10182000060006000600060006001E00000000007C
:10183000000004000A000A0011002080208000003F
:101840000000000000000000000000000000000098
:101850000000000000000000000000000000000088
:101860000000000000000000000000000000000078
:10187000FFE008000400020000000000000000007B
:101880000000000000000000000000000000000058
:10189000000000000000000000001F000180018027
:1018A0001F80318033801DC0000000000000000058
:1018B000000000007000300030003700398030C078
:1018C00030C030C039807700000000000000000008
:1018D000000000000000000000001E8031806080D9
:1018E0006000608031801F000000000000000000E8
:1018F000000000000380018001801D803380618032
:101900006180618033801DC0000000000000000085
:10191000000000000000000000001F00318060C0D7
:101920007FC0600030C01F80000000000000000089
:101930000000000007E00C000C003F800C000C00D1
:101940000C000C000C003F800000000000000000B4
:10195000000000000000000000001DC03380618016
:101960006180618033801D80018001801F00000044
:1019700000000000700030003000370039803180F6
:101980003180318031807BC0000000000000000009
:10199000000000000600060000001E000600060011
:1019A0000600060006003FC0000000000000000026
:1019B000000000000600060000003F0003000300D6
:1019C0000300030003000300030003003E000000C7
:1019D00000000000700030003000378036003C000E
:1019E0003C003600330077C000000000000000001B
:1019F000000000001E0006000600060006000600AB
:101A00000600060006003FC00000000000000000C5
:101A1000000000000000000000007F8036C036C0DB
:101A200036C036C036C076E000000000000000007E
:101A300000000000000000000000770039803180C5
:101A40003180318031807BC0000000000000000048
:101A5000000000000000000000001F00318060C096
:101A600060C060C031801F00000000000000000066
:101A7000000000000000000000007700398030C046
:101A800030C030C039803700300030007C000000AA
:101A9000000000000000000000001DC033806180D5
:101AA0006180618033801D800180018007C000005B
:101AB000000000000000000000007B801CC0180037
:101AC0001800180018007F0000000000000000004F
:101AD000000000000000000000001F8031803C007A
:101AE0001F00038031803F00000000000000000064
:101AF000000000001800180018007F0018001800EF
:101B00001800180018800F000000000000000000FE
:101B10000000000000000000000073803180318070
:101B20003180318033801DC00000000000000000C3
:101B3000000000000000000000007BC03180318008
:101B40001B001B000E000E00000000000000000043
:101B500000000000000000000000F1E060C064C070
:101B60006EC03B803B803180000000000000000020
:101B7000000000000000000000007BC01B000E0001
:101B80000E000E001B007BC00000000000000000E3
:101B90000000000000000000000079E030C0198063
:101BA00019800B000F00060006000C003E0000002C
:101BB000000000000000000000003F8021800300C2
:101BC0000E00180030803F80000000000000000080
:101BD0000000000006000C000C000C000C000C00C3
:101BE00018000C000C000C000C00060000000000A7
:101BF00000000000060006000600060006000600C1
:101C000006000600060006000600060000000000B0
:101C1000000000000C00060006000600060006009A
:101C2000030006000600060006000C00000000008D
:101C300000000000000000000000000018002480E8
:101C40000300000000000000000000000000000091
:101C500000003B1A602311241FBECFEFCDBFDFE38E
:101C6000DEBF29E2ACE1B8E201C01D92A135B207A6
:101C7000E1F718E2A0E0B8E2E6ECF5E502C0059075
:101C80000D92AC31B107D9F71EE0CAE2DEE004C024
:101C90002197FE010E94F027C932D107C9F70E949F
:101CA000C41A0C94F7290C940000FC01548945894E
:101CB000252F30E0842F90E0821B930B541710F0F7
:101CC000CF96089501970895FC019289838998170A
:101CD00061F0A389AE0FBF2FB11D59968C919389E6
:101CE0009F5F9F73938B90E008958FEF9FEF089510
:101CF000FC0192898389981731F08389E80FF11DDF
:101D0000818D90E008958FEF9FEF0895FC019289F7
:101D10002389892F90E0805C9F4F821B91098F73EC
:101D200099270895CF93DF93EC01E881F98106802C
:101D3000F781E02D0995EC85FD8586818F7386837B
:101D4000EC85FD8585818F7585838B898A8B198AC2
:101D5000DF91CF910895CF93DF93FC01948985891A
:101D6000C485D585981306C08D818F7D8D83DF91C5
:101D7000CF910895A589AE0FBF2FB11DA75ABF4FB0
:101D80002C91858990E001968F739927858B80E44B
:101D90008C83A485B58512962C9394898589981394
:101DA000E6CFA485B58515968C9115978F7D1596F0
:101DB0008C9387898823D9F2808D80931301178AA9
:101DC000D6CFDC011C96ED91FC910FB607FE03C047
:101DD000258125FD04C0248125FD0C94AB0E0895BA
:101DE000EF92FF920F931F93CF93DF93EC0181E06B
:101DF000898B9C898D8998131CC0AC85BD851496F0
:101E00008C91149785FF15C012966C93AC85BD8597
:101E100080E414968C93EC85FD8585818F7D858388
:101E200081E090E0DF91CF911F910F91FF90EF90B3
:101E300008958091110180FF08C080911301888F5F
:101E40008E898093130181E08F8BF62E0C8910E030
:101E50000F5F1F4F0F731127E02E8D898E1104C065
:101E6000CE010E94E10EF9CFEC89EC0FFD2FF11DA0
:101E7000E75AFF4FF0820C8BEC85FD8585818062EF
:101E8000CECFCF93DF93FC0121892223C9F0EC014F
:101E90008091110180FF08C080911301808F868995
:101EA0008093130181E0878BEC85FD85858185FD1D
:101EB00003C0848186FD04C0CE010E94E10EF4CFF0
:101EC000DF91CF910895CF93DF9390E0FC01EC5820
:101ED000FB4620812F3F69F0FC01E65AFB46E0817A
:101EE00030E2E39FF0011124FC5F6130710521F4C1
:101EF0002183DF91CF910895805C9B46EC01A881FE
:101F0000AF3F69F0CF014096A80FB92FB11D9FB721
:101F1000F89422838C9188608C939FBFEACFB0E0C5
:101F2000A0E0F5CF282F30E0F901EA5DFB46E08123
:101F3000EE2309F1E13021F0F0F0E63098F0089559
:101F40004091010A205C3B46F90120812C5F81E031
:101F500090E001C0880F2A95EAF78095842380934A
:101F6000010A089580E1E89FF0011124E05AF54F3D
:101F700081818F7E81830895FF920F931F93CF936A
:101F8000DF93082F10E0F801EC58FB46F0809FEF3C
:101F9000F916A1F0EB018B3210F40E94920FF801B8
:101FA000E65AFB46E08180E2E89FF0011124FC5FE5
:101FB00080818F2159F0CD2B39F4F682DF91CF91BA
:101FC0001F910F91FF900895F582F8CFD801A05C82
:101FD000BB468C91309771F08F3F61F07096E80F9F
:101FE000F11D9FB7F8948081CD2B39F4877F8083D2
:101FF0009FBFE4CFF0E0E0E0F4CF8860F8CF0F932C
:102000001F93CF938B32E8F4082F10E0F801EC58BF
:10201000FB46C081CF3FA9F00E94920FF801E65A1B
:10202000FB46E08180E2E89FF0011124FC5F80859F
:10203000C82381E090E009F480E0CF911F910F91D7
:10204000089580E090E0F9CF8B3210F40C94BC0F2F
:1020500008958B3210F40C94630F0895CF92DF92A1
:10206000EF92FF920F931F93CF93DF93EC016A01DE
:102070007B01022F8989882339F0E881F981028860
:10208000F389E02DCE01099598898091E205892B8D
:102090008093E2051FB7F89460E070E281EA97E070
:1020A000A70196010E947E2769017A018FEFC81A65
:1020B000D80AE80AF80AF694E794D794C794EC850E
:1020C000FD8586818D7F8683EC85FD85868186836F
:1020D000198AA09123110A2E000CBB0BA7019601AF
:1020E0000E94BF2720E034E040E050E00E94A0279B
:1020F000EC85FD85C20ED31EE41EF51EC086D1867A
:10210000EC85FD850783EC85FD858681806C868363
:10211000EC85FD858581806885838E8562E070E031
:102120000E9429108F8561E070E00E9424108F8545
:1021300061E070E00E9429101FBFDF91CF911F91D5
:102140000F91FF90EF90DF90CF900895EF92FF9264
:102150000F931F93CF93DF93E82EF12CF701E05CF0
:10216000FB4610811F3F09F440C0EB01082F61E0DE
:1021700070E00E9429101C161D065CF070E060E003
:10218000802FDF91CF911F910F91FF90EF900C94D2
:102190002410CF3FD10521F01CF061E070E0F0CFBA
:1021A000F701EA5DFB46E081E13039F010F0E630FE
:1021B00018F1C038D1058CF7E1CF812F90E0FC01F8
:1021C000EE0FFF1FE85CF54FC083D1832091010A19
:1021D000049641E050E0BA0102C0660F771F8A956D
:1021E000E2F7CB01822B8093010ADF91CF911F91FF
:1021F0000F91FF90EF90089570E1E79FF001112497
:10220000E05AF54FC587818180618183EECFCF93FE
:10221000DF938FB7F89420914A2830914B28409152
:102220004C2850914D28E091BA0A9091B60A90FF3F
:1022300006C02F5F3F4F4F4F5F4FE091BA0A8FBFED
:10224000A0914828B0914928C0914628D0914728AC
:102250000E94E926EC9F9001ED9F300D1124620F42
:10226000731F811D911DDF91CF9108958F929F92D1
:10227000AF92BF92CF92DF92EF92FF924B015C013F
:102280000E9407116B017C01A8EEB3E0A501940147
:102290000E94E926C60ED71EE81EF91EC616D706EE
:1022A000E806F90618F40E940711F8CF0E940711FA
:1022B0006C157D058E059F05C8F3FF90EF90DF90AC
:1022C000CF90BF90AF909F908F900895AF92BF92A4
:1022D000CF92DF92EF92FF920F931F93CF93DF93F2
:1022E0006C017B018B01040F151FEB015E01AE1821
:1022F000BF08C017D10759F06991D601ED91FC9143
:102300000190F081E02DC6010995892B79F7C5016F
:10231000DF91CF911F910F91FF90EF90DF90CF90C1
:10232000BF90AF900895E7E4F9E244815581608160
:10233000718182E698E20C94661181E00895089517
:10234000EF92FF920F931F93CF93DF937C01EB01EA
:102350008B01040F151FC017D10759F0D701ED915C
:10236000FC910480F581E02D6881C701099589936E
:10237000F2CFDF91CF911F910F91FF90EF900895D1
:102380000F931F93CF93DF93EC018B018091C008D3
:10239000E881F9810480F581E02D86FD13C0612F6D
:1023A000CE010995182FE881F9810480F581E02D8F
:1023B000602FCE010995082FC801DF91CF911F91A1
:1023C0000F910895CE010995082FE881F9810480C5
:1023D000F581E02D612FCE010995182FEDCF00007A
:1023E0006093C4088091C30887FFFCCF8091C40824
:1023F00008958F929F92AF92BF92CF92DF92EF9209
:10240000FF920F931F93CF93DF93FC018085882366
:1024100019F081FF0EC07894DF91CF911F910F9139
:10242000FF90EF90DF90CF90BF90AF909F908F90F4
:10243000089580FFF1CF82849384A484B584C12C55
:10244000D12C760110E09401A501B601C701A0E0EE
:102450000E94E42799F1217030E040E050E060E014
:1024600070E080E090E00E94E427D9F0D0E0C0E086
:10247000103370F4C12FC695C695C69580E2C89FEB
:10248000E0011124C05FDB4F812F8770C80FD11D81
:10249000CF01810F911DDC0152968C919881892B7F
:1024A00088839401A501B601C70101E00E94C927F4
:1024B00049015A016B017C011F5FC5CF8684978457
:1024C000A088B188C12CD12C760110E29401A5011D
:1024D000B601C701A0E00E94E42709F49DCF217056
:1024E00030E040E050E060E070E080E090E00E948A
:1024F000E427D9F0D0E0C0E0103370F4C12FC695C6
:10250000C695C695B0E2CB9FE0011124C05FDB4FBA
:10251000812F8770C80FD11DCF01810F911DDC0164
:1025200052968C919881892B88839401A501B601DC
:10253000C70101E00E94C92749015A016B017C01D2
:102540001F5FC4CFFC016F3F710581F1808581FD64
:102550002DC0603271055CF581E090E002C0880F0B
:10256000991F6A95E2F780959095092E000CAA0BA9
:10257000BB0B428553856485758584239523A623EB
:10258000B72382879387A487B58782859385A4859F
:10259000B585892B8A2B8B2B49F486859785A08955
:1025A000B189892B8A2B8B2B09F4108608956052F0
:1025B000710981E090E002C0880F991F6A95E2F7E7
:1025C00080959095092E000CAA0BBB0B468557856C
:1025D0006089718984239523A623B72386879787EB
:1025E000A08BB18BD2CFFC016F3F7105E9F1603355
:1025F00071051CF082E08087089580858160808766
:1026000060327105C4F481E090E002C0880F991F28
:102610006A95E2F7092E000CAA0BBB0B4285538585
:1026200064857585842B952BA62BB72B8287938782
:10263000A487B58708956052710981E090E002C0D7
:10264000880F991F6A95E2F7092E000CAA0BBB0BA5
:102650004685578560897189842B952BA62BB72BCE
:1026600086879787A08BB18B0895E0ECF8E02081F6
:102670002E7F2083FC0117820895E0ECF8E0828130
:102680008E7F82830895E0ECF8E08281816082830E
:102690000895CF93C82F70E060E08AE00E94BC0FDD
:1026A00070E060E087E00E94BC0F6C2F8DEF98E235
:1026B000CF910C94EF11CF93DF93EC0170E060E0C9
:1026C0008AE00E94BC0F61E070E087E00E94BC0FCE
:1026D0006D2F8DEF98E20E94EF116C2F8DEF98E235
:1026E0000E94EF1161E070E08AE0DF91CF910C94DD
:1026F000BC0FCF93C82F70E060E08AE00E94BC0F4F
:1027000061E070E087E00E94BC0F6C2F8DEF98E2D3
:102710000E94EF1161E070E08AE0CF910C94BC0F51
:102720000F931F93CF93DF93082FD62F142FC22F11
:102730008AE20E94491380E00E947913802F0E9450
:10274000791380E00E947913812F0E9479138BE224
:102750000E94491380E00E9479138D2F0E94791303
:1027600080E00E9479138C2F0E9479138CE2DF9114
:10277000CF911F910F910C9449130F931F93CF93F7
:10278000DF93209160283091612840915E2850911C
:102790005F2870E060E090E080E00E949013D0E05D
:1027A000C0E08091602890916128C817D90790F403
:1027B00010E000E080915E2890915F2808171907CB
:1027C00038F490E080E00E945B130F5F1F4FF2CF60
:1027D0002196E7CFDF91CF911F910F910895CF936D
:1027E000DF93EA0120915A2830915B282A35310580
:1027F000B9F028F4232BF1F0DF91CF910895243B19
:102800003105D9F12E303140B9F720915628309159
:10281000572821503109281B390BCB01B9010AC0B7
:10282000209154283091552821503109261B370B0F
:10283000BC01C90120915C2830915D28213031050F
:1028400089F1D0F12230310569F023303105A1F64C
:10285000209154283091552821503109A901481B55
:10286000590BCA012091562830915728215031091F
:10287000A901461B570BBA011FC020915428309163
:10288000552821503109A901481B590BCA01209133
:1028900056283091572821503109A901461B570B62
:1028A000BA01C8CF209154283091552821503109C0
:1028B000A901481B590BCA01209154283091552871
:1028C0002817390708F498CF2091562830915728B7
:1028D0002617370708F490CF9B01AC010E94901394
:1028E000CE01DF91CF910C945B13DC01ED91FC9153
:1028F0000088F189E02D23E030E009942F923F9287
:102900004F925F926F927F928F929F92AF92BF92FF
:10291000CF92DF92EF92FF920F931F93CF93DF93AB
:10292000CDB7DEB72697CDBFDEBFE0915028F0913E
:102930005128E817F90708F4E3C0E0915228F09114
:102940005328E617F70708F4DBC00B831C832D839D
:102950003E832B013C0149835A837B018C01A98171
:10296000BA81ED91A983BA83EE2309F4C9C0AD8180
:10297000BE8112968D919C91139720915028309191
:10298000512814964D915C91BC01600F711F261760
:10299000370718F4E40EF51E830120915228309178
:1029A0005328BA016E0D7F1D2617370710F47201E8
:1029B000830120915028309151282017310708F4C5
:1029C00097C020915228309153282E153F0508F4C6
:1029D0008FC021E030E0BC0167707727672B11F4CE
:1029E00030E020E063E0969587956A95E1F7820FE5
:1029F000931F849FB001859F700D949F700D1124CB
:102A00000E2E000CFF0BB0976E9FC0016F9F900DB4
:102A10007E9F900D1124ED81FE81A080B180A80ED3
:102A2000B91E6701AD81BE8114962D913C91C601FE
:102A30008E199F098217930708F05AC0912C812C98
:102A4000ED81FE81828193818816990608F045C048
:102A5000F50144911401F7E02F223324C801880DB9
:102A6000991D20E830E0022C02C0359527950A9484
:102A7000E2F750E024233523232BD9F0209150286E
:102A8000309151282817390748F020915228309169
:102A900053284B815C812C153D05D8F487E028161E
:102AA000310419F4AFEFAA1ABA0ABFEF8B1A9B0AC6
:102AB000C7CF20915028309151282817390770F33B
:102AC00020915228309153282C153D0538F350E0C1
:102AD00040E0B6010E94EF13E1CF87709927892B60
:102AE00019F0EFEFAE1ABE0AFFEFCF1ADF0A9ACF46
:102AF000AD81BE8112968D919C91080F191F2FCF29
:102B00002696CDBFDEBFDF91CF911F910F91FF9031
:102B1000EF90DF90CF90BF90AF909F908F907F907D
:102B20006F905F904F903F902F900895FC0101901F
:102B30000020E9F73197AF01481B590BBC0182E631
:102B400098E20C9466118F929F92AF92BF920F936E
:102B50001F93CF93DF93CDB7DEB7A197CDBFDEBF75
:102B600019A2423008F44AE08E010F5D1F4F842EF7
:102B7000912CB12CA12CA50194010E947E27E62F57
:102B8000B901CA01EA30DCF4E05DD801EE938D01B1
:102B9000232B242B252B79F790E080E0109719F058
:102BA000CD010E949615A196CDBFDEBFDF91CF91DA
:102BB0001F910F91BF90AF909F908F900895E95C07
:102BC000E4CFCF92DF92EF92FF92CF93DF9397FF04
:102BD0001BC06B017C016DE282E698E20E94F00E60
:102BE000EC0166277727CB016C197D098E099F09B7
:102BF0004AE00E94A3158C0F9D1FDF91CF91FF909B
:102C0000EF90DF90CF9008954AE0DF91CF91FF9051
:102C1000EF90DF90CF900C94A3150C949615CF9362
:102C2000DF930E949615EC0187ED94E90E949615BA
:102C30008C0F9D1FDF91CF910895CF93DF93BC013F
:102C4000990F880B990B0E94E115EC0187ED94E92F
:102C50000E9496158C0F9D1FDF91CF9108950F93C1
:102C60001F93CF93DF93FC0104811581011511059A
:102C700039F4FB011082DF91CF911F910F910895DC
:102C8000415051094017510708F48A01EB01FC013A
:102C900060817181A801CE010E94E829C00FD11F77
:102CA0001882E9CFCF92DF92EF92FF920F93FC014F
:102CB000C12CB9E0DB2EBDE3EB2EF12CC082D1821A
:102CC000E282F3821482158281E090E0868397830A
:102CD000C0900028D0900128E0900228F0900328AE
:102CE000F694E794D794C79490E04C155D056E0573
:102CF0007F0540F4F694E794D794C7949F5F96308D
:102D0000A1F797E004600187892F8095A82FA17013
:102D1000B0E084E0AA0FBB1F8A95E1F791629A2B7D
:102D200080E0232B09F480E4982B90870F91FF908B
:102D3000EF90DF90CF9008950F931F93CF93DF9381
:102D4000CDB7DEB72A97CDBFDEBF8C01FC018781EE
:102D500081110CC010861186128613861486158682
:102D600016861786108A118A81E087838091E30591
:102D7000F8019681892B8093E30561E070E08381FF
:102D80000E94291061E070E0F80184810E942910FE
:102D90008091C10884608093C1088091C0088162DD
:102DA0008093C00840913F2950914029609141296A
:102DB000709142290091432920914529309146295B
:102DC000CE0101960E94521699858A859093C0087B
:102DD0008093C1082A96CDBFDEBFDF91CF911F91AE
:102DE0000F9108955F926F927F928F929F92AF9210
:102DF000BF92CF92DF92EF92FF920F931F93CF93E8
:102E0000DF93CDB7DEB76297CDBFDEBF3C010B8746
:102E10001C872D873E87042F4F87588B698B7A8BB1
:102E200029893A894B855C856D857E85CE01019621
:102E30000E94521659841A85D30118968C918823C2
:102E400019F081FF18C0F8945092C0081093C1087F
:102E50006296CDBFDEBFDF91CF911F910F91FF90A2
:102E6000EF90DF90CF90BF90AF909F908F907F902A
:102E70006F905F90089580FFE7CFF3018284938481
:102E8000A484B584C12CD12C7601B0E09401A501B5
:102E9000B601C701A0E00E94E427A9F1217030E04B
:102EA00040E050E060E070E080E090E00E94E427C5
:102EB000E9F090E080E0B03370F48B2F8695869532
:102EC0008695F0E28F9FC0011124805F9B4F2B2FCE
:102ED0002770820F911DFC01408193012B0F311D42
:102EE000F901428BFC012081287F20839401A501F8
:102EF000B601C70101E00E94C92749015A016B01CF
:102F00007C01BF5FC3CFD3011E968D909D90AD9085
:102F1000BC905197C12CD12C7601B0E29401A5014F
:102F2000B601C701A0E00E94E42709F48DCF21700B
:102F300030E040E050E060E070E080E090E00E942F
:102F4000E427E9F090E080E0B03370F48B2F8695B1
:102F500086958695E0E28E9FC0011124805F9B4F8D
:102F60002B2F2770820F911DFC01408193012B0FA5
:102F7000311DF901428BFC012081287F20839401BF
:102F8000A501B601C70101E00E94C92749015A0104
:102F90006B017C01BF5FC2CF0F931F93CF93DF9371
:102FA000EC0188819981009759F02A813B8126178D
:102FB000370730F081E0DF91CF911F910F91089595
:102FC0008B016F5F7F4F0E941B29009759F0888308
:102FD00099830A831B832C813D81232B59F7FC01A4
:102FE0001082E8CF80E0E7CFCF93DF93EC018881B8
:102FF0009981009711F00E949228188219821C82F0
:103000001D821A821B82DF91CF910895EF92FF9269
:103010000F931F93CF93DF938C017B01EB010990FA
:103020000020E9F72197C61BD70BBE010E94CC17E1
:10303000811109C0C801DF91CF911F910F91FF90BD
:10304000EF900C94F417F801C483D583B701808105
:103050009181DF91CF911F910F91FF90EF900C9490
:10306000E129EF92FF920F931F93CF93DF93CDB798
:10307000DEB7E397CDBFDEBF7C01CB01BA01F7011C
:103080001082118212821382148215828E010F5FC8
:103090001F4F22E044E00E946423009771F0BC01BE
:1030A000C7010E940618E396CDBFDEBFDF91CF9126
:1030B0001F910F91FF90EF900895C7010E94F417A0
:1030C000F2CF0F931F93CF93DF93CDB7DEB7629705
:1030D000CDBFDEBF8C01CB01F801108211821282BC
:1030E0001382148215824AE0BE016F5F7F4F0E94F7
:1030F0008223BE016F5F7F4FC8010E94061862964F
:10310000CDBFDEBFDF91CF911F910F9108950F9337
:103110001F93CF93DF93CDB7DEB76197CDBFDEBFEF
:103120008C01CB01F8011082118212821382148269
:1031300015824AE0BE016F5F7F4F0E948D23BE0162
:103140006F5F7F4FC8010E9406186196CDBFDEBF3A
:10315000DF91CF911F910F910895FC0180819181A2
:10316000009711F00C94922808950F931F93CF931A
:10317000DF93CDB7DEB72C97CDBFDEBF8B01BC018F
:10318000CE0101960E948718B801CE0107960E94D1
:10319000871842E050E06EE178E2CE0101960E948D
:1031A0002F1642E050E06CE178E2CE0107960E94D3
:1031B0002F160FEF1FEF24E038E24CE158E266E4EF
:1031C00070E080E590E00E947E1424E038E24EE159
:1031D00058E266E470E08CE890E00E947E1424E0FF
:1031E00038E246EC54E966E470E08FE590E00E9436
:1031F0007E14CE0107960E94AD18CE0101960E9462
:10320000AD182C96CDBFDEBFDF91CF911F910F91EE
:1032100008950F931F93CF93DF93CDB7DEB7269713
:10322000CDBFDEBFAB01BC01CE0101960E943118BB
:1032300048E050E064E278E2CE0101960E942F1649
:1032400000E018EF2EE038E244E258E268E770E070
:103250008EE690E00E947E14CE0101960E94AD1889
:103260002696CDBFDEBFDF91CF911F910F910895BC
:103270000F931F93CF93DF93CDB7DEB72697CDBFC4
:10328000DEBFBC01CE0101960E94611848E050E00B
:103290006CE278E2CE0101960E942F1600E018EF52
:1032A0002EE038E24CE258E268E770E08CE090E013
:1032B0000E947E14CE0101960E94AD182696CDBFC5
:1032C000DEBFDF91CF911F910F9108950C9492284A
:1032D0001F920F920FB60F9211242F933F934F938B
:1032E0005F936F937F938F939F93AF93BF9340911F
:1032F000422850914328609144287091452880913C
:1033000040289091412820913E2830913F28420F3B
:10331000531F611D711D20913C2830913D28820F63
:10332000931F883E23E0920730F0885E93404F5F02
:103330005F4F6F4F7F4F8093402890934128409379
:1033400042285093432860934428709345288091E5
:103350004A2890914B28A0914C28B0914D28019675
:10336000A11DB11D80934A2890934B28A0934C280F
:10337000B0934D2881E08093B60ABF91AF919F91A1
:103380008F917F916F915F914F913F912F910F900E
:103390000FBE0F901F9018951F920F920FB60F92AD
:1033A00011242F933F934F935F936F937F938F934A
:1033B0009F93AF93BF93EF93FF9382E698E20E94AF
:1033C000AB0EFF91EF91BF91AF919F918F917F9144
:1033D0006F915F914F913F912F910F900FBE0F9082
:1033E0001F9018951F920F920FB60F9211242F93D2
:1033F0003F934F935F936F937F938F939F93AF937D
:10340000BF93EF93FF93E0916E28F0916F28818135
:1034100081FD2FC06081809174288F5F8F739091A0
:103420007528891741F0E0917428F0E0EE59F74DC6
:10343000618F809374288091FB289091FC280097DD
:1034400039F0DC01ED91FC910190F081E02D0995BE
:10345000FF91EF91BF91AF919F918F917F916F916C
:103460005F914F913F912F910F900FBE0F901F9042
:1034700018958081EDCF109264281092652888EE0F
:1034800093E0A0E0B0E08093662890936728A09333
:103490006828B093692882E994E980936228909320
:1034A000632880E698E080936E2890936F2888E1E7
:1034B0008093702889E18093712880E4809372283A
:1034C00010927428109275281092762810927728FE
:1034D00086E2809378281092792810927A281092A8
:1034E000FB281092FC2880E099E0ADE3B0E08093E7
:1034F0003F2990934029A0934129B09342291092EB
:1035000043291092442981E090E0809345299093CB
:1035100046298CEA94E98093FD289093FE28109226
:10352000042982E0809303298CE08093FF288DE0BA
:10353000809301298BE08093002988E08093022901
:1035400010924729109248291092492910924A292D
:1035500010924B2910924C2970E060E087E499E2C8
:103560000E94CC17811104C087E499E20C94F417EF
:1035700010924B2910924C2969ED74E980914729EA
:10358000909148290C94E129CF93DF93CDB7DEB712
:103590002C97CDBFDEBF88ED90E084BF9093610093
:1035A00080E094E2A4EFB0E080930028909301289B
:1035B000A0930228B093032880910206866080932E
:1035C00002068091000681608093000680910206C9
:1035D0008F7C809302068091A0008F788093A0005A
:1035E000809102068061809302061092E20581E0DC
:1035F0008093E40583E08093010A8FEF90E080934D
:10360000260A9093270A80E890E08093380A9093E6
:10361000390A80933A0A90933B0A80933C0A90932C
:103620003D0A8BE08093000A8091E50581608093DC
:10363000E5058091E50582608093E505E0E8FAE024
:1036400037E02FEF90E885E03183248795878083EA
:103650007096E03C4AE0F407B9F780E094E080938C
:1036600048289093492880914828909149282FEF25
:1036700030E0B9010E946A2760934628709347287A
:103680008091482890914928E8EEF3E0BF010E941C
:103690006A2760933E2870933F2880914828909134
:1036A0004928BF010E946A2780933C2890933D28B7
:1036B0002093BC0A3093BD0A8091B50A8160809343
:1036C000B50A84E08093B00A8091B00A816080934B
:1036D000B00A789461E070E085E00E94630F60E8D2
:1036E00070E085E00E94A61061E070E083E00E9437
:1036F000630F70E060E083E00E94BC0F8091000ADD
:103700008E7F8093000AE0911428F0911528EE0F27
:10371000FF1FE45EFB46608171816093360A7093FF
:10372000370A00910A2810910B28000F111F000F73
:10373000111F085F1B46072E000C880B990B0E9477
:10374000F025F80120813181428153810E942B268E
:103750000E94342760933C0A70933D0A8091000ACE
:1037600081608093000A62E070E080E10E9429108D
:1037700062E070E081E10E94291080E10E94FF0F69
:10378000809338289093392862E070E084E10E94A9
:10379000291061E070E08AE00E94630F61E070E050
:1037A00088E00E94630F61E070E087E00E94630F91
:1037B00061E070E089E00E94630F6CE870E089E0EE
:1037C0000E94A61040E052EC61E070E082E698E2D0
:1037D0000E9475148091C10883608093C108809114
:1037E000C0088F7B8093C0088091C008806180935F
:1037F000C0088DEF98E20E949C168AEC94E90E9422
:103800000D1670E060E08AE00E94BC0F64E670E094
:1038100080E090E00E94361170E060E088E00E9455
:10382000BC0F64E670E080E090E00E94361161E039
:1038300070E088E00E94BC0F64E670E080E090E0F9
:103840000E9436118FEE0E9449138BEE0E9449139D
:1038500084E10E9479138EEF0E9449138FEE0E943B
:1038600049138BEE0E94491384E10E94791384E886
:103870000E94491380E40E94791385E80E9449134D
:103880008FEF0E94791386E80E9449138FEF0E9400
:10389000791387E80E9449138FEF0E94791388E813
:1038A0000E9449138AE00E94791389E80E94491313
:1038B00081E20E9479138AE80E94491380E00E9405
:1038C00079138BE80E94491380E80E9479138CE8F1
:1038D0000E94491381E00E9479138DE80E944913E8
:1038E00081E00E9479138EE80E9449138FEF0E94B5
:1038F00079138FE80E9449138FEF0E94791386EBAA
:103900000E94491380E00E94791380E20E9479139B
:1039100086E30E94491388E00E9479138AE30E949B
:10392000491385E00E94791380E90E94491388E0D9
:103930000E94791388E00E94791388E00E9479132D
:1039400088E00E9479138DEB0E94491386E00E9463
:1039500079138CEB0E94491380E00E9479138FEF5A
:103960000E94491380E60E94791381E00E94791336
:1039700084E00E94791383EC0E94491383E10E9442
:10398000791384EC0E94491383E10E94791389EC36
:103990000E94491382E20E9479138EEB0E94491320
:1039A00081E10E94791381EE0E94491380E10E9417
:1039B00079138EE00E9479138FED0E94491381E202
:1039C0000E9479138CE00E94791382E00E9479139F
:1039D00080EF0E94491385E40E94791389E00E94D8
:1039E000791388E00E94791388E00E94791386E2B7
:1039F0000E9479138AE20E94791381EF0E94491391
:103A000083E40E94791380E70E94791382E70E9481
:103A1000791386E30E94791387E30E9479138FE676
:103A20000E94791382EF0E94491385E40E94791362
:103A300089E00E94791388E00E94791388E00E944F
:103A4000791386E20E9479138AE20E94791383EF48
:103A50000E94491383E40E94791380E70E9479133E
:103A600082E70E94791386E30E94791387E30E941C
:103A700079138FE60E9479138DEE0E9449138BE132
:103A80000E9479138BE00E9479138EEA0E944913F9
:103A900087E70E9479138DEC0E94491383E60E9408
:103AA000791380E70E94491387E00E94791387E029
:103AB0000E94791384E00E9479138EE00E947913AA
:103AC0008FE00E94791389E00E94791387E00E94B9
:103AD000791388E00E94791383E00E94791388EEBD
:103AE0000E94491384E30E94791382E60E944913DD
:103AF00088E10E9479138DE00E94791381E70E948A
:103B000079138DEE0E94791380E70E94791380E784
:103B10000E94791388E10E9479138FE00E94791343
:103B200081E70E9479138FEE0E94791380E70E944B
:103B3000791380E70E94791383E60E94491388E194
:103B40000E94791381E10E94791381E70E94791321
:103B500081EF0E94791380E70E94791380E70E9429
:103B6000791388E10E94791383E10E94791381E738
:103B70000E94791383EF0E94791380E70E947913E2
:103B800080E70E94791384E60E94491388E20E942C
:103B9000791389E20E94791381EF0E94791381E001
:103BA0000E94791381EF0E94791380E00E947913BB
:103BB00087E00E94791386E60E9449138CE30E94F5
:103BC000791380E00E9479138DEC0E94791387E6C7
:103BD0000E94791385E40E94791385E40E94791389
:103BE00080E10E94791380E00E94791380E00E94B6
:103BF000791380E00E94791387E60E94491380E0E0
:103C00000E9479138CE30E94791380E00E9479135B
:103C100080E00E94791380E00E94791381E00E9485
:103C2000791384E50E94791380E10E94791382E37D
:103C30000E94791388E90E94791384E70E9449134E
:103C400080E10E94791385E80E94791380E80E9440
:103C5000791380E00E94791380E00E9479138EE44A
:103C60000E94791380E00E94791388E90E94491329
:103C70008EE30E94791387E00E94791385E30E9406
:103C8000491381E20E94491381E10E94491368E7C8
:103C900070E080E090E00E94361189E20E944913B2
:103CA00064E170E080E090E00E94361168EE73E01D
:103CB00089E00E94A61080EF90E0809354289093B2
:103CC0005528809356289093572810925828109280
:103CD000592880935E2890935F2880936028909362
:103CE000612810925A2810925B2810925C2810923A
:103CF0005D28809350289093512880935228909368
:103D000053280E94BD1300EE17E024E038E24AED8C
:103D100054E96BE770E08AE090E00E947E148AEE3E
:103D200094E90E940D1660912228709123288091B9
:103D30002028909121280E94B51810E000E0CC24A2
:103D4000CA94DC2C760190E1892E9EE0992EA12C5C
:103D5000B12C2CE3422E512C612C712CFFEFCF1A89
:103D6000DF0AEF0AFF0AC701B6010E94E11587EDDD
:103D700094E90E949615C114D104E104F10409F4F8
:103D800040C0C701B601A50194010E94A027672B7E
:103D9000682B692B09F04EC280912228909123282C
:103DA0000196809322289093232810922028109225
:103DB00021288AEF94E90E940D16609122287091C3
:103DC000232890E080E04AE00E94A31586EC94E965
:103DD0000E940D16609120287091212890E080E0CB
:103DE0004AE00E94A31587ED94E90E949615609120
:103DF00022287091232880912028909121280E94C8
:103E0000B51884E10E94FF0F892B09F028C2012B0D
:103E100009F42EC20E94BD130FE110E024E038E245
:103E20004AE055E96BE770E08AE090E00E947E147A
:103E300062E070E080E090E00E9436110E94BD13C5
:103E400082E090E08093342890933528E0910A280E
:103E5000F0910B28EE0FFF1FEE0FFF1FE85FFB46F0
:103E6000C080D180E280F380E0911428F091152881
:103E7000EE0FFF1FE45EFB4660817181CE01079665
:103E80000E946118B701A601CE0101960E94311867
:103E900048E050E06CE278E2CE0107960E942F16CF
:103EA00048E050E064E278E2CE0101960E942F16CD
:103EB0002EE038E243E155E966E470E08AE090E004
:103EC0000E947E140FEF1FEF2EE038E24CE258E222
:103ED00068E770E08CE090E00E947E140FE110E053
:103EE0002EE038E248E155E966E470E080E590E0D4
:103EF0000E947E140FEF1FEF2EE038E244E258E2FA
:103F000068E770E08EE690E00E947E14CE01019694
:103F10000E94AD18CE0107960E94AD186BE1E62E07
:103F200063E0F62E70E0672E70E0772EAA24A3944B
:103F3000B12CF2E0CF2ED12C80E10E94FF0F8093B4
:103F40003A2890933B2820913828309139288217BD
:103F5000930709F44CC0892B09F049C081E10E9404
:103F6000FF0F2091362830913728892B09F083C123
:103F70001216130614F12F5F3F4F2093362830930B
:103F8000372810923428109235280FE110E02EE0E7
:103F900038E248E155E966E470E080E590E00E948F
:103FA0007E1400E018EF2EE038E243E155E966E4C4
:103FB00070E08AE090E00E947E1467E275E987E491
:103FC00099E20E9406188BE295E90E940D1688E39B
:103FD00095E90E940D160E94931184E495E90E94D0
:103FE0000D1680913628909137280E941D168091D9
:103FF0003A2890913B288093382890933928C7011C
:104000000197F1F784E10E94FF0F892B09F00BC1A2
:104010008091342890913528009709F0B2C187E546
:1040200095E90E940F16E0911428F0911528EE0FE3
:10403000FF1FE45EFB4660817181CE0107960E94FE
:10404000611848E050E06CE278E2CE0107960E94E9
:104050002F1600E018EF2EE038E24CE258E268E755
:1040600070E08CE090E00E947E1480E10E94FF0FDF
:10407000809338289093392880E10E94FF0F809325
:104080003A2890933B28209138283091392882177C
:10409000930709F484C0892B09F081C081E10E9453
:1040A000FF0F20910C2830910D28892B09F00BC1AE
:1040B000243031050CF04BC02F5F3F4F20930C286C
:1040C00030930D2880911428909115288430910503
:1040D00028F4019680931428909315288091000A63
:1040E0008E7F8093000AE0911428F0911528EE0F3E
:1040F000FF1FE45EFB46808091808092360A90929A
:10410000370A00910A2810910B28000F111F000F89
:10411000111F085F1B46B401092C000C880B990B7A
:104120000E94F025F80120813181428153810E9453
:104130002B260E94342760933C0A70933D0A80919D
:10414000000A81608093000AC4010E94381967E266
:1041500075E987E499E20E9406188BE295E90E94CE
:104160000D1688E395E90E940D160E9493118AE6C8
:1041700095E90E940D1660910C2870910D28072E6C
:10418000000C880B990B0E94E11587E795E90E94C6
:104190000D1680911428909115280E941D1684E117
:1041A0000E94FF0F892B09F0E0C085E895E90E9485
:1041B0000F16C0923428D0923528E0911428F0913F
:1041C0001528EE0FFF1FE45EFB4660817181CE0172
:1041D00001960E94611848E050E06CE278E2CE015E
:1041E00001960E942F160FEF1FEF2EE038E24CE2EF
:1041F00058E268E770E08CE090E00E947E140FE1E6
:1042000010E02EE038E243E155E966E470E08AE030
:1042100090E00E947E14CE0101960E94AD18CE015E
:1042200007960E94AD186114710409F485CE0E94AE
:10423000000082CEC701B601A30192010E94A0270F
:10424000672B682B692B09F0DCCD80912028909199
:10425000212801968093202890932128AACD10E050
:1042600000E067EE73E080E090E00E94361176CDCA
:1042700001E010E0F6CF1216130614F521503109B3
:104280002093362830933728A0923428B0923528CE
:104290000FE110E02EE038E243E155E966E470E01A
:1042A0008AE090E00E947E1400E018EF2EE038E2F1
:1042B00048E155E966E470E080E590E00E947E14F4
:1042C00068E275E97CCE121613060CF04BC0215043
:1042D000310920930C2830930D2880911428909157
:1042E000152801978430910520F480931428909329
:1042F00015288091000A8E7F8093000AE09114288F
:10430000F0911528EE0FFF1FE45EFB468080918040
:104310008092360A9092370A00910A2810910B2851
:10432000000F111F000F111F085F1B46B401092C5D
:10433000000C880B990B0E94F025F8012081318137
:10434000428153810E942B260E94342760933C0AAD
:1043500070933D0A8091000A81608093000AC40135
:104360000E94381968E275E9F4CE80913A2890915C
:104370003B288093382890933928C7010197F1F79B
:104380007BCE019709F057C186E995E90E940F1687
:10439000E0910A28F0910B28EE0FFF1FEE0FFF1F90
:1043A000E85FFB464081518162817381CE010796AF
:1043B0000E94311848E050E064E278E2CE010796AE
:1043C0000E942F1600E018EF2EE038E244E258E297
:1043D00068E770E08EE690E00E947E1480E10E9423
:1043E000FF0F809338289093392880E10E94FF0FB7
:1043F00080933A2890933B2820913828309139288F
:104400008217930709F485C0892B09F082C081E1E6
:104410000E94FF0F20910C2830910D28892B09F064
:10442000ABC0243031050CF04CC02F5F3F4F2093C0
:104430000C2830930D2880910A2890910B28843005
:10444000910528F4019680930A2890930B28809177
:10445000000A8E7F8093000AE0911428F0911528BD
:10446000EE0FFF1FE45EFB46608171816093360AA8
:104470007093370AE0910A28F0910B28EE0FFF1F86
:10448000EE0FFF1FE85FFB462080318042805380A3
:10449000072E000C880B990B0E94F025A2019101B8
:1044A0000E942B260E94342760933C0A70933D0A99
:1044B0008091000A81608093000AC201B1010E94CC
:1044C000091967E275E987E499E20E9406188BE210
:1044D00095E90E940D1688E395E90E940D160E9449
:1044E00093118AE695E90E940D1660910C2870914F
:1044F0000D28072E000C880B990B0E94E1158FEAFE
:1045000095E90E940D1680910A2890910B280E942F
:104510001D1684E10E94FF0F892B09F080C085E8F9
:1045200095E90E940F16C0923428D0923528E09168
:104530000A28F0910B28EE0FFF1FEE0FFF1FE85F18
:10454000FB464081518162817381CE0101960E94B8
:10455000311848E050E064E278E2CE0101960E9412
:104560002F160FEF1FEF2EE038E244E258E268E723
:1045700070E08EE690E041CE121613060CF04CC0AF
:104580002150310920930C2830930D2880910A285E
:1045900090910B2801978430910520F480930A288C
:1045A00090930B288091000A8E7F8093000AE091FF
:1045B0001428F0911528EE0FFF1FE45EFB46608182
:1045C00071816093360A7093370AE0910A28F0915E
:1045D0000B28EE0FFF1FEE0FFF1FE85FFB4620804A
:1045E000318042805380072E000C880B990B0E946B
:1045F000F025A20191010E942B260E94342760938E
:104600003C0A70933D0A8091000A81608093000A01
:10461000C201B1010E94091968E275E954CF809185
:104620003A2890913B288093382890933928C701E5
:104630000197F1F7DACEE0911428F0911528EE0FEA
:10464000FF1FE45EFB4660817181CE0107960E94E8
:10465000611848E050E06CE278E2CE0107960E94D3
:104660002F160FEF1FEF2EE038E24CE258E268E71A
:1046700070E08CE090E00E947E14E0910A28F091B6
:104680000B28EE0FFF1FEE0FFF1FE85FFB46408178
:10469000518162817381CE0101960E94311848E0F8
:1046A00050E064E278E2CE0101960E942F162EE0DF
:1046B00038E244E258E268E770E08EE690E0A9CD87
:1046C00087E499E20C94AD18EF920F931F93CF9368
:1046D000DF93E80134E047FD34E1042E000C550B74
:1046E00057FF03C0519541955109E32E022F242F06
:1046F000AE010E94A723CE01DF91CF911F910F91B0
:10470000EF900895BB274A3031F4992322F4BDE29B
:10471000909581959F4F0C948E23BB27FB015527C5
:10472000AA27880F991FAA1FA41710F0A41B83950E
:104730005051B9F7A05DAA3308F0A95DA193009785
:1047400079F7B111B1931192CB010C94DE25A9E058
:10475000B0E0EDEAF3E20C94FA266A01F22EB02EF4
:10476000102FFBE3AF2EA01608F41BE31F5F012FF1
:1047700027E0AE014F5F5F4F0E940625BC01898193
:10478000982F9970913009F43FC09BE2E1FC04C07E
:104790009E2D9170E0FC3AC05E2D5071E82FE870BC
:1047A00083FF46C084E0911101C083E0EF2DE81B38
:1047B0008F1508F0E0E0D6018E2F20E2552351F14D
:1047C000992329F0D6019C93C60101966C019601AC
:1047D0002D5F3F4FE2FE24C08EE4D6018C9391E41E
:1047E00011969C93119712968C93D9018E2F90E27B
:1047F00081111BC0E20FF32FF11D10828EEF9FEF8E
:104800002996ECE00C9413279DE2C6CF90E2C4CF2A
:104810002D9381508111FCCFCE0ED11CE0E0D0CF82
:104820008EE6D6018C9391E6DBCF9D938150E0CF4D
:10483000482F447082FF3DC084E0911101C083E0A5
:104840008F1510F4EF2DE81BD6018E2F20E2552393
:1048500009F1992329F0D6019C93C60101966C01B8
:1048600096012D5F3F4FE2FE1BC089E4D6018C9379
:104870008EE411968C93119786E412968C93D9014D
:104880008E2F90E2882309F4B5CF9D938150FACF03
:104890002D9381508111FCCFCE0ED11CE0E0D9CFF9
:1048A00089E6D6018C938EE611968C93119786E655
:1048B000E4CF9B0177FF02C030E020E0A1E0B0E050
:1048C000911102C0B0E0A0E0F9013196AE0FBF1F18
:1048D0008B2C912CBB2009F461C05401EFEFAE1A70
:1048E000BE0AAA0DBB1DFA161B0619F014F04F2DB7
:1048F0004A1B511188C0E3FC59C07601A42FB0E2D5
:10490000A1114FC0C40ED11C992309F45BC040E033
:10491000D6011196F60190836D01552309F448C024
:10492000012F060F9A81582F507184FF03C09133D5
:1049300009F4015010160CF047C0093008F008E0E7
:10494000EEE2FE2E5B01A01AB108850191948194DC
:1049500091082F3F320729F4D601FC92F6013196D7
:104960006F016217730794F1021713077CF5DB01DF
:10497000A21BB30BAA24A394B12CAC0EBD1EAA0D8E
:10498000BB1D11968C9121503109D6011196281525
:104990003905F4F0F60180836D01DBCFB12CA12C39
:1049A000A0CFF701B1937F01A150AACF9111B0CF51
:1049B000D601942F50E302C05D9391509111FCCF2A
:1049C000C40ED11C40E0ACCF01E0BACF80E3DBCF16
:1049D0006217730731F4963388F4953311F4552335
:1049E00069F0F6018083FD01842F90E2811108C0F7
:1049F000A40FB11D1C9290E080E002CF81E3F1CFC3
:104A000091938150F3CF911183CF8ACF283008F052
:104A100027E03327DA01990F311D87FD9160009659
:104A20006105710539F432602E5F3D9330E32A95BC
:104A3000E1F708959F3F30F080387105610509F076
:104A40003C5F3C5F3D93913008F08068911DDF939F
:104A5000CF931F930F93FF92EF92192F987F969504
:104A6000E92F96959695E90FFF27E650FF4F992776
:104A70003327EE24FF24A701E7010590089407944B
:104A800028F4360FE71EF81E491F511D660F771FC9
:104A9000881F991F0694A1F70590079428F4E70E44
:104AA000F81E491F561FC11D770F881F991F661FCB
:104AB0000694A1F70590079428F4F80E491F561F95
:104AC000C71FD11D880F991F661F771F0694A1F776
:104AD0000590079420F4490F561FC71FD81F990F40
:104AE000661F771F881F0694A9F784911095177089
:104AF00041F0D695C79557954795F794E7941A9541
:104B0000C1F7E0EAF0E06894159015913591659150
:104B1000959105907FE27395E118F10A430B560BCE
:104B2000C90BD009C0F7E10CF11E431F561FC91F66
:104B3000D01D7EF4703311F48A95E6CFE8940150CD
:104B400030F0080F0AF40027021708F4202F2395ED
:104B5000022F7A3328F079E37D932A95E9F710C084
:104B60007D932A9589F606949795679537951795BD
:104B70001794E118F10A430B560BC90BD00998F0B2
:104B800023957E9173957A3308F070E37C9320131C
:104B9000B8F77E9170617D9330F0839571E37D93DA
:104BA00070E32A95E1F71124EF90FF900F911F9188
:104BB000CF91DF91992787FD90950895DC01FC0145
:104BC000672F71917723E1F7329704C07C916D9341
:104BD00070836291AE17BF07C8F30895E89409C0C7
:104BE00097FB3EF490958095709561957F4F8F4F20
:104BF0009F4F9923A9F0F92F96E9BB279395F69536
:104C0000879577956795B795F111F8CFFAF4BB0FB3
:104C100011F460FF1BC06F5F7F4F8F4F9F4F16C017
:104C2000882311F096E911C0772321F09EE8872FA1
:104C3000762F05C0662371F096E8862F70E060E05D
:104C40002AF09A95660F771F881FDAF7880F9695D6
:104C5000879597F908950E943E260C94AF260E94EE
:104C6000A12638F00E94A82620F0952311F00C947C
:104C700098260C949E2611240C94E3260E94C026AC
:104C800070F3959FC1F3950F50E0551F629FF0019F
:104C9000729FBB27F00DB11D639FAA27F00DB11DB8
:104CA000AA1F649F6627B00DA11D661F829F222741
:104CB000B00DA11D621F739FB00DA11D621F839FC8
:104CC000A00D611D221F749F3327A00D611D231F9E
:104CD000849F600D211D822F762F6A2F11249F57EC
:104CE00050409AF0F1F088234AF0EE0FFF1FBB1FEF
:104CF000661F771F881F91505040A9F79E3F5105AE
:104D000080F00C9498260C94E3265F3FE4F3983EE1
:104D1000D4F3869577956795B795F795E7959F5F57
:104D2000C1F7FE2B880F911D9695879597F90895E9
:104D300097F99F6780E870E060E008959FEF80EC4E
:104D4000089500240A9416161706180609060895F1
:104D500000240A9412161306140605060895092E57
:104D60000394000C11F4882352F0BB0F40F4BF2BC6
:104D700011F460FF04C06F5F7F4F8F4F9F4F089506
:104D800057FD9058440F551F59F05F3F71F04795FC
:104D9000880F97FB991F61F09F3F79F087950895E1
:104DA000121613061406551FF2CF4695F1DF08C000
:104DB000161617061806991FF1CF8695710561051D
:104DC00008940895E894BB2766277727CB0197F9C5
:104DD00008950E942527A59F900DB49F900DA49F34
:104DE000800D911D112408952F923F924F925F9252
:104DF0006F927F928F929F92AF92BF92CF92DF92EB
:104E0000EF92FF920F931F93CF93DF93CDB7DEB74F
:104E1000CA1BDB0BCDBFDEBF09942A8839884888BE
:104E20005F846E847D848C849B84AA84B984C884C6
:104E3000DF80EE80FD800C811B81AA81B981CE0FBD
:104E4000D11DCDBFDEBFED010895A29FB001B39F7C
:104E5000C001A39F700D811D1124911DB29F700D83
:104E6000811D1124911D08950E943B276894B11162
:104E70000C94E32608950E94C82688F09F5798F066
:104E8000B92F9927B751B0F0E1F0660F771F881F4F
:104E9000991F1AF0BA95C9F714C0B13091F00E9469
:104EA000E226B1E008950C94E226672F782F882738
:104EB000B85F39F0B93FCCF3869577956795B39590
:104EC000D9F73EF490958095709561957F4F8F4FFF
:104ED0009F4F0895AA1BBB1B51E107C0AA1FBB1F10
:104EE000A617B70710F0A61BB70B881F991F5A9576
:104EF000A9F780959095BC01CD010895A1E21A2EE5
:104F0000AA1BBB1BFD010DC0AA1FBB1FEE1FFF1F6D
:104F1000A217B307E407F50720F0A21BB30BE40BBD
:104F2000F50B661F771F881F991F1A9469F7609504
:104F30007095809590959B01AC01BD01CF010895BE
:104F4000052E97FB1EF400940E94B72757FD07D04B
:104F50000E947E2707FC03D04EF40C94B72750958F
:104F60004095309521953F4F4F4F5F4F0895909555
:104F70008095709561957F4F8F4F9F4F0895B7FF34
:104F80000C94E9260E94E926821B930B089597FD55
:104F90001094002E083098F00850232F342F452FFE
:104FA000562F672F782F892F912DF4CF1594979531
:104FB00087957795679557954795379527950A95DE
:104FC000AAF71124002D08950024A7FD00942A17A4
:104FD0003005400550056005700580059005089571
:104FE000EE0FFF1F0590F491E02D09940F931F938E
:104FF000CF93DF938230910510F482E090E0E0914E
:105000004F29F091502930E020E0B0E0A0E0309747
:1050100099F42115310509F44AC0281B390B2430B5
:105020003105D8F58A819B816115710589F1FB01F4
:1050300082839383FE0111C04081518102811381DB
:1050400048175907E0F04817590799F4109761F08D
:1050500012960C93129713961C933296CF01DF9100
:10506000CF911F910F91089500934F2910935029CC
:10507000F4CF2115310551F04217530738F0A9013B
:10508000DB019A01BD01DF01F801C1CFEF01F9CFCA
:1050900080934F2990935029CDCFFE01E20FF31F4B
:1050A000819391932250310928833983D7CF20915E
:1050B0004D2930914E29232B41F42091182830910D
:1050C000192820934D2930934E292091162830918C
:1050D00017282115310541F42DB73EB740911A2804
:1050E00050911B28241B350BE0914D29F0914E293E
:1050F000E217F307A0F42E1B3F0B2817390778F0AF
:10510000AC014E5F5F4F2417350748F04E0F5F1F0D
:1051100040934D2950934E29819391939FCFF0E076
:10512000E0E09CCFCF93DF930097E9F0FC0132974A
:1051300012821382A0914F29B0915029ED0130E0E5
:1051400020E01097A1F420813181820F931F2091DC
:105150004D2930914E292817390709F061C0E09395
:105160004D29F0934E29DF91CF910895EA01CE1792
:10517000DF07E8F54A815B819E0141155105B1F7D2
:10518000E901EA83FB8349915991C40FD51FEC17BC
:10519000FD0761F4808191810296840F951FE901DA
:1051A00088839983828193818A839B83F0E0E0E006
:1051B00012968D919C9113970097B9F52D913C9182
:1051C0001197CD010296820F931F20914D293091A6
:1051D0004E292817390739F6309751F510924F2983
:1051E00010925029A0934D29B0934E29BCCFC28371
:1051F000D38340815181840F951FC817D90761F46B
:105200004E5F5F4F88819981480F591F40835183BA
:105210008A819B81828393832115310509F0B0CF68
:10522000E0934F29F09350299ECFFD01DC01C0CFC0
:1052300012821382D7CFB0E0A0E0E1E2F9E20C9451
:10524000F6268C01009751F4CB010E94F6278C01C1
:10525000C801CDB7DEB7E0E10C940F27FC01E60FE3
:10526000F71F9C0122503109E217F30708F49DC093
:10527000D901CD91DC911197C617D70798F0C530A9
:10528000D10530F3CE0104978617970708F3C61BA4
:10529000D70B2297C193D1936D937C93CF010E943A
:1052A0009228D6CF5B01AC1ABD0A4C018C0E9D1E14
:1052B000A0914F29B0915029512C412CF12CE12C77
:1052C000109731F580914D2990914E2988159905B7
:1052D00009F05CC04616570608F058C080911628A1
:1052E00090911728009741F48DB79EB740911A28E6
:1052F00050911B28841B950BE817F90708F055C03F
:10530000E0934D29F0934E29F90160837183A0CF7A
:105310008D919C91119712966C90129713967C9098
:105320001397A815B90559F56C0142E0C40ED11CBC
:10533000CA14DB0420F1AC014A195B09DA011296A8
:10534000159780F06282738240835183D9016D93F7
:105350007C93E114F10471F0D7011296ED93FC9364
:10536000139776CF22968C0F9D1FF901808391832E
:10537000F301EFCFE0934F29F093502969CF4816FE
:10538000590608F42C017D01D3019ACFCB010E946C
:10539000F6277C01009749F0AE01B8010E94D82998
:1053A000C8010E949228870153CF10E000E050CF3F
:1053B000FB01DC0102C001900D9241505040D8F732
:1053C0000895FB01DC0101900D920020E1F70895A2
:1053D000FB01DC014150504048F001900D9200204B
:1053E000C9F701C01D9241505040E0F708951EE0FA
:1053F000CAE2DEE004C0FE010E94F0272196CB3213
:08540000D107C9F7F894FFCFB2
:105408009A99993E0000803ECDCC4C3E9A99193E1F
:10541800CDCCCC3DC4098206E204E8034103000078
:10542800000300010200000101000000000000006C
:105438000000000000000000050400050602040149
:105448000300010001020302010002030405020334
:105458000504020200050201050004010104040418
:1054680003030303050503030000010120100120C5
:1054780040041002080102010204080402010408A1
:1054880010200408201000000000F00E6611550ED0
:10549800410F860E640E780E75142E10920E9D1113
:1054A800000000009F116619EF11C011A011F3123E
:1054B800A212F216F91143133D139C163513203A24
:1054C8002000496E6974696174696E672E2E2E0D0D
:1054D8000A00507265737320746F20556E6C6F6389
:1054E8006B00427265616B20706F696E7420310DBC
:1054F8000A00436C6F636B207570646174652D3EA0
:105508002000556E6C6F636B6564004672657100B0
:1055180044757479204379636C65202825290043F4
:105528004357004D656E75206C766C20323A20002A
:10553800446972656374696F6E3A2000207C20614B
:1055480074747269627574655F73656C3A2000469D
:1055580072657120697320636F6E6669726D656428
:105568002100207C20436F756E7465723A200020FC
:105578007C20467265715F73656C3A2000457869D6
:1055880074206D656E75206C766C20322100447530
:105598007479206379636C6520697320636F6E6624
:1055A80069726D65642100207C20647574792063BC
:0E55B80079636C652073656C6563743A20003E
:1055C6000024F4009A010E00140003000200721079
:0C55D6000B0010000200000051298000B2
:00000001FF
