:100000000C94E0020C9408030C9408030C9408036D
:100010000C9408030C9408030C9408030C94080334
:100020000C9408030C9408030C9408030C94080324
:100030000C9408030C9408030C9408030C94080314
:100040000C9408030C9408030C9408030C94080304
:100050000C9408030C9408030C9408030C940803F4
:100060000C9408030C9408030C9408030C940803E4
:100070000C9408030C9408030C9408030C940803D4
:100080000C9408030C9408030C9408030C940803C4
:100090000C9418140C9408030C9408030C94080393
:1000A00005A84CCDB2D44EB93836A9020C50B9913E
:1000B0008688083CA6AAAA2ABE000000803F00004D
:1000C0000000003E5B4F5B3E3E6B4F6B3E1C3E7C38
:1000D0003E1C183C7E3C181C577D571C1C5E7F5EE6
:1000E0001C00183C1800FFE7C3E7FF0018241800A5
:1000F000FFE7DBE7FF30483A060E2629792926403C
:100100007F050507407F05253F5A3CE73C5A7F3E67
:100110001C1C08081C1C3E7F14227F22145F5F00F9
:100120005F5F06097F017F006689956A6060606095
:100130006094A2FFA29408047E040810207E201080
:1001400008082A1C08081C2A08081E101010100C89
:100150001E0C1E0C30383E3830060E3E0E060000D7
:1001600000000000005F00000007000700147F147B
:100170007F14242A7F2A12231308646236495620EA
:10018000500008070300001C2241000041221C000F
:100190002A1C7F1C2A08083E0808008070300008CE
:1001A00008080808000060600020100804023E51A2
:1001B00049453E00427F4000724949494621414934
:1001C0004D331814127F1027454545393C4A49499B
:1001D0003141211109073649494936464949291E05
:1001E00000001400000040340000000814224114F4
:1001F00014141414004122140802015909063E4146
:100200005D594E7C1211127C7F494949363E41416D
:1002100041227F4141413E7F494949417F090909C6
:10022000013E414151737F0808087F00417F410032
:100230002040413F017F081422417F404040407FE1
:10024000021C027F7F0408107F3E4141413E7F092E
:100250000909063E4151215E7F091929462649496F
:10026000493203017F01033F4040403F1F204020AF
:100270001F3F4038403F63140814630304780403AD
:100280006159494D43007F4141410204081020005B
:100290004141417F040201020440404040400003CC
:1002A00007080020545478407F2844443838444498
:1002B0004428384444287F385454541800087E0990
:1002C0000218A4A49C787F0804047800447D4000B0
:1002D0002040403D007F1028440000417F40007CCA
:1002E000047804787C080404783844444438FC18C2
:1002F00024241818242418FC7C08040408485454A6
:10030000542404043F44243C4040207C1C204020D2
:100310001C3C4030403C44281028444C9090907C39
:100320004464544C4400083641000000770000004B
:100330004136080002010204023C2623263C1EA18D
:10034000A161123A4040207A3854545559215555EC
:10035000794122545478422155547840205455799B
:10036000400C1E527212395555555939545454592E
:1003700039555454580000457C410002457D4200E7
:1003800001457C407D1211127DF0282528F07C5417
:100390005545002054547C547C0A097F4932494910
:1003A00049323A4444443A324A4848303A41412179
:1003B0007A3A42402078009DA0A07D3D4242423DD5
:1003C0003D4040403D3C24FF2424487E4943662B69
:1003D0002FFC2F2BFF0929F620C0887E090320540B
:1003E0005479410000447D413048484A3238404009
:1003F000227A007A0A0A727D0D19317D2629292F69
:1004000028262929292630484D4020380808080880
:1004100008080808382F10C8ACBA2F102834FA0082
:10042000007B000008142A142222142A1408550004
:10043000550055AA55AA55AAFF55FF55FF000000C3
:10044000FF00101010FF00141414FF001010FF0024
:10045000FF1010F010F0141414FC001414F700FF37
:100460000000FF00FF1414F404FC141417101F10F4
:10047000101F101F1414141F00101010F0000000A3
:10048000001F101010101F10101010F010000000AE
:10049000FF101010101010101010FF10000000FFBF
:1004A000140000FF00FF00001F10170000FC04F400
:1004B00014141710171414F404F40000FF00F714B8
:1004C000141414141414F700F7141414171410103F
:1004D0001F101F141414F4141010F010F000001F5B
:1004E000101F0000001F14000000FC140000F0109A
:1004F000F01010FF10FF141414FF141010101F0040
:10050000000000F010FFFFFFFFFFF0F0F0F0F0FF41
:10051000FFFF0000000000FFFF0F0F0F0F0F384418
:10052000443844FC4A4A4A347E02020606027E02ED
:100530007E0263554941633844443C04407E201E9A
:100540002006027E020299A5E7A5991C2A492A1CC9
:100550004C7201724C304A4D4D303048784830BCB6
:10056000625A463D3E494949007E0101017E2A2AE0
:100570002A2A2A44445F444440514A444040444A61
:1005800051400000FF0103E080FF000008086B6B92
:10059000083612362436000609090600001818002D
:1005A00000001010003040FF0101001F01011E007B
:1005B000191D1712003C3C3C3C00000000007C145C
:1005C00011241FBECFEFCDBFDFE3DEBF18E2A0E0F6
:1005D000B8E2E5E9F3E402C005900D92AA30B10754
:1005E000D9F728E2AAE0B8E201C01D92A43AB20706
:1005F000E1F712E0C0EED2E004C02197FE010E94B4
:10060000831CCF3DD107C9F70E9405150C94CA2061
:100610000C94000090E0FC01EE50FD4720812F3F3C
:1006200051F088529D47DC01EC91B0E2EB9FF00164
:100630001124FC5F218308958B3210F40C940A037B
:100640000895282F30E0F901EE50FD4740814F3FDB
:1006500009F44EC08B3258F4F901EC55FD47E081A6
:10066000EE2329F0E13099F010F0E63010F1F901B5
:10067000E852FD47E081A0E2EA9FF0011124FC5F0F
:100680008081842311F1672BF1F446830895E09172
:10069000010AD901A254BD475C915C5F81E090E002
:1006A00001C0880F5A95EAF780958E238093010A3E
:1006B000DECF80E1E89FF0011124E05AF54F8181FF
:1006C0008F7E8183D4CF4583089522543D47D9013D
:1006D0008C91309771F08F3F61F07096E80FF11DAB
:1006E0009FB7F8948081672B39F4877F80839FBF01
:1006F0000895F0E0E0E0F4CF8860F8CF8B3210F49A
:100700000C9421030895CF93DF938FB7F894209131
:100710004028309141284091422850914328E0914F
:10072000BA0A9091B60A90FF06C02F5F3F4F4F4F15
:100730005F4FE091BA0A8FBFA0913E28B0913F2849
:10074000C0913C28D0913D280E94A71CEC9F9001AD
:10075000ED9F300D1124620F731F811D911DDF91DC
:10076000CF9108958F929F92AF92BF92CF92DF92D6
:10077000EF92FF924B015C010E9483036B017C01AD
:10078000A8EEB3E0A50194010E94A71CC60ED71ED7
:10079000E81EF91EC616D706E806F90618F40E94E8
:1007A0008303F8CF0E9483036C157D058E059F059A
:1007B000C8F3FF90EF90DF90CF90BF90AF909F90E5
:1007C0008F900895AF92BF92CF92DF92EF92FF92F7
:1007D0000F931F93CF93DF936C017B018B01040F69
:1007E000151FEB015E01AE18BF08C017D10759F005
:1007F0006991D601ED91FC910190F081E02DC60147
:100800000995892B79F7C501DF91CF911F910F9140
:10081000FF90EF90DF90CF90BF90AF900895089534
:10082000EF92FF920F931F93CF93DF937C01EB0125
:100830008B01040F151FC017D10759F0D701ED9197
:10084000FC910480F581E02D6881C70109958993A9
:10085000F2CFDF91CF911F910F91FF90EF9008950C
:100860000F931F93CF93DF93EC018B018091C0080E
:10087000E881F9810480F581E02D86FD13C0612FA8
:10088000CE010995182FE881F9810480F581E02DCA
:10089000602FCE010995082FC801DF91CF911F91DC
:1008A0000F910895CE010995082FE881F981048000
:1008B000F581E02D612FCE010995182FEDCF0000B5
:1008C0006093C4088091C30887FFFCCF8091C4085F
:1008D00008958F929F92AF92BF92CF92DF92EF9244
:1008E000FF920F931F93CF93DF93FC0180858823A2
:1008F00019F081FF0EC07894DF91CF911F910F9175
:10090000FF90EF90DF90CF90BF90AF909F908F902F
:10091000089580FFF1CF82849384A484B584C12C90
:10092000D12C760110E09401A501B601C701A0E029
:100930000E94CF1C99F1217030E040E050E060E06F
:1009400070E080E090E00E94CF1CD9F0D0E0C0E0E1
:10095000103370F4C12FC695C695C69580E2C89F26
:10096000E0011124C05FDB4F812F8770C80FD11DBC
:10097000CF01810F911DDC0152968C919881892BBA
:1009800088839401A501B601C70101E00E94B41C4F
:1009900049015A016B017C011F5FC5CF8684978492
:1009A000A088B188C12CD12C760110E29401A50158
:1009B000B601C701A0E00E94CF1C09F49DCF2170B1
:1009C00030E040E050E060E070E080E090E00E94C5
:1009D000CF1CD9F0D0E0C0E0103370F4C12FC69521
:1009E000C695C695B0E2CB9FE0011124C05FDB4FF6
:1009F000812F8770C80FD11DCF01810F911DDC01A0
:100A000052968C919881892B88839401A501B60117
:100A1000C70101E00E94B41C49015A016B017C012D
:100A20001F5FC4CFFC016F3F710581F1808581FD9F
:100A30002DC0603271055CF581E090E002C0880F46
:100A4000991F6A95E2F780959095092E000CAA0BE4
:100A5000BB0B428553856485758584239523A62326
:100A6000B72382879387A487B58782859385A485DA
:100A7000B585892B8A2B8B2B49F486859785A08990
:100A8000B189892B8A2B8B2B09F41086089560522B
:100A9000710981E090E002C0880F991F6A95E2F722
:100AA00080959095092E000CAA0BBB0B46855785A7
:100AB0006089718984239523A623B7238687978726
:100AC000A08BB18BD2CFFC016F3F7105E9F1603390
:100AD00071051CF082E080870895808581608087A1
:100AE00060327105C4F481E090E002C0880F991F64
:100AF0006A95E2F7092E000CAA0BBB0B42855385C1
:100B000064857585842B952BA62BB72B82879387BD
:100B1000A487B58708956052710981E090E002C012
:100B2000880F991F6A95E2F7092E000CAA0BBB0BE0
:100B30004685578560897189842B952BA62BB72B09
:100B400086879787A08BB18B0895E0ECF8E0208131
:100B50002E7F2083FC0117820895E0ECF8E082816B
:100B60008E7F82830895E0ECF8E082818160828349
:100B70000895AF92BF92CF92DF92EF92FF920F93C0
:100B80001F93CF93DF93EC016B017A01590189A583
:100B90009AA58617970779F48DA59EA582179307C6
:100BA00051F48BA59CA58417950729F48FA598A9C6
:100BB0008017910791F18F8D98A14FA19501215038
:100BC00031092C0D3D1D50E0240F351F4C0D5D1DCE
:100BD000DC01ED91FC910488F589E02D6AE209952C
:100BE0008F8D98A148A59801215031092E0D3F1DE8
:100BF00050E0240F351F4E0D5F1DDC01ED91FC917F
:100C00000488F589E02D6BE20995C9A6DAA6EBA662
:100C1000FCA6ADA6BEA60FA718AB8F8D98A1DC01D0
:100C2000ED91FC910680F781E02D6CE2DF91CF9190
:100C30001F910F91FF90EF90DF90CF90BF90AF90FA
:100C40000994DC01ED91FC910480F581E02D09947B
:100C5000CF92DF92EF92FF920F931F93CF93DF9388
:100C60008C0169017A01EB0181E0C81AD108E10821
:100C7000F108EFEFCE16DE06EE06FE06A1F0888143
:100C80006981229680930A2860930B28F801818558
:100C900092850E94210660910A28F801818592853B
:100CA0000E942106E1CFDF91CF911F910F91FF901C
:100CB000EF90DF90CF900895CF92DF92EF92FF9266
:100CC000CF93DF93EC0169017A0160930A28709356
:100CD0000B2881E0C81AD108E108F1088FEFC81687
:100CE000D806E806F80669F060910B2889859A8590
:100CF0000E94210660910A2889859A850E94210612
:100D0000E8CFDF91CF91FF90EF90DF90CF900895E3
:100D1000CF93DF93EC0160930A2870930B28672F21
:100D200089859A850E94210660910A2889859A857D
:100D3000DF91CF910C942106FC01818592850C9462
:100D40002106CF93DF93EC01EE85FF8580819B899F
:100D50008923808360930A2870930B28672F8985E5
:100D60009A850E94210660910A2889859A850E94A9
:100D70002106EE85FF8580819A89892B8083DF910A
:100D8000CF910895CF93DF93EC01EE85FF858081AD
:100D90009B898923808389859A850E942106EE8517
:100DA000FF8580819A89892B8083DF91CF91089577
:100DB000FC0180858F3F31F0A485B5858C919089A9
:100DC000892B8C938385882349F081859285DC016A
:100DD000ED91FC910088F189E02D099408950F931D
:100DE0001F93CF93DF93EC018B858823C9F089850E
:100DF0009A85DC01ED91FC910684F785E02D009148
:100E00004C2810914D2820914E2830914F28409128
:100E1000502850915128609152287091532809957B
:100E2000EE85FF8580819A89892B808388858F3F15
:100E300031F0EC85FD858081998989238083DF915C
:100E4000CF911F910F910895DC015F968D919C9138
:100E5000DC01ED91FC910484F585E02D0994DC0121
:100E60005F968D919C91DC01ED91FC910480F58160
:100E7000E02D0994AF92BF92CF92DF92EF92FF9252
:100E80000F931F93CF93DF93EC015901E881F98110
:100E900000A0F1A1E02D09959501D8010E94891CBF
:100EA0009B01AC01E881F98102A0F3A1E02DB7011B
:100EB000CE01DF91CF911F910F91FF90EF90DF90C6
:100EC000CF90BF90AF900994EF92FF920F931F9332
:100ED000CF93DF9357FD38C0DC011A96ED91FC915A
:100EE000E417F5078CF12115310571F137FF07C0C3
:100EF000F90131966E0F7F1F319521953109DC0183
:100F00001896ED91FC91E617F707F4F0EB01C20F8C
:100F1000D31FDE011197B7FD17C077FF03C09E01F5
:100F200070E060E0EA17FB072CF49F01261B370BEB
:100F30002F5F3F4FDC01ED91FC910684F785E02D9A
:100F4000780101E010E00995DF91CF911F910F9199
:100F5000FF90EF900895EF92FF920F931F93CF931E
:100F6000DF9377FD39C0DC011896ED91FC91E6170F
:100F7000F70794F12115310579F137FF07C0F90121
:100F800031964E0F5F1F319521953109DC011A967C
:100F9000ED91FC91E417F507FCF0EA01C20FD31FB5
:100FA000DE011197B7FD18C057FF03C09E0150E046
:100FB00040E0EA17FB072CF49F01241B350B2F5F41
:100FC0003F4FDC01ED91FC910684F785E02D78011F
:100FD000890121E030E00995DF91CF911F910F91B8
:100FE000FF90EF900895DC015F968D919C91DC015C
:100FF000ED91FC91008CF18DE02D0994EF92FF9220
:101000000F931F93CF93DF93EC017901E881F9816E
:1010100000A0F1A1E02D01E010E021E030E0099511
:101020008F8D98A1DC01ED91FC910484F585E02D74
:10103000B701DF91CF911F910F91FF90EF9009942D
:10104000DC015F968D919C91DC01ED91FC91028019
:10105000F381E02D0994EF92FF920F931F93CF93AA
:10106000DF93EC0129A98F8D98A1DC01ED91FC9112
:101070000190F081E02D2F3FA1F10995E881F981E0
:1010800006A0F7A1E02DCE010995E881F981008C39
:10109000F18DE02D6F89CE0109950E811F81EC80C5
:1010A000FD80E881F9810484F585E02DCE01099564
:1010B000E881F98100A0F1A1E02D970150E040E026
:1010C00070E060E0CE010995E881F9810688F78932
:1010D000E02DCE01DF91CF911F910F91FF90EF9006
:1010E00009942FEFCACFFC0111AA0C942B08089584
:1010F0000895FC016370678B858D968D238D348DEB
:10110000AC0141505109D9011197613011F06330A0
:1011100049F4848395832683378340875187A28748
:10112000B38708952483358386839783A087B18707
:10113000428753870895CF93DF93EC010E9479088B
:101140008F898230A9F08330B9F09CA18130C1F43D
:101150009FA38DA188A78FEF9FEF89A79AA78BA741
:101160009CA78DA79EA78FA798ABDF91CF910895DD
:101170008DA18FA38EA1EECF8EA18FA38BA1EACFDD
:101180008BA18FA398A7E7CF1F93CF93DF93EC0199
:101190000E949B08EF89E15018E0E33020F4F0E072
:1011A000E856FE4710818F8D98A1DC01ED91FC91EE
:1011B0000280F381E02D09958F8D98A1DC01ED91DE
:1011C000FC910680F781E02D66E309958F8D98A14B
:1011D000DC01ED91FC910284F385E02D612F0995EE
:1011E0008F8D98A1DC01ED91FC910480F581E02DBB
:1011F000DF91CF911F91099408956F927F928F9202
:101200009F92AF92BF92CF92DF92EF92FF920F9395
:101210001F93CF93DF936C015B014901EA013A010F
:10122000600E711EC615D70574F4D601ED91FC91C0
:101230000288F389E02D87019401AE01B501C60152
:1012400009952196EFCFDF91CF911F910F91FF90DC
:10125000EF90DF90CF90BF90AF909F908F907F9056
:101260006F9008956F927F928F929F92AF92BF92EC
:10127000CF92DF92EF92FF920F931F93CF93DF9362
:1012800057012115310509F457C00115110509F45D
:1012900053C037FF07C0F90131966E0F7F1F31959C
:1012A00021953109EC01A885B985A617B7070CF47B
:1012B00043C017FF07C0F80131964E0F5F1F11950D
:1012C00001951109EC01EA85FB85E417F507A4F106
:1012D0006B01C20ED31E3601D1E06D1A710877FC86
:1012E0002BC07A01E00EF11E4701C1E08C1A910873
:1012F00097FC22C077FF03C0960170E060E057FFC3
:1013000003C0870150E040E0A615B7052CF49D010D
:10131000261B370B2F5F3F4FE815F9052CF48F0183
:10132000041B150B0F5F1F4FDC01ED91FC91068430
:10133000F785E02D75010995DF91CF911F910F91F0
:10134000FF90EF90DF90CF90BF90AF909F908F90E5
:101350007F906F90089577FD17C0DC011896ED918E
:10136000FC911997E617F7077CF057FD0DC01A9608
:10137000ED91FC911B97E417F50734F0ED91FC918A
:101380000284F385E02D099408952F923F924F92A5
:101390005F926F927F928F929F92AF92BF92CF9205
:1013A000DF92EF92FF920F931F93CF93DF93CDB70E
:1013B000DEB76597CDBFDEBF8C8B9D8B2B016A019D
:1013C000922E18015701DC0159968D919C915A97E4
:1013D0005496AC91EC89FD8905894085518500972B
:1013E00009F4FCC0FC013496649132972591349144
:1013F000961AF7E09F9E200D311D1124FC01659186
:1014000074916A877B87F901659174916F837887FE
:10141000F9013296749179833196B491B9873196F6
:101420006491FC013696F490F901359674917D83B0
:10143000319684918B83441555050CF43BC2EC899D
:10144000FD89828593858C159D050CF433C28980B6
:10145000861608F4862E8A9E40011124C201880D4A
:10146000991D181619060CF025C2F09E8001112452
:10147000C601800F911F181619060CF01BC2AC890B
:10148000BD89ED91FC9111970484F585E02DCD0186
:101490000995A214B304C9F08F2D90E0880F991F0D
:1014A00063E070E00E944D1CEC89FD892589269F30
:1014B000C001279F900D1124A601481B590B7501EF
:1014C0009401B201CF010E943209712C612CA12C30
:1014D000B12C2B81022E000C330B2B833C834D81CE
:1014E000042E000C550B4D835E832C0D3D1D288B67
:1014F000398B440D551D4A8B5B8B5985651608F059
:1015000008C1912C812C6B817C81660D771D6C87C5
:101510007D8788899989860D971D8E879F878A2D5B
:10152000880D9981891608F053C0877061F48F8106
:1015300098850196EA85FB85AF81B885EA0FFB1F88
:10154000B4908F839887B7FE12C0EC89FD89848997
:101550006589813089F4613079F491014E855F8528
:101560006A897B89680D791DCF010E94AB09BB0C8C
:10157000BFEF8B1A9B0AD3CF70E0AC89BD8956961A
:101580002C9130E090E08B01021B130BFC01E21B5D
:10159000F30B9F01AC85BD85A69FA001A79F500DB1
:1015A000B69F500D11244C0D5D1DED81FE81E80D9F
:1015B000F91DE89FB001E99F700DF89F700D11248F
:1015C000640D751D71018C899D890E943209CFCFF0
:1015D000E981AE0EFFEF6F1A7F0A8FCF46175707CC
:1015E0000CF468C1EC89FD89828593858C159D0575
:1015F0000CF460C1CB01F6E0AF9F800D911D11246A
:10160000181619060CF056C128E0029F800111241B
:101610000C0D1D1D101611060CF04CC1AC89BD89B6
:10162000ED91FC9111970484F585E02DCD0109958C
:10163000B5E09B9EC0011124E1E0F0E0E983FA836C
:10164000712C612C9C0122543F4F2F833887EF81EE
:10165000F885E60DF71DE491912C812CA201460D31
:10166000571D4B835C836E2F70E06D837E83E0FF9C
:10167000E4C0AC89BD8954962C91549755960C9131
:101680005597213009F064C0013009F061C0910123
:10169000A601480D591D6B817C81CD010E94AB09CB
:1016A000ED81FE81F595E795FFEF8F1A9F0A28E0FF
:1016B00082169104C1F63FEF631A730A49815A8179
:1016C0004F5F5F4F49835A8355E06516710409F0F7
:1016D000BECFA214B304E9F0AC89BD8954968C91B5
:1016E000549755960C915597813009F0D0C0013030
:1016F00009F0CDC0B2016B5F7F4FED91FC91119766
:101700000088F189E02D850128E030E0A601CD01B7
:101710000995AC89BD89ED91FC9111970688F789EF
:10172000E02DCD016596CDBFDEBFDF91CF911F913A
:101730000F91FF90EF90DF90CF90BF90AF909F9070
:101740008F907F906F905F904F903F902F90099473
:10175000EC89FD89868910E030E0809EA001819EA1
:10176000500D909E500D11244C0D5D1D629EB001D8
:10177000639E700D729E700D1124640D751D88237B
:1017800009F457C090E0081B190B281B390B710195
:10179000CF010E943209AC89BD8955960C915597AD
:1017A00010E056962C91569730E0089DA001099DB7
:1017B000500D189D500D11244C0D5D1D54968C91AB
:1017C0005497E981FA818E9FB0018F9F700D11248B
:1017D000640D751D621B730B7501CD010E943209EA
:1017E000AC89BD8956960C91569710E054968C9111
:1017F000549790E09C01201B310B5596EC91559726
:10180000B4016F5F7F4FE69FA001E79F500D112449
:101810004C0D5D1D401B510B689EB001699E700D03
:10182000789E700D1124640D751DCD010E94320942
:1018300037CF71018C899D89F9CFA214B30409F4C3
:101840002FCFEC89FD8924890589213051F401309D
:1018500041F49501A601480D591D6B817C81CF0192
:101860001DCF10E030E0089DA001099D500D189D8E
:10187000500D11244C0D5D1D629EB001639E700DD4
:10188000729E700D1124640D751D7501D3CFB8E0E3
:101890000B9F80011124282F30E0B201E5E08E9FDC
:1018A000600D711D11247501A6018C899D890E940E
:1018B00032092FCF6596CDBFDEBFDF91CF911F914B
:1018C0000F91FF90EF90DF90CF90BF90AF909F90DF
:1018D0008F907F906F905F904F903F902F900895E2
:1018E000DF92EF92FF920F931F93CF93DF93EC0160
:1018F000262F898D9A8D009709F467C06A30C1F44C
:101900001C861D86FC013696E4912D898E859F8567
:10191000E29F800D911D11248E879F8781E090E0CA
:10192000DF91CF911F910F91FF90EF90DF9008957D
:101930006D30A1F3FC0134963491631778F331963E
:10194000E491E61758F3FC01329645915491631BDC
:10195000362FFA0167E0369FE00DF11D1124349611
:10196000D490388D3323E1F03C894C855D85D39E3E
:10197000400D511D11244150510968857985641726
:10198000750774F44E855F851C861D860696FC01DE
:1019900084919D89899F400D511D11244E875F8739
:1019A000EA88FB88088919894E855F856C857D8565
:1019B000CE010E94C5092C898C859D85D29E800D03
:1019C000911D11248C879D87A9CF6A3061F41C86F4
:1019D0001D868D89F8E08F9F900111248E859F854B
:1019E000820F931F99CF6D3009F498CF888D88238B
:1019F000D9F03C898C859D8546E0349F800D911DF2
:101A00001124019748855985481759076CF44E856C
:101A10005F851C861D868D8968E0869FC001112424
:101A2000840F951F8E879F87EA88FB88088919890C
:101A30004E855F856C857D85CE010E94C5092C8908
:101A40008C859D85E6E02E9F800D911D1124BACFD7
:101A5000AF92BF92CF92DF92EF92FF920F931F93BC
:101A6000CF93DF936C015A01EB017B01E20EF31E71
:101A7000CE15DF0544F49801A501BE01C6010E9400
:101A8000AB092196F5CFDF91CF911F910F91FF9078
:101A9000EF90DF90CF90BF90AF900895AF92BF923C
:101AA000CF92DF92EF92FF920F931F93CF93DF932A
:101AB0006C015B01EA017A01E20EF31ECE15DF052F
:101AC00044F49801AE01B501C6010E94AB0921960C
:101AD000F5CFDF91CF911F910F91FF90EF90DF90A5
:101AE000CF90BF90AF9008952F923F924F925F9208
:101AF0006F927F928F929F92AF92BF92CF92DF921E
:101B0000EF92FF920F931F93CF93DF93CDB7DEB782
:101B10002697CDBFDEBF4C016B014D835E8359011B
:101B20006217730791F50417150734F49D818E81B0
:101B30000D831E83092F182F2D813E81021B130B4D
:101B400098012F5F3F4FD401ED91FC910088F189FE
:101B5000E02D87014D815E81B601C401099526966D
:101B6000CDBFDEBFDF91CF911F910F91FF90EF901E
:101B7000DF90CF90BF90AF909F908F907F906F90AD
:101B80005F904F903F902F9008952D813E812017B8
:101B9000310799F4A616B70624F48D2D6501A62EFB
:101BA000B82E95012C193D092F5F3F4FD401ED91BF
:101BB000FC910288F389E02DCCCF2D813E81180164
:101BC000221A330A2017310724F02D803E80201A74
:101BD000310A25014C185D08CA14DB041CF02601EB
:101BE0004A185B08421453045CF49A2D8B2D58015B
:101BF000092F182F9C2D8D2DCD80DE809D838E8307
:101C0000AC14BD045CF49D818E810D831E83092F6D
:101C1000182F9C2D8D2D6501A92EB82EC5018C196C
:101C20009D0989839A83AD81BE81A017B107ACF568
:101C300098012A1B3B0B2B833C8369807A80759427
:101C40006794AD81BE81A017B10774F10FEF1FEF4C
:101C5000AC14BD040CF483CF9701A6016D817E8185
:101C6000421453041CF04D815E81B601C4010E94F0
:101C7000AB092B813C81621A730A77FE0AC0898105
:101C80009A81680E791EAD81BE81A00FB11FAD8310
:101C9000BE83BFEFCB1ADB0ADBCF8D819E81801B19
:101CA000910B8B839C83C9CF01E010E0D1CF90E0F2
:101CB00080E008951F93CF93DF93EC01162FE88106
:101CC000F9810280F381E02D0995E881F981068090
:101CD000F781E02D612FCE010995E881F98104801B
:101CE000F581E02DCE01DF91CF911F91099460E144
:101CF000FC01878D90A10E945A0E68E770E080E099
:101D000090E00C94B20361E1FC01878D90A10E94E8
:101D10005A0E68E770E080E090E00C94B203FC019A
:101D2000878D90A122A1222321F0662321F060E279
:101D300003C06623E1F361E20C945A0EEF92FF9226
:101D40000F931F93CF93DF93EC018A017901E88110
:101D5000F9810680F781E02D099500930C281093F6
:101D60000D28E881F9810284F385E02D612FCE01F1
:101D700009950CE018E2E881F9810284F385E02DF1
:101D8000D8016C91CE010995E0920C28F0920D28B3
:101D9000E881F9810284F385E02D6F2DCE0109954C
:101DA000E881F9810284F385E02DD8016C91CE01A0
:101DB000DF91CF911F910F91FF90EF900994EF92D7
:101DC000FF920F931F93CF93DF93EC017A01890168
:101DD000E881F9810680F781E02D0995E881F98194
:101DE0000484F585E02DB701CE010995E881F981DC
:101DF0000484F585E02DB801CE01DF91CF911F91CC
:101E00000F91FF90EF9009940F931F93CF93DF935F
:101E1000EC018A01E881F9810084F185E02D0995C2
:101E2000E881F9810484F585E02DB801CE01DF91C8
:101E3000CF911F910F9109940F931F93CF93DF932D
:101E4000EC018A01E881F9810680F781E02D09958E
:101E5000E881F9810484F585E02DB801CE01DF9198
:101E6000CF911F910F9109941F93CF93DF93EC01B2
:101E7000142FE881F9810680F781E02D0995E8812A
:101E8000F9810284F385E02D612FCE01DF91CF919E
:101E90001F910994EF92FF920F93CF93DF93E091FC
:101EA0000E28F0910F282223D1F0C0912628D0913E
:101EB0002728DF0130E020E0ED90FC901197E81634
:101EC000F90639F41296ED90FC901397E616F70692
:101ED000C1F114962F5F3F4FC217D30768F7002355
:101EE00011F120912628309127282F5F3F4F220F94
:101EF000331F220F331FE20FF31FA0911428B0915C
:101F0000152830E020E0C081D181C817D90729F415
:101F1000C281D381C617D707A1F034962F5F3F4FF8
:101F2000A217B30780F79A01AB01BC018091542836
:101F300090915528DF91CF910F91FF90EF900C94E5
:101F4000AB09DF91CF910F91FF90EF9008952F9201
:101F50003F924F925F926F927F928F929F92AF9239
:101F6000BF92CF92DF92EF92FF920F931F93CF9386
:101F7000DF93CDB7DEB76597CDBFDEBF8C8B9D8B72
:101F80004B010C871D87E88AF98A1C2DA9826217EC
:101F900073070CF09EC0B901681979096A837B83C5
:101FA000EC89FD89E417F5070CF099C01A012E1A87
:101FB0003F0A6A817B81261637060CF499C0922F5E
:101FC000832F9A01492F582F982D892D4F019C8BD3
:101FD0008D8B5901A818B908EC89FD89E417F5071C
:101FE0000CF09AC0BA016E1B7F0B6A877B872501B4
:101FF000559447949FEF821693060CF491E0EC8978
:10200000FD898FEFE417F5070CF481E0292F990F74
:10201000330B2E873F87CC84DD841C821D82682F82
:10202000880F770B6A8B7B8B8C819D81A816B906F4
:1020300008F49BC0EA81FB81EC88FD8834012E16F0
:102040003F061CF474016C887D88F6010190F081D4
:10205000E02DEE83FF83F6010280F381E02DE88717
:10206000F9872E813F812615370509F05CC0EE15F2
:10207000FF0509F058C0111103C03981332341F025
:102080000981212F4FE150E0B701C3010E944A0F9F
:102090002A853B854216530654F46C897D898A89CA
:1020A0009B89680F791F6C8B7D8B4A0C5B1CEA85C2
:1020B000FB854E1A5F0A2E853F85820E931E6C812A
:1020C0007D816F5F7F4F6C837D8374E0C70ED11C71
:1020D000ABCFCB01821B930B8A839B8361CF2C8870
:1020E0003D88241A350A8A819B812816390644F4D2
:1020F000821693060CF46DCF5401A21AB30A6CCF6A
:10210000922F832F9A01492F582F982D892D8C8833
:102110009D889C8B8D8BF0CF8C899D89841B950B22
:102120008A879B8764CF0981212F4FE150E0B70157
:10213000C3010E944A0F6E817F81161617062CF08C
:10214000888599851816190654F40981212F4FEFB7
:102150005FEF688579858E819F810E944A0FF60125
:1021600060827182E282F38293CFC50101968A83F5
:102170009B837501EE0CFF1CEE0CFF1CEC85FD85AE
:10218000EE0EFF1E288939896A817B8162177307E9
:1021900000F5F7018481958166817781181619060B
:1021A0001CF01616170634F40981212F4FEF5FEF4C
:1021B0000E944A0FF70114821582168217822A8123
:1021C0003B812F5F3F4F2A833B8334E0E30EF11CBA
:1021D000D9CF6596CDBFDEBFDF91CF911F910F9113
:1021E000FF90EF90DF90CF90BF90AF909F908F9037
:1021F0007F906F905F904F903F902F9008950E9436
:10220000001E0C94771D6F927F928F929F92AF92D7
:10221000BF92CF92DF92EF92FF921F93CF93DF9303
:102220005C01DC0191968C918F3F21F10E941C038F
:1022300061E070E0E50189A10E947E0364E670E040
:1022400080E090E00E94B20370E060E089A10E940B
:102250007E0368E770E080E090E00E94B20361E0F6
:1022600070E089A10E947E0368E770E080E090E062
:102270000E94B203F501E78CF0A0D0E0C0E086E751
:10228000882E83E8982EFE01E556FE47E0816E0118
:10229000FFEFCF1ADF0AEB3008F07BC0F0E0ED5A19
:1022A000FE4E0C94831CA211AE1187116E11D81131
:1022B000B2115E11AC11B011B711BE1110E01F5F69
:1022C000D601A556BE47E701E881F9810680F7816E
:1022D000E02D6C91C7010995E60101C011E03E01B6
:1022E000FFEF6F1A7F0AC30185569E476C01D12FFD
:1022F000D15008F45FC0D6016D916D01D701ED9109
:10230000FC910284F385E02DC7010995F1CF10E01F
:10231000F601E556FE47808180930D282296FE0146
:10232000E556FE47808180930C2860910C287091BF
:102330000D28D701ED91FC910084F185E02DC701B6
:102340000995CDCFD701ED91FC910280F381E02D6D
:10235000C701099510E0C3CF11E0B1CF10E0B0CFB5
:1023600012E0D6CFF601E556FE471081B5CFD70172
:10237000ED91FC910480F581E02DEACFF601E55660
:10238000FE47608170E090E080E00E94B203E601C9
:10239000E1CF1F92EF93DF93CF939F928F920E9492
:1023A000051E0F900F900F900F900F900F90D2CFAF
:1023B00012E095CFE301C10FD11DC930B1E0DB07B9
:1023C00008F461CFE5018AA1882391F061E28F8D45
:1023D00098A1DF91CF911F91FF90EF90DF90CF9068
:1023E000BF90AF909F908F907F906F900C945A0EFB
:1023F000DF91CF911F91FF90EF90DF90CF90BF9032
:10240000AF909F908F907F906F900895CF93DF93C0
:10241000EC014F3F8FEF58076807780721F440E041
:1024200052E16AE770E04A835B836C837D832E838D
:102430008F810E941C0361E070E08F810E947E0307
:1024400088858F3F39F00E941C0361E070E0888529
:102450000E947E03EF81EB320CF06EC0AE2F0E2E89
:10246000000CBB0BA852BD478C91863008F064C0AD
:10247000A0E28A9FC00111249C5F04968E879F87EB
:102480008FEFEB3234F40E2E000CFF0BEE50FD47B5
:1024900080818A8B80958B8BE885EF3FF9F0EB325A
:1024A0000CF04DC0AE2F0E2E000CBB0BA852BD473A
:1024B0008C91863008F043C0B0E28B9FC00111249C
:1024C0009C5F04968C879D878FEFEB3234F40E2E41
:1024D000000CFF0BEE50FD478081888B888980952A
:1024E000898B89859A85DC01ED91FC910688F789B5
:1024F000E02D09958E818F3F11F482E08E838E81CD
:10250000082E000C990B4A815B816C817D81409380
:102510004C2850934D2860934E2870934F288093F9
:1025200050289093512881E090E080935228909316
:102530005328DF91CF91089590E080E09ECF90E006
:1025400080E0BFCFCF92DF92EF92FF920F93FC011A
:10255000C12CB9E0DB2EBDE3EB2EF12CC082D18281
:10256000E282F3821482158281E090E08683978371
:10257000C0900028D0900128E0900228F090032815
:10258000F694E794D794C79490E04C155D056E05DA
:102590007F0540F4F694E794D794C7949F5F9630F4
:1025A000A1F797E004600187892F8095A82FA1707B
:1025B000B0E084E0AA0FBB1F8A95E1F791629A2BE5
:1025C00080E0232B09F480E4982B90870F91FF90F3
:1025D000EF90DF90CF9008950F931F93CF93DF93E9
:1025E000CDB7DEB72A97CDBFDEBF8C01FC01878156
:1025F00081110CC0108611861286138614861586EA
:1026000016861786108A118A81E087838091E305F8
:10261000F8019681892B8093E30583810E941C0336
:10262000F80184810E941C038091C108846080931A
:10263000C1088091C00881628093C00840914428FD
:10264000509145286091462870914728009148286C
:1026500020914A2830914B28CE0101960E94A21267
:1026600099858A859093C0088093C1082A96CDBF2A
:10267000DEBFDF91CF911F910F9108955F926F920E
:102680007F928F929F92AF92BF92CF92DF92EF9202
:10269000FF920F931F93CF93DF93CDB7DEB762976F
:1026A000CDBFDEBF3C010B871C872D873E87042FE3
:1026B0004F87588B698B7A8B29893A894B855C8542
:1026C0006D857E85CE0101960E94A21259841A85DD
:1026D000D30118968C91882319F081FF18C0F894C3
:1026E0005092C0081093C1086296CDBFDEBFDF9143
:1026F000CF911F910F91FF90EF90DF90CF90BF90FF
:10270000AF909F908F907F906F905F90089580FF23
:10271000E7CFF30182849384A484B584C12CD12CA7
:102720007601B0E09401A501B601C701A0E00E94C6
:10273000CF1CA9F1217030E040E050E060E070E093
:1027400080E090E00E94CF1CE9F090E080E0B033A0
:1027500070F48B2F869586958695F0E28F9FC00149
:102760001124805F9B4F2B2F2770820F911DFC013E
:10277000408193012B0F311DF901428BFC01208117
:10278000287F20839401A501B601C70101E00E94C2
:10279000B41C49015A016B017C01BF5FC3CFD30157
:1027A0001E968D909D90AD90BC905197C12CD12CD0
:1027B0007601B0E29401A501B601C701A0E00E9434
:1027C000CF1C09F48DCF217030E040E050E060E094
:1027D00070E080E090E00E94CF1CE9F090E080E0A3
:1027E000B03370F48B2F869586958695E0E28E9FA8
:1027F000C0011124805F9B4F2B2F2770820F911DEA
:10280000FC01408193012B0F311DF901428BFC012A
:102810002081287F20839401A501B601C70101E032
:102820000E94B41C49015A016B017C01BF5FC2CFF9
:102830001F920F920FB60F9211242F933F934F9335
:102840005F936F937F938F939F93AF93BF934091C9
:1028500038285091392860913A2870913B2880910E
:102860003628909137282091342830913528420F0E
:10287000531F611D711D2091322830913328820F22
:10288000931F883E23E0920730F0885E93404F5FAD
:102890005F4F6F4F7F4F8093362890933728409338
:1028A00038285093392860933A2870933B288091B8
:1028B000402890914128A0914228B0914328019648
:1028C000A11DB11D8093402890934128A0934228D8
:1028D000B093432881E08093B60ABF91AF919F9156
:1028E0008F917F916F915F914F913F912F910F90B9
:1028F0000FBE0F901F901895EF92FF920F931F93AA
:10290000CF93DF93E4E4F8E240E059E06DE370E058
:1029100040835183628373831482158281E090E047
:1029200086839783C8E5D8E220E133E8288339839A
:102930001F8222E02E832CE02A832DE02C832BE0C3
:102940002B8328E0E22EED82ECE4F8E24083518311
:1029500062837383148215828683978384E190E077
:102960000E94DB1C8C018AE593E8F8018083918347
:1029700087E08783FF24FA94F086C187D287C1E07D
:10298000C387009356281093572882E390E00E9453
:10299000DB1CFC011282138280EF90E0838F948F06
:1029A000858F968F84839583868397838FEE90E0BF
:1029B0008087918782879387178A14861586168663
:1029C0001786C58BC48B168A8FEF9FEF828B938BF4
:1029D000808B918BC08F118E128E078F10A3E1A276
:1029E00012A213A214A215A216A2F1AA8EE293E8D3
:1029F00080839183E0935428F0935528DF91CF9101
:102A00001F910F91FF90EF900895CF93DF93CDB773
:102A1000DEB76897CDBFDEBF88ED90E084BF9093AE
:102A2000610080E094E2A4EFB0E0809300289093EE
:102A30000128A0930228B0930328809102068660A3
:102A40008093020680910006816080930006809149
:102A500002068F7C809302068091A0008F7880937D
:102A6000A000809102068061809302061092E20528
:102A700081E08093E40583E08093010A8FEF90E08A
:102A80008093260A9093270A80E890E08093380A82
:102A90009093390A80933A0A90933B0A80933C0AB8
:102AA00090933D0A8BE08093000A8091E505816058
:102AB0008093E5058091E50582608093E505E0E877
:102AC000FAE037E02FEF90E885E03183248795879F
:102AD00080837096E03C4AE0F407B9F780E094E028
:102AE00080933E2890933F2880913E2890913F28E4
:102AF0002FEF30E0B9010E94391C60933C2870939D
:102B00003D2880913E2890913F28E8EEF3E0BF01F8
:102B10000E94391C609334287093352880913E2898
:102B200090913F28BF010E94391C809332289093D6
:102B300033282093BC0A3093BD0A8091B50A816086
:102B40008093B50A84E08093B00A8091B00A8160D6
:102B50008093B00A78948091542890915528DC0194
:102B6000ED91FC910084F185E02D4FEF5FEFBA010C
:102B70000995E0915428F0915528E983FA8306815C
:102B80001781C480D5800190F081E02D0484F58503
:102B9000E02D89819A810995EE24EA94FE2C960114
:102BA00050E040E070E060E089819A810E94320943
:102BB000A981BA81ED91FC9111970688F789E02DE2
:102BC000CD01099582E00E940A0383E00E940A0376
:102BD00084E00E940A0385E00E940A0386E00E94C6
:102BE0000A0370E060E082E00E94210370E060E090
:102BF00083E00E94210370E060E084E00E942103F2
:102C000070E060E085E00E94210370E060E086E013
:102C10000E94210389E00E940A0361E070E089E0DC
:102C20000E942103E0915428F09155282481358198
:102C300086819781281739070CF4C90197FD019601
:102C4000959587958093242890932528E0912428B2
:102C5000F0912528E983FA83CF01880F991F9F01FE
:102C6000280F391F37FF02C0295F3F4F53E03595CA
:102C700027955A95E1F7209314283093152863E09F
:102C800070E00E944D1C6B0160931A2870931B2802
:102C900085E049815A81849F7001859FF00C112441
:102CA000C70166E070E00E944D1CFB01609326287E
:102CB00070932728C70164E270E00E944D1C8B01CD
:102CC0002C0D3D1D2E0F3F1FC9010396880F991F24
:102CD000880F991F0E94DB1C80930E2890930F2869
:102CE000C70168EB7FEF0E944D1C89819A81860F96
:102CF000971F89879A87C801880F991F6DEF7FEF0B
:102D00000E944D1CA981BA81A60FB71FAB87BC8753
:102D1000E981FA81E01BF10BED87FE87312C212C34
:102D200029813A81032E000C440B550B2F87388BD9
:102D3000498B5A8B822D6FE00E942D1C992309F438
:102D400026C3822D65E00E942D1C992309F426C319
:102D500049855A854B8B5C8B0FEE1BE7B101032C29
:102D6000000C880B990B0E94A41A20E537E746ED6A
:102D70005DE30E946F1B2AED3FE049EC5FE30E9498
:102D8000FA196B017C010E94671A69837A838B832D
:102D90009C83C701B6010E94DC1B4B015C016F855F
:102DA000788989899A890E94A41A6D837E838F838A
:102DB00098876091242870912528072E000C880B95
:102DC000990B0E94A41A6B017C01EB89FC89BF015D
:102DD000FF0F880B990B0E94A41A2B013C01209134
:102DE0005428309155282F8B388FD901ED91FC91C3
:102DF0000484F585E02DC9010995A3019201C5015F
:102E0000B4010E946F1BA70196010E94FB190E944A
:102E10006C1A6B8B7C8B8D8B9E8BA30192016981CD
:102E20007A818B819C810E946F1BA70196010E9471
:102E3000FB190E946C1A2B012D813E814F81588510
:102E4000C501B4010E946F1BA70196010E94FB19E6
:102E50000E946C1A4B012D813E814F8158856981FA
:102E60007A818B819C810E946F1BA70196010E9431
:102E7000FB190E946C1AAF89B88DED91FC911197E6
:102E80000488F589E02D78010B891C899201A40141
:102E9000CD010995AF89B88DED91FC911197068808
:102EA000F789E02DCD010995BFEF2B1A3B0AECE322
:102EB0002E16310409F03ECF8BE090E08093282855
:102EC0009093292885E290E080932A2890932B28DC
:102ED00081E390E080932C2890932D282FB7F894CD
:102EE000609138287091392880913A2890913B2838
:102EF0002FBF28EE33E040E050E00E94611C2F5FBE
:102F00003F4F4F4F5F4FA8EEB3E00E94A71C609366
:102F10002E2870932F28809330289093312840E0FA
:102F2000242E40E0342E8FB7F894409138285091E9
:102F3000392860913A2870913B288FBF80912E28C4
:102F400090912F28A0913028B09131284817590727
:102F50006A077B07C8F088519C4FAF4FBF4F8093E3
:102F60002E2890932F28A0933028B0933128809159
:102F70002C2890912D2801968C33910509F413C2C9
:102F800080932C2890932D28CB01BA0128EE33E0B2
:102F900040E050E00E94611C0E94A21A2FE632E13C
:102FA00043E85AE30E946F1B6B017C0160912C285F
:102FB00070912D28072E000C880B990B0E94A41AE3
:102FC0009B01AC01C701B6010E94FB1920E537E760
:102FD00046ED5DE30E946F1B4B015C012AED3FE073
:102FE00049EC5FE30E94FA192B013C010E94671A29
:102FF0006D837E838F839887609126287091272820
:10300000072E000C880B990B0E94A41A69837A83FF
:103010008B839C836091242870912528072E000CB7
:10302000880B990B0E94A41A6B017C0129813A81BB
:103030004B815C816D817E818F8198850E946F1BA1
:10304000A70196010E94FB190E946C1A6D837E8372
:103050006093222870932328C301B2010E94DC1BD5
:103060009B01AC0169817A818B819C810E946F1BDD
:10307000A70196010E94FB190E946C1AAB01609394
:1030800020287093212820911E2830911F288D819F
:103090009E818217930741F420911C2830911D28AE
:1030A0004217530709F46CC160912A2870912B28AC
:1030B000072E000C880B990B0E94A41A20E537E715
:1030C00046ED5DE30E946F1B2B013C0129E838E8C7
:1030D00048E85CE3C501B4010E946F1B9B01AC0191
:1030E000C301B2010E94FB194B015C012AED3FE0D4
:1030F00049EC5FE30E94FA192B013C0160912828FA
:1031000070912928072E000C880B990B0E94A41A95
:1031100022E93AE046E05FE30E946F1B69837A830D
:103120008B839C832AEA3AEA4AEA5DE3C501B4014B
:103130000E946F1B9B01AC0169817A818B819C810C
:103140000E94FB192AED3FE049EC5FE30E94FA1967
:103150004B015C01C301B2010E94671A6D837E833B
:103160008F83988760911A2870911B28072E000C76
:10317000880B990B0E94A41A69837A838B839C83A2
:103180009B01AC016D817E818F8198850E946F1BB0
:10319000A70196010E94FB190E946C1A60931828DF
:1031A00070931928C301B2010E94DC1B9B01AC0182
:1031B00069817A818B819C810E946F1BA701960196
:1031C0000E94FB190E946C1A6093162870931728AE
:1031D000C501B4010E94671A69837A838B839C833B
:1031E0006091142870911528072E000C880B990BFC
:1031F0000E94A41A2B013C01AC019B0169817A81D8
:103200008B819C810E946F1BA70196010E94FB1974
:103210000E946C1A6093122870931328C501B401A0
:103220000E94DC1B9B01AC01C301B2010E946F1B19
:10323000A70196010E94FB190E946C1A6093102846
:10324000709311288091542890915528DC01ED91BC
:10325000FC910484F585E02D0995809124289091B6
:103260002528E0902628F0902728BFEFEB1AFB0ACC
:1032700000910E2810910F282091202830912128AC
:103280004091222850912328A12CC12CBC010E94DE
:10329000A70F8091242890912528E0901428F09081
:1032A0001528EFEFEE1AFE0A009126281091272824
:1032B0000F5F1F4F000F111F000F111F20910E28CD
:1032C00030910F28020F131F2091102830911128E0
:1032D0004091122850911328CC24C394BC010E9421
:1032E000A70F8091242890912528E0901A28F0902B
:1032F0001B28FFEFEF1AFF0A0091262810912728BC
:103300002091142830911528020F131F0E5F1F4FB4
:10331000000F111F000F111F20910E2830910F2850
:10332000020F131F2091162830911728409118285A
:1033300050911928AA24A394BC010E94A70F809140
:10334000542890915528DC01ED91FC910688F7896D
:10335000E02D0995809122289091232880931E28A2
:1033600090931F28809120289091212880931C28D9
:1033700090931D2861E070E080E090E00E94B2032D
:103380002114310409F4CFCD0E940000CCCD8D85ED
:103390009E858B8B9C8B10E000E0E0CCAB85BC85E0
:1033A000AB8BBC8BF8CF10922C2810922D288091DB
:1033B0002A2890912B2801968C3391052CF4809328
:1033C0002A2890932B28E0CD10922A2810922B289F
:1033D00080912828909129280196883191052CF414
:1033E0008093282890932928CFCD109228281092D6
:1033F0002928CACD5058BB27AA270E94121A0C941C
:10340000211B0E94E81A38F00E94EF1A20F039F4CC
:103410009F3F19F426F40C94E51A0EF4E095E7FBAF
:103420000C94DF1AE92F0E94461B58F3BA17620763
:1034300073078407950720F079F4A6F50C94681BB0
:103440000EF4E0950B2EBA2FA02D0B01B9019001BF
:103450000C01CA01A0011124FF27591B99F0593F03
:1034600050F4503E68F11A16F040A22F232F342F4B
:103470004427585FF3CF469537952795A795F04099
:103480005395C9F77EF41F16BA0B620B730B840BAE
:10349000BAF09150A1F0FF0FBB1F661F771F881F66
:1034A000C2F70EC0BA0F621F731F841F48F48795BE
:1034B00077956795B795F7959E3F08F0B0CF9395B0
:1034C000880F08F09927EE0F9795879508950E9429
:1034D000F81AE3950C94321B0E94731A6894B11188
:1034E0000C94691B08950E944E1B88F09F5798F01A
:1034F000B92F9927B751B0F0E1F0660F771F881FF9
:10350000991F1AF0BA95C9F714C0B13091F00E9412
:10351000681BB1E008950C94681B672F782F8827EB
:10352000B85F39F0B93FCCF3869577956795B39539
:10353000D9F73EF490958095709561957F4F8F4FA8
:103540009F4F0895E89409C097FB3EF490958095AD
:10355000709561957F4F8F4F9F4F9923A9F0F92F59
:1035600096E9BB279395F695879577956795B795D7
:10357000F111F8CFFAF4BB0F11F460FF1BC06F5FBD
:103580007F4F8F4F9F4F16C0882311F096E911C0CF
:10359000772321F09EE8872F762F05C0662371F0F0
:1035A00096E8862F70E060E02AF09A95660F771F04
:1035B000881FDAF7880F9695879597F9089597F9F8
:1035C0009F6780E870E060E008959FEF80EC0895C9
:1035D00000240A94161617061806090608950024F2
:1035E0000A94121613061406050608950C94E51A9B
:1035F0000E944E1BD8F3E894E0E0BB279F57F0F001
:103600002AED3FE049EC06C0EE0FBB0F661F771FA7
:10361000881F28F0B23A62077307840728F0B25A6D
:10362000620B730B840BE3959A9572F7803830F434
:103630009A95BB0F661F771F881FD2F790480C948E
:10364000E61B092E0394000C11F4882352F0BB0FE3
:1036500040F4BF2B11F460FF04C06F5F7F4F8F4FAA
:103660009F4F0895EF93E0FF07C0A2EA2AED3FE0E5
:1036700049EC5FEB0E94121A0E94211B0F900394E9
:1036800001FC9058E0EAF0E00C94F21B57FD9058D2
:10369000440F551F59F05F3F71F04795880F97FB16
:1036A000991F61F09F3F79F08795089512161306D0
:1036B0001406551FF2CF4695F1DF08C016161706FF
:1036C0001806991FF1CF8695710561050894089534
:1036D000E894BB2766277727CB0197F908950E94C6
:1036E000821B0C94211B0E94E81A38F00E94EF1AEA
:1036F00020F0952311F00C94DF1A0C94E51A112494
:103700000C94691B0E94461B70F3959FC1F3950FA3
:1037100050E0551F629FF001729FBB27F00DB11D55
:10372000639FAA27F00DB11DAA1F649F6627B00DE5
:10373000A11D661F829F2227B00DA11D621F739FCE
:10374000B00DA11D621F839FA00D611D221F749FDC
:103750003327A00D611D231F849F600D211D822F23
:10376000762F6A2F11249F5750409AF0F1F088234A
:103770004AF0EE0FFF1FBB1F661F771F881F915077
:103780005040A9F79E3F510580F00C94DF1A0C942D
:10379000691B5F3FE4F3983ED4F386957795679570
:1037A000B795F795E7959F5FC1F7FE2B880F911DA1
:1037B0009695879597F908959F930E94F81A0F9010
:1037C00007FCEE5F0C94321B9F3F31F0915020F4C8
:1037D000879577956795B795880F911D96958795ED
:1037E00097F908959F938F937F936F93FF93EF9330
:1037F0009B01AC010E946F1BEF91FF910E94061C80
:103800002F913F914F915F910C946F1BDF93CF935A
:103810001F930F93FF92EF92DF927B018C016894CC
:1038200006C0DA2EEF010E94821BFE01E894A591EA
:103830002591359145915591A6F3EF010E94121AF9
:10384000FE019701A801DA9469F7DF90EF90FF90ED
:103850000F911F91CF91DF910895991B79E004C0DA
:10386000991F961708F0961B881F7A95C9F78095BF
:103870000895AA1BBB1B51E107C0AA1FBB1FA617B7
:10388000B70710F0A61BB70B881F991F5A95A9F709
:1038900080959095BC01CD01089597FB072E16F4F5
:1038A000009407D077FD09D00E94391C07FC05D091
:1038B0003EF4909581959F4F0895709561957F4F47
:1038C0000895A1E21A2EAA1BBB1BFD010DC0AA1F61
:1038D000BB1FEE1FFF1FA217B307E407F50720F079
:1038E000A21BB30BE40BF50B661F771F881F991FF4
:1038F0001A9469F760957095809590959B01AC013D
:10390000BD01CF010895EE0FFF1F0590F491E02D4A
:1039100009940E94911C332312F48A1B9B0B0C9474
:10392000A21CA29FB001B39FC001A39F700D811D77
:103930001124911DB29F700D811D1124911D0895B8
:103940000E94911CB7FF0895821B930B08950E945B
:10395000911CA59F900DB49F900DA49F800D911D6B
:103960001124089597FD1094002E083098F0085007
:10397000232F342F452F562F672F782F892F912DE6
:10398000F4CF1594979587957795679557954795B3
:10399000379527950A95AAF71124002D089500243C
:1039A000A7FD00942A1730054005500560057005F5
:1039B0008005900508950F931F93CF93DF93823076
:1039C000910510F482E090E0E0919C28F0919D2810
:1039D00030E020E0B0E0A0E0309799F42115310507
:1039E00009F44AC0281B390B24303105D8F58A81E7
:1039F0009B816115710589F1FB0182839383FE012F
:103A000011C0408151810281138148175907E0F0AC
:103A10004817590799F4109761F012960C93129772
:103A200013961C933296CF01DF91CF911F910F9186
:103A3000089500939C2810939D28F4CF21153105FB
:103A400051F04217530738F0A901DB019A01BD017B
:103A5000DF01F801C1CFEF01F9CF80939C2890934B
:103A60009D28CDCFFE01E20FF31F81939193225049
:103A7000310928833983D7CF20919A2830919B2808
:103A8000232B41F4209106283091072820939A286F
:103A900030939B2820910428309105282115310569
:103AA00041F42DB73EB74091082850910928241BB6
:103AB000350BE0919A28F0919B28E217F307A0F4C8
:103AC0002E1B3F0B2817390778F0AC014E5F5F4F74
:103AD0002417350748F04E0F5F1F40939A285093E4
:103AE0009B28819391939FCFF0E0E0E09CCFCF9310
:103AF000DF930097E9F0FC01329712821382A091C4
:103B00009C28B0919D28ED0130E020E01097A1F4B1
:103B100020813181820F931F20919A2830919B2818
:103B20002817390709F061C0E0939A28F0939B2881
:103B3000DF91CF910895EA01CE17DF07E8F54A81BA
:103B40005B819E0141155105B1F7E901EA83FB83D1
:103B500049915991C40FD51FEC17FD0761F480817D
:103B600091810296840F951FE90188839983828150
:103B700093818A839B83F0E0E0E012968D919C9183
:103B800013970097B9F52D913C911197CD010296AD
:103B9000820F931F20919A2830919B28281739076C
:103BA00039F6309751F510929C2810929D28A093D9
:103BB0009A28B0939B28BCCFC283D3834081518184
:103BC000840F951FC817D90761F44E5F5F4F888136
:103BD0009981480F591F408351838A819B81828339
:103BE00093832115310509F0B0CFE0939C28F09321
:103BF0009D289ECFFD01DC01C0CF12821382D7CF5A
:103C000081E090E0F8940C94CA20B0E0A0E0EBE0F2
:103C1000FEE10C94A920AE014B5F5F4FFA01619168
:103C20007191AF018091A0289091A1280E941B1E44
:103C3000E2E00C94C220ABE0B0E0E1E2FEE10C94E3
:103C400099207C013B018A01FC0116821782838145
:103C500081FFC8C1CE0101965C01F7019381F30198
:103C600093FD859193FF81913F01882309F453C10E
:103C7000853239F493FD859193FF81913F0185321F
:103C800029F4B70190E00E940B20E7CF912C212C62
:103C9000312CFFE1F31538F08B3211F190F48032C2
:103CA00009F1833229F137FC3CC020ED280F2A307E
:103CB00050F536FE20C08AE0989E200D1124922EE9
:103CC00006C08D3291F0803371F7689430F8F301BB
:103CD00093FD859193FF81913F018111DACF21C03E
:103CE000689431F8689432F8F2CF689433F8EFCFE3
:103CF000689434F8ECCFEAE02E9E200D1124222E99
:103D0000689435F8E4CF8E3229F436FC04C1689407
:103D100036F8DDCF8C3619F4689437F8D8CF88366A
:103D2000B1F2982F9F7D95549330E0F08336A1F146
:103D30008337C1F1833509F063C02801F2E04F0EEB
:103D4000511CF801C080D180692D70E036FC02C0A2
:103D50006FEF7FEFC6010E94F51F4C01689437F8A2
:103D600082010AC00C5F1F4FFFE3F983882483940C
:103D7000912C6501E89437F833FE2DC0522C811444
:103D8000910471F5552009F468CFB70180E290E005
:103D90000E940B205A94F6CFF801808189830E5F30
:103DA0001F4FE4CF2801F2E04F0E511CF801C080F4
:103DB000D180692D70E036FC02C06FEF7FEFC60145
:103DC0000E9400204C018201D5CFB70180E290E033
:103DD0000E940B202A942814190409F0B0F7CECFC2
:103DE000F60137FC859137FE81916F01B70190E0B4
:103DF0000E940B2051105A94F1E08F1A9108BFCF06
:103E0000843619F0893609F077C0F80137FE6BC0A7
:103E100060817181828193810C5F1F4FF32DFF764A
:103E20003F2E97FF09C090958095709561957F4FC3
:103E30008F4F9F4F689437F82AE030E0A5010E9429
:103E40003B20C82ECA188C2C432C36FE0CC0E8949C
:103E500040F8C91440F434FE05C032FC03C0F32D11
:103E6000FE7E4F2E892C44FE95C0FE01EC0DF11D07
:103E70008081803309F087C0242D297E422E842D35
:103E80008870582E43FC95C040FE8FC09C2C821435
:103E900018F42C0C922C981844FE91C0B70180E3C2
:103EA00090E00E940B2042FE09C088E790E041FEAE
:103EB00002C088E590E0B7010E940B20C91408F405
:103EC0008AC0CA94D12C9FEFC91AD90ACA0CDB1C2C
:103ED000F60182916F01B70190E00E940B20AC14B3
:103EE000BD04B1F74FCF60817181072E000C880BA4
:103EF000990B0E5F1F4F92CFD32CE894D4F82AE091
:103F000030E0853739F1232D297FD22E8F3601F10C
:103F100048F48835A9F0F701868197812B96E2E174
:103F20000C94B220803749F08837A9F7D4FE02C03C
:103F30006894D2F820E130E00DC06894D4F8F6CF50
:103F400034FE03C0822F8660D82E20E132E002C00A
:103F500028E030E0F801D7FE0FC0608171818281D6
:103F600093810C5F1F4FA5010E943B20C82ECA18E9
:103F70003D2CE89437F867CF6081718190E080E054
:103F80000E5F1F4FF0CF42FC02C0839478CF839422
:103F9000839475CF842D867809F471CFF6CFB7015D
:103FA00080E290E00E940B2083948214C0F3512C95
:103FB00073CF522C5818821408F46ECFF8CF842D8A
:103FC000867809F47BCF8BE241FE80E247FC8DE2EC
:103FD000B70190E071CFB70180E390E00E940B2021
:103FE0009A946CCF8FEF9FEF99CFFC0105906150B1
:103FF00070400110D8F7809590958E0F9F1F0895FF
:10400000FC016150704001900110D8F780959095A7
:104010008E0F9F1F08950F931F93CF93DF93182F39
:10402000092FEB018B8181FD09C01FEF0FEF812F5D
:10403000902FDF91CF911F910F91089582FF14C0AF
:104040002E813F818C819D81281739073CF4E881BE
:10405000F981CF0101968883998310838E819F8196
:1040600001968E839F83E3CFE885F985812F09959B
:10407000892BA1F3DACFFA01AA27283051F1203198
:1040800081F1E8946F936E7F6E5F7F4F8F4F9F4FEC
:10409000AF4FB1E03ED0B4E03CD0670F781F891F2E
:1040A0009A1FA11D680F791F8A1F911DA11D6A0FFC
:1040B000711D811D911DA11D20D009F468943F91AF
:1040C0002AE0269F11243019305D3193DEF6CF01AE
:1040D0000895462F4770405D4193B3E00FD0C9F774
:1040E000F6CF462F4F70405D4A3318F0495D31FDE1
:1040F0004052419302D0A9F7EACFB4E0A695979534
:10410000879577956795BA95C9F700976105710509
:1041100008959B01AC010A2E069457954795379553
:104120002795BA95C9F7620F731F841F951FA01DAD
:1041300008952F923F924F925F926F927F928F924B
:104140009F92AF92BF92CF92DF92EF92FF920F9326
:104150001F93CF93DF93CDB7DEB7CA1BDB0BCDBF69
:10416000DEBF09942A88398848885F846E847D84FC
:104170008C849B84AA84B984C884DF80EE80FD800F
:104180000C811B81AA81B981CE0FD11DCDBFDEBFAD
:08419000ED010895F894FFCF42
:1041980068C8A80001EF06EB1401FE01EF06EB1456
:1041A8000684400685FF0686FF0687FF06880A06FE
:1041B8008921068A00068B80068C01068D01068EF1
:1041C800FF068FFF07B60020063A05019005040890
:1041D80008080806BD0606BC0001FF0503600104C7
:1041E80006C31306C41306C92206BE1107E1100E42
:1041F80001DF0503210C0201F00506450908082620
:104208002A01F1050643707236376F01F20506453B
:10421800090808262A01F3050643707236376F0726
:10422800ED1B0B06AE7706CD630170050907070481
:104238000E0F0907080306E8340162050C180D7112
:10424800ED7070180F71EF70700163050C18117123
:10425800F17070181371F37070016405072829F163
:1042680001F100070166050A3C00CD6745451000CD
:1042780000000167050A003C000000015410329854
:104288000174050710858000004E0007983E07015D
:10429800350111090A78000129090A1400000003F0
:1042A8000001020000010100000000000000000001
:1042B80000000000000005040005060204010300D8
:1042C80001000102030201000203040502030504C0
:1042D80002020005020105000401010404040303AD
:1042E8000303050503030000010120100120400419
:1042F8001002080102010204080402010408102047
:1043080004082010000000000F0401115F043004AD
:104318001004630512053E136904B305AD05EC12DC
:10432800A50500000000700CE203570E770873081B
:10433800FE0720083A07AB076407740D2F07C40867
:104348008F0E830E770EB905F307240703110000BB
:1043580000000612EF06D806C206A1069C068806CB
:10436800340F040F1C0FDF0E9E0E5C062806556ED8
:104378006B6E6F776E206F7065726174696F6E20F7
:0D43880069642061742025643A20256400DA
:0A4395000024F4000000A4288000BA
:00000001FF
